:0400000097EF00F086
:100008004B82FACF0FF0FBCF10F0D9CF11F0DACF37
:1000180012F0F3CF13F0F4CF14F00E01C2AB17EFC8
:1000280000F019EF00F024EF00F0CAAB1EEF00F06B
:1000380020EF00F024EF00F01CEC3CF089EF00F01A
:10004800F2AC29EF00F02BEF00F089EF00F0C5A922
:1000580030EF00F032EF00F048EF00F0CDA937EFB5
:1000680000F039EF00F048EF00F002D846EF00F05A
:100078000500FA6E0101E851FD6EE951FE6EFF6A56
:10008800FA50120089EF00F0C5AB4DEF00F04FEFCA
:1000980000F065EF00F0CDAB54EF00F056EF00F044
:1000A80065EF00F002D863EF00F00500FA6E010179
:1000B800E651FD6EE751FE6EFF6AFA50120089EFB5
:1000C80000F0C3A36AEF00F06CEF00F077EF00F0E8
:1000D800CBA371EF00F073EF00F077EF00F089EC3D
:1000E80039F089EF00F0C6A17CEF00F07EEF00F058
:1000F80089EF00F0CEA183EF00F085EF00F089EFE3
:1001080000F0DEEC3BF089EF00F014C0F4FF13C000
:10011800F3FF12C0DAFF11C0D9FF10C0FBFF0FC0F8
:10012800FAFF4B92110035EF32F0000E0001C96F53
:10013800000EC86FA4C0DAF0A5C0DBF0A6C0DCF0E2
:10014800A7C0DDF0DDBFADEF00F0ABEF00F0C3EF0F
:1001580000F0000EC96F010EC86FDAC015F0DBC0E1
:1001680016F0DCC017F0DDC018F0E5EC38F015C06B
:10017800DAF016C0DBF017C0DCF018C0DDF0000EB6
:100188000001E16F000EE06F61C1CCF062C1CDF0FB
:10019800C851C911D8A4D3EF00F0D5EF00F0DCEFB7
:1001A80000F039A4DAEF00F0DCEF00F0F6EF00F031
:1001B800C851C911D8A4E3EF00F0E5EF00F0EBEF68
:1001C80000F0000EAF6F2B0EAE6FEFEF00F0000ED9
:1001D800AF6F2D0EAE6FAEC010F2E04BE12BCC0727
:1001E800D8A0CD07DAC015F0DBC016F0DCC017F0D8
:1001F800DDC018F028EC2AF015041610D8A407EF73
:1002080001F009EF01F060EF01F0BF0E0001A96FE6
:10021800FF0EAA6FA851AB6FAC6BA951AB27AA51BF
:10022800AC23AC510AE11A0EAB5DD8A01EEF01F069
:1002380021EF01F0010E22EF01F0000EB06FB16B5B
:10024800B051B111D8B42BEF01F02DEF01F03BEF15
:1002580001F0100EE025156E020EE121166EEC0E6F
:10026800176EFF0E186E35EC34F047EF01F0100EE4
:10027800E025156E020EE121166EF40E176EFF0EC4
:10028800186E35EC34F00001FD0ECC27FF0ECD239F
:10029800A2C027F0A3C028F0100E296E020E2A6E05
:1002A800CCC02BF0CDC02CF017EC2EF027C0A2F05C
:1002B80028C0A3F0F1EF06F0DAC015F0DBC016F0A5
:1002C800DCC017F0DDC018F028EC2AF01550161025
:1002D800D8A471EF01F073EF01F0CAEF01F0BF0E7F
:1002E8000001A96FFF0EAA6FA851AB6FAC6BA951A3
:1002F800AB27AA51AC23AC510AE11A0EAB5DD8A0CA
:1003080088EF01F08BEF01F0010E8CEF01F0000E89
:10031800B26FB36BB251B311D8B495EF01F097EF48
:1003280001F0A5EF01F0100EE025156E020EE12197
:10033800166EF00E176EFF0E186E35EC34F0B1EF36
:1003480001F0100EE025156E020EE121166EF80E72
:10035800176EFF0E186E35EC34F00001FD0ECC2739
:10036800FF0ECD23A2C027F0A3C028F0100E296EDF
:10037800020E2A6ECCC02BF0CDC02CF017EC2EF05C
:1003880027C0A2F028C0A3F0F1EF06F0000E00018C
:10039800E26F000EE36F800EE46F3F0EE56F000E14
:1003A800DF6F000EDE6FDAC015F0DBC016F0DCC0C0
:1003B80017F0DDC018F0000E196E000E1A6E000E50
:1003C8001B6E000E1C6E89EC2FF0D8B0EEEF01F01A
:1003D800F0EF01F076EF02F00FEF02F0E2C07DF0EF
:1003E800E3C07EF0E4C07FF0E5C080F0000E816FCE
:1003F800000E826F200E836F410E846F2CEC11F07B
:100408007DC0E2F07EC0E3F07FC0E4F080C0E5F09C
:100418000001DE4BDF2BDAC096F0DBC097F0DCC0C2
:1004280098F0DDC099F0000E0001816F000E826F18
:10043800200E836F410E846FE2C07DF0E3C07EF032
:10044800E4C07FF0E5C080F02CEC11F07DC09AF09C
:100458007EC09BF07FC09CF080C09DF023EC29F00B
:100468000001D8B03AEF02F03CEF02F0F2EF01F0F1
:100478005CEF02F0E2C060F0E3C061F0E4C062F05B
:10048800E5C063F0000E646F000E656F200E666FA6
:10049800410E676F42EC13F060C0E2F061C0E3F018
:1004A80062C0E4F063C0E5F00001DE07D8A0DF0712
:1004B800DAC096F0DBC097F0DCC098F0DDC099F0A8
:1004C800E2C09AF0E3C09BF0E4C09CF0E5C09DF068
:1004D80023EC29F00001D8A074EF02F076EF02F0C7
:1004E8003EEF02F0A8C01BF01C6A05EC34F01B506C
:1004F8000001CF6FCFC0CEF0670ECF19D8A487EF19
:1005080002F089EF02F0AFEF02F037503810D8A4AC
:1005180090EF02F092EF02F096EF02F0000E386EC4
:10052800010E376E38BEA3EF02F0385006E13704EB
:10053800D8B0A1EF02F0A3EF02F0A9EF02F0000E8D
:10054800CB6F060ECA6FB8EF02F037C0CAF038C0DA
:10055800CBF0B8EF02F038BEB4EF02F0B6EF02F01D
:10056800A3EF02F0A9EF02F0670ECF19D8A4BFEFEE
:1005780002F0C1EF02F0F0EF02F0DFAFCFEF02F0D0
:10058800FC0EDE5DFF0EDF59D8A0CDEF02F0CFEFF5
:1005980002F0EEEF02F0FF0EA96FFF0EAA6FCAC0BD
:1005A800ABF0CBC0ACF0A951AB27AA51AC23DE51BC
:1005B800AB5DAC51800AAD6FDF51800AAD59D8A050
:1005C800E8EF02F0EAEF02F0EEEF02F0660ECE6F0F
:1005D800F0EF02F0650ECE6FCAC0C0F0CBC0C1F01C
:1005E800670ECF19D8A4FBEF02F0FDEF02F00DEF74
:1005F80003F0660ECE19D8A404EF03F006EF03F05B
:100608000FEF03F0DFBF0DEF03F00BEF03F00FEF79
:1006180003F0C04BC12B660ECE19D8A416EF03F019
:1006280018EF03F038EF03F0DFBF1FEF03F01DEF03
:1006380003F02BEF03F0000EE26F000EE36F800E65
:10064800E46F3F0EE56F000EDF6F000EDE6F670E82
:10065800CF19D8B432EF03F034EF03F038EF03F0DA
:10066800DE51C027DF51C123000ED96F000ED86FAD
:10067800DAC0D0F0DBC0D1F0DCC0D2F0DDC0D3F0FE
:10068800E2C0C2F0E3C0C3F0E4C0C4F0E5C0C5F006
:10069800CAEF03F0D0C060F0D1C061F0D2C062F000
:1006A800D3C063F0E2C064F0E3C065F0E4C066F074
:1006B800E5C067F042EC13F060C075F061C076F0F9
:1006C80062C077F063C078F03BEC18F075C0D4F0E6
:1006D80076C0D5F077C0D6F078C0D7F0D4C096F001
:1006E800D5C097F0D6C098F0D7C099F09FEC28F005
:1006F80096C0C6F097C0C7F0D0C075F0D1C076F0EC
:10070800D2C077F0D3C078F0E2C081F0E3C082F0C5
:10071800E4C083F0E5C084F0D4C07DF0D5C07EF09D
:10072800D6C07FF0D7C080F02CEC11F07DC079F0F6
:100738007EC07AF07FC07BF080C07CF091EC36F010
:1007480075C0D0F076C0D1F077C0D2F078C0D3F0C1
:10075800E2C060F0E3C061F0E4C062F0E5C063F0BD
:10076800000E0001646F000E656F200E666F410E6B
:10077800676F42EC13F060C0E2F061C0E3F062C062
:10078800E4F063C0E5F00001D84BD92BC051D85D27
:10079800D951800AA96FC151800AA959D8A0D7EFA9
:1007A80003F0D9EF03F04EEF03F0E2C07DF0E3C0B1
:1007B8007EF0E4C07FF0E5C080F0000E816F000E8F
:1007C800826FA00E836F400E846F2CEC11F07DC0F9
:1007D800D4F07EC0D5F07FC0D6F080C0D7F0D0C0AE
:1007E80096F0D1C097F0D2C098F0D3C099F0D4C099
:1007F8009AF0D5C09BF0D6C09CF0D7C09DF023ECF2
:1008080029F00001D8B00BEF04F00DEF04F017EF5A
:1008180004F0000ED46F000ED56F000ED66F000ED8
:10082800D76F40EF04F0D0C015F0D1C016F0D2C099
:1008380017F0D3C018F0D4C019F0D5C01AF0D6C03C
:100848001BF0D7C01CF089EC2FF0D8A02EEF04F0D5
:1008580030EF04F040EF04F00001C6B136EF04F0C9
:1008680038EF04F040EF04F0000ED46F000ED56F9F
:10087800000ED66F000ED76FDAC023F0DBC024F06D
:10088800DCC025F0DDC026F0D4C027F0D5C028F0A4
:10089800D6C029F0D7C02AF09FEC0CF023C0D0F0C6
:1008A80024C0D1F025C0D2F026C0D3F0D0C096F035
:1008B800D1C097F0D2C098F0D3C099F0000E0001D3
:1008C800816F000E826F200E836F410E846FC2C04D
:1008D8007DF0C3C07EF0C4C07FF0C5C080F02CECB2
:1008E80011F07DC09AF07EC09BF07FC09CF080C064
:1008F8009DF023EC29F00001D8A085EF04F087EFE4
:1009080004F0AFEF04F0DE4BDF2BC2C07DF0C3C0B4
:100918007EF0C4C07FF0C5C080F0000E816F000E6D
:10092800826F200E836F410E846F2CEC11F07DC016
:10093800C2F07EC0C3F07FC0C4F080C0C5F0660EB0
:100948000001CE19D8A4ABEF04F0ADEF04F0AFEF7F
:1009580004F0C04BC12BC2C0E2F0C3C0E3F0C4C076
:10096800E4F0C5C0E5F0650ECE19D8B4BEEF04F0CA
:10097800C0EF04F0C6EF04F0DEC0BEF0DFC0BFF089
:10098800CAEF04F0000EBF6F000EBE6F000EBD6F01
:10099800000EBC6F000EBB6F000EBA6F000ED96F51
:1009A800000ED86FC7EF05F0D0C060F0D1C061F07D
:1009B800D2C062F0D3C063F0E2C064F0E3C065F077
:1009C800E4C066F0E5C067F042EC13F060C075F073
:1009D80061C076F062C077F063C078F03BEC18F045
:1009E80075C0D4F076C0D5F077C0D6F078C0D7F00F
:1009F800D4C096F0D5C097F0D6C098F0D7C099F07B
:100A08009FEC28F096C0C6F097C0C7F039B80FEF32
:100A180005F011EF05F02FEF05F00001C651C711E1
:100A2800D8A419EF05F01BEF05F02FEF05F0670EBE
:100A3800CF19D8A422EF05F024EF05F02FEF05F029
:100A4800BFBF2BEF05F029EF05F02FEF05F0BA4BEC
:100A5800BB2B7AEF05F00001BC51BD11D8A437EFCC
:100A680005F039EF05F063EF05F0BFBF40EF05F083
:100A78003EEF05F063EF05F0100EE025D96E020E8B
:100A8800E121DA6E2E0EDF6EE04BE12BCC07D8A009
:100A9800CD07000EBD6F010EBC6F63EF05F0100EA1
:100AA800E025D96E020EE121DA6E300EDF6EE04BE2
:100AB800E12BCC07D8A0CD07BA07D8A0BB07BA51FD
:100AC800BB11D8A46AEF05F06CEF05F053EF05F001
:100AD800100EE025D96E020EE121DA6EC651300FF4
:100AE800DF6EE04BE12BCC07D8A0CD07D0C075F066
:100AF800D1C076F0D2C077F0D3C078F0E2C081F0F0
:100B0800E3C082F0E4C083F0E5C084F0D4C07DF097
:100B1800D5C07EF0D6C07FF0D7C080F02CEC11F0A5
:100B28007DC079F07EC07AF07FC07BF080C07CF019
:100B380091EC36F075C0D0F076C0D1F077C0D2F025
:100B480078C0D3F0E2C060F0E3C061F0E4C062F0C6
:100B5800E5C063F0000E0001646F000E656F200EA3
:100B6800666F410E676F42EC13F060C0E2F061C03F
:100B7800E3F062C0E4F063C0E5F00001BE07D8A06E
:100B8800BF07D84BD92BC051D85DD951800AA96F5E
:100B9800C151800AA959D8B0D4EF05F0D6EF05F0B5
:100BA800E4EF05F0E1BFE2EF05F0E15109E14B0E9A
:100BB800E05DD8A0E2EF05F0E4EF05F0D8EF04F02F
:100BC800BC51BD11D8A4EBEF05F0EDEF05F0FEEF39
:100BD80005F039A8F2EF05F0F4EF05F0FEEF05F0A7
:100BE800100EE025D96E020EE121DA6E2E0EDF6EB0
:100BF800E04BE12B100EE025D96E020EE121DA6EF2
:100C0800000EDF6E650ECE19D8A40DEF06F00FEFBB
:100C180006F0DFEF06F0000ED96F4F0ED86F100EFA
:100C2800D825D96E020ED921DA6E000EDF6E000EBD
:100C3800C96F000EC86FDFBF26EF06F024EF06F07D
:100C48002EEF06F0000EC96F010EC86FDE6DDF1FB4
:100C5800D8B0DF2B000ECB6F020ECA6F5FEF06F025
:100C6800D807D8A0D907100ED825D96E020ED921D9
:100C7800DA6EDEC015F0DFC016F0000E186E0A0E30
:100C8800176E31EC2FF01550300FDF6EDEC015F007
:100C9800DFC016F0000E186E0A0E176EB5EC2DF0B8
:100CA80015C0DEF016C0DFF00001CA07D8A0CB07D8
:100CB800CC07D8A0CD07DE51DF11D8A466EF06F027
:100CC80068EF06F034EF06F0CBBF75EF06F0CB51B6
:100CD80006E1CA05D8B073EF06F075EF06F034EFF9
:100CE80006F0D807D8A0D907C851C911D8A47FEFF2
:100CF80006F081EF06F087EF06F0000EB56F2B0EB9
:100D0800B46F8BEF06F0000EB56F2D0EB46F100E9A
:100D1800D825D96E020ED921DA6EB4C0DFFFCC0710
:100D2800D8A0CD07D807D8A0D907BF0EA96FFF0E46
:100D3800AA6FA851AB6FAC6BA951AB27AA51AC23D2
:100D4800AC510AE11A0EAB5DD8A0ADEF06F0B0EFDA
:100D580006F0010EB1EF06F0000EB86FB96BB8518E
:100D6800B911D8A4BAEF06F0BCEF06F0C2EF06F04E
:100D7800000EB76F650EB66FC6EF06F0000EB76FC0
:100D8800450EB66F100ED825D96E020ED921DA6E2F
:100D9800B6C0DFFFCC07D8A0CD07100EE025156E32
:100DA800020EE121166E100ED825176E020ED921FB
:100DB800186E35EC34F0A2C027F0A3C028F0100E4E
:100DC800296E020E2A6ECCC02BF0CDC02CF017EC89
:100DD8002EF027C0A2F028C0A3F01200600E2B6EE0
:100DE800020E2C6EE40E2D6E020E2E6EE20E2F6E8B
:100DF800020E306E7DEC26F02BC0E0F22CC0E1F242
:100E08000201E02906E1E129D8A40DEF07F00FEF70
:100E180007F06BEF09F01AEF0AF041801AEF0AF0B9
:100E280041821AEF0AF041841AEF0AF041881AEF5A
:100E38000AF0418A1AEF0AF042801AEF0AF0560EB9
:100E48000001F86FFF0EF96F44C1FAF045C1FBF0DD
:100E58006BEC3AF01AEF0AF03E0E0001F86FFF0E45
:100E6800F96F3DC0FAF03EC0FBF06BEC3AF0960E1D
:100E78000001F86FFF0EF96F3FC0FAF040C0FBF0B9
:100E88006BEC3AF01AEF0AF0A60E0001F86FFF0EAD
:100E9800F96F48C1FAF049C1FBF06BEC3AF01AEF70
:100EA8000AF0000E426E000E416E1AEF0AF05E0E56
:100EB8000001F86FFF0EF96F7FC1FAF080C1FBF0F7
:100EC8006BEC3AF01AEF0AF0860E0001F86FFF0E8D
:100ED800F96F75C1FAF076C1FBF06BEC3AF01AEFD6
:100EE8000AF07E0E0001F86FFF0EF96F73C1FAF079
:100EF80074C1FBF06BEC3AF01AEF0AF06E0E0001C9
:100F0800F86FFF0EF96F000EFB6F000EFA6F6BECB7
:100F18003AF01AEF0AF0418C1AEF0AF0760E000147
:100F2800F86FFF0EF96F000E166E020E156EA5EC27
:100F38003BF00101D26FD251D46FD36B000E166E05
:100F4800030E156EA5EC3BF00101D56FD551D311F9
:100F58000001FA6F0101D4510001FB6F6BEC3AF00C
:100F68001AEF0AF04E0E0001F86FFF0EF96F83C1F9
:100F7800FAF084C1FBF06BEC3AF01AEF0AF0E4C225
:100F880083F1E5C284F1000E166E080E156E8451C9
:100F9800176EB5EC36F0000E166E090E156E83C18D
:100FA80017F0B5EC36F01AEF0AF00E0E0001F86FE4
:100FB800FF0EF96FE4C2FAF0E5C2FBF0E4C215F0E7
:100FC800E5C216F0A5EC3BF00101D26FD251000149
:100FD800FC6FFD6B6BEC3AF01AEF0AF0E4C215F007
:100FE800E5C216F0E2C217F0B5EC36F0020E0001C9
:100FF800F86FFF0EF96FE4C2FAF0E5C2FBF0E2C247
:10100800FCF0E3C2FDF06BEC3AF01AEF0AF0E4C230
:10101800CAF1E5C2CBF1E2C2CCF1E3C2CDF1C5EC35
:1010280030F01AEF0AF010EC15F01AEF0AF076EC2F
:1010380024F01AEF0AF0E4C271F1E5C272F1000E71
:10104800166E020E156E7251176EB5EC36F0000E64
:10105800166E030E156E71C117F0B5EC36F01AEF67
:101068000AF0E4C28DF1000E166E0E0E156E8DC1DB
:1010780017F0B5EC36F01AEF0AF0230E0001F86FFE
:10108800FF0EF96F3BC0FAF03CC0FBF06BEC3AF096
:10109800190E0001F86FFF0EF96F8DC1FAF0FB6BA6
:1010A8006BEC3AF01AEF0AF0660E0001F86FFF0ECB
:1010B800F96F7BC1FAF07CC1FBF06BEC3AF01AEFE8
:1010C8000AF0418E1AEF0AF0E4C275F1E5C276F132
:1010D800000E166E040E156E7651176EB5EC36F0CE
:1010E800000E166E050E156E75C117F0B5EC36F0CC
:1010F8001AEF0AF0E4C273F1E5C274F1000E166E3D
:10110800060E156E7451176EB5EC36F0000E166E9D
:10111800070E156E73C117F0B5EC36F01AEF0AF02A
:10112800E4C23BF0E5C23CF0000E166E120E156EDE
:101138003C50176EB5EC36F0000E166E130E156E99
:101148003BC017F0B5EC36F01AEF0AF097EC3CF01C
:10115800000E0101F56F030EF46F9B0E0001F86F8E
:10116800FE0EF96F6BEC3AF01AEF0AF0010E8B6F76
:10117800840E0001F86FFE0EF96F43C0FAF0FB6BA6
:101188006BEC3AF01AEF0AF0000E8B6F000E6A6FE4
:10119800000E696F000E436E000E3C6E000E3B6E33
:1011A800000E6E6F000E6D6F000E806F000E7F6F69
:1011B800000E166E110E156E43C017F0B5EC36F022
:1011C800000E166E120E156E3C50176EB5EC36F00A
:1011D800000E166E130E156E3BC017F0B5EC36F008
:1011E800C70E0001F86FFE0EF96F6BEC3AF01AEFBC
:1011F8000AF0E4C23DF0E5C23EF0E2C23FF0E3C2CD
:1012080040F0000E166E0A0E156E4050176EB5ECC3
:1012180036F0000E166E0B0E156E3FC017F0B5ECCB
:1012280036F0000E166E0C0E156E3E50176EB5ECAD
:1012380036F0000E166E0D0E156E3DC017F0B5ECAB
:1012480036F01AEF0AF08E0E0001F86FFF0EF96FF4
:10125800FEC1FAF0FFC1FBF06BEC3AF01AEF0AF0AE
:10126800E4C2FEF1E5C2FFF1000E166E140E156E13
:10127800FF51176EB5EC36F0000E166E150E156E92
:10128800FEC117F0B5EC36F0460E0001F86FFF0E00
:10129800F96F63C1FAF064C1FBF06BEC3AF01AEF36
:1012A8000AF0E4C263F1E5C264F1000E166E160E90
:1012B800156E6451176EB5EC36F0000E166E170EEB
:1012C800156E63C117F0B5EC36F01AEF0AF0E0C2FC
:1012D800D2F1E1C2D3F10101D351000AD8B477EFBA
:1012E80009F01AEF0AF0D251000AD8B411EF07F04A
:1012F800010AD8B414EF07F0030AD8B417EF07F0BF
:10130800010AD8B41AEF07F0070AD8B41DEF07F09E
:10131800010AD8B420EF07F0030AD8B423EF07F086
:10132800010AD8B430EF07F00F0AD8B448EF07F035
:10133800010AD8B455EF07F0030AD8B45BEF07F0F9
:10134800010AD8B468EF07F0070AD8B475EF07F0B8
:10135800010AD8B482EF07F0030AD8B48FEF07F078
:10136800010AD8B492EF07F01F0AD8B4B6EF07F015
:10137800010AD8B4C3EF07F0030AD8B4D9EF07F0CD
:10138800010AD8B4F2EF07F0070AD8B40BEF08F057
:10139800010AD8B417EF08F0030AD8B41BEF08F015
:1013A800010AD8B41FEF08F00F0AD8B435EF08F0D7
:1013B800010AD8B441EF08F0030AD8B458EF08F08E
:1013C800010AD8B465EF08F0070AD8B468EF08F046
:1013D800010AD8B47EEF08F0030AD8B494EF08F0F5
:1013E800010AD8B4AAEF08F03F0AD8B41AEF0AF0F5
:1013F800010AD8B4BAEF08F0030AD8B4C8EF08F065
:10140800010AD8B4FDEF08F0070AD8B427EF09F0AD
:10141800010AD8B434EF09F0030AD8B448EF09F048
:10142800010AD8B455EF09F01AEF0AF0120023C0E8
:10143800D9FF24C0DAFF25C0DEFF26C0DDFF20EE7D
:1014480006F02350D9262450DA22DE2A000EDD22A7
:1014580020EE06F02350D9262450DA22010EDBBEF6
:1014680040EF0AF0010EDB5009E1050EDE5CD8A062
:1014780040EF0AF042EF0AF04CEF0AF020EE06F0D7
:101488002350D9262450DA22050EDE6E000EDD6EBA
:1014980020EE02F02350D9262450DA22DE6ADE6AD2
:1014A800DE6ADD6A20EE14F02350D9262450DA22B1
:1014B800FF0EDE6E7F0EDD6E20EE16F02350D9266D
:1014C8002450DA22000EDE6E000EDD6E000E286E4D
:1014D800010E276E27C060F028C061F0D890000187
:1014E8006037613723C062F024C063F0605162271F
:1014F800615163230A0E6225D96E000E6321DA6EEC
:1015080027C064F028C065F0D8906437653723C0D9
:1015180066F024C067F06451662765516723080E9A
:101528006625E16E000E6721E26EDECFE6FFDDCFB5
:10153800E5FF20EE02F02350D9262450DA22DECF30
:1015480060F0DECF61F0DECF62F0DECF63F027C05F
:1015580064F028C065F0D8906437653723C066F01A
:1015680024C067F064516627655167230A0E662513
:10157800D96E000E6721DA6EDECF68F0DDCF69F034
:1015880068C06AF069C06BF0000E6BBFFF0E6C6F2D
:101598006D6F60516A256E6F61516B216F6F62517B
:1015A8006C21706F63516D21716F20EE02F0235032
:1015B800D9262450DA226EC0DEFF6FC0DEFF70C06D
:1015C800DEFF71C0DEFF20EE14F02350D926245030
:1015D800DA2227C062F028C063F0D89062376337F8
:1015E80023C064F024C065F0625164276351652309
:1015F8000A0E6425E16E000E6521E26EDE50E65C9F
:10160800E650800A686FDE50800A6859D8B00FEF3C
:101618000BF011EF0BF030EF0BF027C060F028C093
:1016280061F0D8906037613723C062F024C063F05E
:1016380060516227615163230A0E6225D96E000E3C
:101648006321DA6E10EE14F02350E1262450E222D2
:10165800DECFE6FFDDCFE5FF27C060F028C061F0F0
:10166800D8906037613723C062F024C063F06051BE
:101678006227615163230A0E6225D96E000E632129
:10168800DA6E10EE16F02350E1262450E222DE50E6
:10169800E65CE650800A686FDE50800A6859D8B068
:1016A80058EF0BF05AEF0BF079EF0BF027C060F012
:1016B80028C061F0D8906037613723C062F024C039
:1016C80063F060516227615163230A0E6225D96E67
:1016D800000E6321DA6E10EE16F02350E126245036
:1016E800E222DECFE6FFDDCFE5FF274A282A285091
:1016F80009E1050E275CD8A084EF0BF086EF0BF00C
:101708006EEF0AF023C0D9FF24C0DAFFDECF60F005
:10171800DDCF61F020EE02F02350D9262450DA22E2
:101728006051DE266151DE22000E61BFFF0EDE220F
:10173800DE2220EE06F02350D9262450DA22010EAC
:10174800DBBEB1EF0BF0010EDB5009E1030EDE5CEE
:10175800D8A0B1EF0BF0B3EF0BF0CCEF0BF020EE0D
:1017680014F02350D9262450DA22DECF60F0DDCFE2
:1017780061F020EE02F02350D9262450DA2260517D
:10178800DE5E6151DE5A000E61BFFF0EDE5ADE5A80
:1017980020EE06F02350D9262450DA22010EDBBEB3
:1017A800E0EF0BF0010EDB5009E1030EDE5CD8A080
:1017B800E0EF0BF0E2EF0BF0FBEF0BF020EE16F092
:1017C8002350D9262450DA22DECF60F0DDCF61F035
:1017D80020EE02F02350D9262450DA226051DE5E32
:1017E8006151DE5A000E61BFFF0EDE5ADE5A23C079
:1017F800D9FF24C0DAFF10EE12F02350E12624505E
:10180800E222DECFE6FFDDCFE5FF20EE06F0235033
:10181800D9262450DA22010EDBBE1DEF0CF0010E92
:10182800DB5009E1050EDE5CD8A01DEF0CF01FEFC0
:101838000CF043EF0CF020EE02F02350D926245090
:10184800DA22DECF15F0DECF16F0DECF17F0DECFCE
:1018580018F0030E196E000E1A6E000E1B6E000EA5
:101868001C6E94EC27F020EE08F02350D926245063
:10187800DA2215C0DEFF16C0DDFF9EEF0CF020EE69
:1018880006F02350D9262450DA22010EDBBE57EF8A
:101898000CF0010EDB5009E1030EDE5CD8A057EF17
:1018A8000CF059EF0CF090EF0CF020EE02F0235002
:1018B800D9262450DA22DECF15F0DECF16F0DECF9F
:1018C80017F0DECF18F0FE0E606FFF0E616F20EE8E
:1018D80006F02350D9262450DA22DECF62F0DDCF7D
:1018E80063F0605162276151632362C019F063C0DD
:1018F8001AF0000E1ABEFF0E1B6E1C6E94EC27F039
:1019080020EE08F02350D9262450DA2215C0DEFF35
:1019180016C0DDFF9EEF0CF023C0D9FF24C0DAFF0C
:1019280010EE08F02350E1262450E222DECFE6FF35
:10193800DDCFE5FF12002650800B2F6E265026249F
:10194800316E25AEAAEF0CF0ACEF0CF0ADEF0CF059
:1019580031803150D8B4B3EF0CF0B5EF0CF0CAEFCA
:101968000CF03128D8A4BBEF0CF0BDEF0CF0C5EF9C
:101978000CF0000E236E000E246E000E256E000E75
:10198800266E258E000E266ED2EF0CF0000E236E0A
:10199800000E246E000E256E000E266E2A50800B57
:1019A800306E2F503018D8B4DCEF0CF0DEEF0CF0AE
:1019B800DFEF0CF02F8C2A502A24306E29AEE7EF87
:1019C8000CF0E9EF0CF0EAEF0CF030803050D8B4AE
:1019D800F0EF0CF0F2EF0CF007EF0DF03028D8A480
:1019E800F8EF0CF0FAEF0CF002EF0DF0000E276E96
:1019F800000E286E000E296E000E2A6E298E000E2B
:101A08002A6E0FEF0DF0000E276E000E286E000EE6
:101A1800296E000E2A6E3150305CD8B016EF0DF0EA
:101A280018EF0DF03FEF0DF02FAC1DEF0DF01FEF8D
:101A38000DF021EF0DF0800E2F1A31C032F030C0BA
:101A480031F032C030F023C032F027C023F032C06A
:101A580027F024C032F028C024F032C028F025C076
:101A680032F029C025F032C029F026C032F02AC051
:101A780026F032C02AF0000E326E315030C02BF002
:101A88002C6A2B5E000E2C5A2CBE54EF0DF02C50F5
:101A980009E11A0E2B5CD8A054EF0DF056EF0DF0AB
:101AA8008DEF0DF02350241025102610D8A45FEFD9
:101AB8000DF062EF0DF0010E63EF0DF0000E326EC7
:101AC800000E236E000E246E000E256E000E266E8C
:101AD80030C031F096EF0DF032A075EF0DF077EFD2
:101AE8000DF07DEF0DF0D89032300109326E7FEFA6
:101AF8000DF0D890323223A084EF0DF086EF0DF070
:101B080087EF0DF0328E26342632253224322332E6
:101B1800312A3050315CD8A094EF0DF096EF0DF0DB
:101B280070EF0DF02FBC9BEF0DF09DEF0DF0DDEF8A
:101B38000DF03150D8A4A3EF0DF0A5EF0DF0AFEFE5
:101B48000DF0000E236E000E246E000E256E000EA2
:101B5800266EFEEF0EF02750232628502422295007
:101B680025222A50262226A0BCEF0DF0BEEF0DF04C
:101B78006AEF0EF032A0C3EF0DF0C5EF0DF0CBEF1A
:101B88000DF0D89032300109326ECDEF0DF0D890BB
:101B9800323223A0D2EF0DF0D4EF0DF0D5EF0DF0D7
:101BA800328E26342632253224322332312A6AEF05
:101BB8000EF02750235C28502458295025582650C9
:101BC800800A2B6E2A50800A2B58D8B0EEEF0DF001
:101BD800F0EF0DF01BEF0EF02350275C2B6E245016
:101BE80028582C6E255029582D6E26502A582E6EAE
:101BF800FF0E2B24236EFF0E2C20246EFF0E2D20AB
:101C0800256EFF0E2E20266E800E2F1A326C325053
:101C1800D8A411EF0EF013EF0EF023EF0EF0010E23
:101C28002326000E24222522262223EF0EF02750F9
:101C3800235E2850245A2950255A2A50265A2350C0
:101C4800241025102610D8A42CEF0EF02EEF0EF03D
:101C580063EF0EF03250D8A434EF0EF036EF0EF0EA
:101C680063EF0EF0000E236E000E246E000E256E3C
:101C7800000E266EFEEF0EF0D89023362436253659
:101C8800263632AE4AEF0EF04CEF0EF04DEF0EF066
:101C9800238032A052EF0EF054EF0EF058EF0EF002
:101CA800D88032365AEF0EF0D89032363150D8B448
:101CB80060EF0EF062EF0EF063EF0EF0310625AE26
:101CC80068EF0EF06AEF0EF040EF0EF0000E306E87
:101CD80032AE71EF0EF073EF0EF08BEF0EF032C0F4
:101CE8002BF07F0E2B16D8B47CEF0EF07EEF0EF0A3
:101CF80082EF0EF0010E306E8BEF0EF023A087EF0F
:101D08000EF089EF0EF08BEF0EF07EEF0EF03050F4
:101D1800D8B491EF0EF093EF0EF0BEEF0EF0010E77
:101D28002326000E24222522262226A09EEF0EF02E
:101D3800A0EF0EF0BEEF0EF023C02BF024C02CF065
:101D480025C02DF026C02EF02E342E322D322C3206
:101D58002B322BC023F02CC024F02DC025F02EC030
:101D680026F03128D8B4BBEF0EF0BDEF0EF0BEEF71
:101D78000EF0312A3128D8B4C4EF0EF0C6EF0EF0B9
:101D8800CEEF0EF03150D8A4CCEF0EF0CEEF0EF01F
:101D9800E0EF0EF0000E236E000E246E000E256E8E
:101DA800000E266E3150D8A4DCEF0EF0DEEF0EF0F8
:101DB800E0EF0EF0000E2F6E31A0E5EF0EF0E7EF2A
:101DC8000EF0EAEF0EF0258EEBEF0EF0259ED89080
:101DD8003130266E2FAEF3EF0EF0F5EF0EF0F6EF82
:101DE8000EF0268E23C023F024C024F025C025F051
:101DF80026C026F01200E8C0D9FFE9C0DAFFDECF1E
:101E0800F6FFDDCFF7FFF86A0800F550250AD8A4D9
:101E180010EF0FF012EF0FF00FEF11F0E8C0D9FF3D
:101E2800E9C0DAFFDE2A000EDD22000E0101626F32
:101E3800000E616F61C139F062C13AF037683868E5
:101E4800E8C0D9FFE9C0DAFFDECFF6FFDDCFF7FF44
:101E5800F86A0800F5501B6E1C6A05EC34F01B503C
:101E68000101C66FC651D8B43CEF0FF03EEF0FF03A
:101E78007CEF0FF0E8C0D9FFE9C0DAFFDECFECF065
:101E8800DDCFEDF0010E0001EC27000EED23ECC0D4
:101E9800F6FFEDC0F7FFF86A0800F5501B6E1C6AE4
:101EA80005EC34F01B500101C76FC751D8B45FEF80
:101EB8000FF061EF0FF07CEF0FF0E8C0D9FFE9C039
:101EC800DAFFDECFECF0DDCFEDF0020E0001EC27FB
:101ED800000EED23ECC0F6FFEDC0F7FFF86A08002E
:101EE800F5501B6E1C6A05EC34F01B500101C86FDD
:101EF800E8C0D9FFE9C0DAFFDECFF6FFDDCFF7FF94
:101F0800F86A0800F550640AD8B48DEF0FF08FEF27
:101F18000FF0A2EF0FF0E8C0D9FFE9C0DAFFDECF7B
:101F2800F6FFDDCFF7FFF86A0800F550690AD8A474
:101F3800A0EF0FF0A2EF0FF0E2EF0FF0E8C0D9FF2B
:101F4800E9C0DAFFDE2A000EDD22EAC0D9FFEBC0C5
:101F5800DAFFDFCFECF0020EDE26DFCFEDF0000E69
:101F6800DD22ECC0D9FFEDC0DAFFDECFB8F1DDCF5E
:101F7800B9F1000EB9BFFF0EBA6FBB6FBC6FBD6F72
:101F8800BE6FBF6FE6C060F0E7C061F0B8C162F035
:101F9800B9C163F0BAC164F0BBC165F0BCC166F0F9
:101FA800BDC167F0BEC168F0BFC169F0C9EC16F0E9
:101FB80060C0E6F061C0E7F02BEF11F0660EC619BD
:101FC800D8A4E9EF0FF0EBEF0FF02CEF10F0E8C01A
:101FD800D9FFE9C0DAFFDECFF6FFDDCFF7FFF86AF9
:101FE8000800F5CFC9F1E8C0D9FFE9C0DAFFDE2A59
:101FF800000EDD22EAC0D9FFEBC0DAFFDFCFECF03C
:10200800040EDE26DFCFEDF0000EDD22ECC0D9FF96
:10201800EDC0DAFFDECFC2F1DECFC3F1DECFC4F10F
:10202800DECFC5F1E6C0A2F0E7C0A3F0C2C1A4F0BC
:10203800C3C1A5F0C4C1A6F0C5C1A7F0C9C1A8F025
:1020480099EC00F0A2C0E6F0A3C0E7F02BEF11F086
:10205800C60E156E010E166EFC0E176EFF0E186E6C
:10206800000E1A6E020E196E75EC2CF01550161033
:10207800D8A441EF10F043EF10F0D6EF10F0E8C00D
:10208800D9FFE9C0DAFFDECFECF0DDCFEDF0010ECD
:102098000001EC27000EED23ECC0F6FFEDC0F7FFC2
:1020A800F86A0800F5CFC9F1BF0EEC6FFF0EED6FAF
:1020B800E8C0D9FFE9C0DAFFDECFF6FFDDCFF7FFD2
:1020C800F86A0800F550EE6FEF6BEC51EE27ED5112
:1020D800EF23EF510AE11A0EEE5DD8A076EF10F06B
:1020E80079EF10F0010E7AEF10F0000E0101C06FC9
:1020F800C16BC051C111D8B484EF10F086EF10F055
:10210800A0EF10F0EAC0D9FFEBC0DAFFDFCFECF0A8
:10211800040EDE26DFCFEDF0000EDD22ECC0D9FF85
:10212800EDC0DAFFDECFC2F1DECFC3F1DECFC4F1FE
:10213800DECFC5F1B8EF10F0EAC0D9FFEBC0DAFF87
:10214800DFCFECF0040EDE26DFCFEDF0000EDD224F
:10215800ECC0D9FFEDC0DAFFDECFC2F1DECFC3F1AC
:10216800DECFC4F1DECFC5F1020EE8C0D9FFE9C069
:10217800DAFFDE26000EDD22E6C0A2F0E7C0A3F0FB
:10218800C2C1A4F0C3C1A5F0C4C1A6F0C5C1A7F0DF
:10219800C9C1A8F099EC00F0A2C0E6F0A3C0E7F02E
:1021A8002BEF11F0E8C0D9FFE9C0DAFFDECFF6FF68
:1021B800DDCFF7FFF86A0800F550250AD8A4E7EF45
:1021C80010F0E9EF10F001EF11F0E8C0D9FFE9C015
:1021D800DAFFDE2A000EDD22000E186E250E176EBD
:1021E800E6C019F0E7C01AF07AEC30F0000E0001F2
:1021F800E76F010EE66F2BEF11F0E8C0D9FFE9C0D9
:10220800DAFFDE2A000EDD22000E0001E76F000E65
:10221800E66F2BEF11F0E8C0D9FFE9C0DAFFDECF97
:10222800F6FFDDCFF7FFF86A0800F550176E186A59
:10223800E6C019F0E7C01AF07AEC30F0E8C0D9FF30
:10224800E9C0DAFFDE2A000EDD22FAEF10F01200F4
:1022580000018051800B896F805180258F6F7FAF7F
:1022680038EF11F03AEF11F03BEF11F08F818F51F9
:10227800D8B441EF11F043EF11F056EF11F08F2968
:10228800D8A449EF11F04BEF11F053EF11F0000E05
:102298007D6F000E7E6F000E7F6F000E806F7F8F48
:1022A8005EEF11F0000E7D6F000E7E6F000E7F6FE7
:1022B800000E806F8451800B891B845184258A6F9E
:1022C80083AF69EF11F06BEF11F06CEF11F08A81B9
:1022D8008A51D8B472EF11F074EF11F087EF11F052
:1022E8008A29D8A47AEF11F07CEF11F084EF11F06D
:1022F800000E816F000E826F000E836F000E846FD8
:10230800838F8FEF11F0000E816F000E826F000E29
:10231800836F000E846F8A51D8B495EF11F097EF50
:1023280011F09FEF11F08F51D8A49DEF11F09FEF9E
:1023380011F0A9EF11F0000E7D6F000E7E6F000EF8
:102348007F6F000E806F41EF13F083517D03F3CF51
:1023580094F0F4CF95F094518B6F8C6B8D6B8E6BE2
:102368009551906F916B926B936B82517E03F3CF73
:1023780094F0F4CF95F094518B27000E8C238D2385
:102388008E2395519027000E9123922393238151F8
:102398007F03F3CF94F0F4CF95F094518B27000E80
:1023A8008C238D238E2395519027000E9123922301
:1023B80093238DC08EF08CC08DF08BC08CF08B6B0E
:1023C80081517E03F3CF94F0F4CF95F094518B278D
:1023D80095518C23000E8D23000E8E2382517D0390
:1023E800F3CF94F0F4CF95F094518B2795518C232B
:1023F800000E8D23000E8E238DC08EF08CC08DF0C4
:102408008BC08CF08B6B81517D03F3CF94F0F4CFAC
:1024180095F094518B2795518C23000E8D23000E37
:102428008E2383517E03F3CF94F0F4CF95F094512B
:10243800902795519123000E9223000E93238251E9
:102448007F03F3CF94F0F4CF95F0945190279551F2
:102458009123000E9223000E932383517F03F3CF21
:1024680094F0F4CF95F09451856F9551866F876BF2
:10247800886B87C088F086C087F085C086F0856B3A
:102488008551902786519123875192238851932310
:102498008BC085F08CC086F08DC087F08EC088F028
:1024A800190E5CEF12F0D890883387338633853362
:1024B800E82E57EF12F085519027865191238751C6
:1024C8009223885193238DC08EF08CC08DF08BC0E1
:1024D8008CF08B6B8A518FC085F0866B8527000E38
:1024E8008623820E8525946FFF0E8621956F92EFC5
:1024F80012F0D89090379137923793378EAF87EF95
:1025080012F089EF12F08AEF12F09081D8908B3791
:102518008C378D378E379407D8A0950792AF97EFF1
:1025280012F099EF12F07DEF12F0000E8A6F8EAF65
:10253800A0EF12F0A2EF12F0C6EF12F0FF0E8B150B
:10254800856FFF0E8C15866FFF0E8D15876F7F0EBA
:102558008E15886F8551861187118811D8B4B7EF09
:1025680012F0B9EF12F0BDEF12F0010E8A6FC6EF4C
:1025780012F090A1C2EF12F0C4EF12F0C6EF12F001
:10258800B9EF12F08A51D8B4CCEF12F0CEEF12F0B6
:10259800F2EF12F0010E9027000E9123922393235D
:1025A80093A1D9EF12F0DBEF12F0F2EF12F090C026
:1025B80085F091C086F092C087F093C088F0883586
:1025C800883387338633853385C090F086C091F091
:1025D80087C092F088C093F0944B952B95BFFDEF80
:1025E80012F0955108E19429D8A0FDEF12F0FFEF01
:1025F80012F009EF13F0000E906F000E916F800E2D
:10260800926F7F0E936F37EF13F095BF16EF13F0AD
:10261800955106E19405D8B014EF13F016EF13F0B6
:1026280022EF13F0000E906F000E916F000E926F64
:10263800000E936F000E896F37EF13F094C08FF080
:10264800FF0E9017FF0E91177F0E9217000E93172B
:102658008FA131EF13F033EF13F034EF13F0928FB3
:10266800D8908F31936F8951931390C07DF091C0AA
:102678007EF092C07FF093C080F012000001635199
:10268800800B6C6F63516325736F62AF4EEF13F06D
:1026980050EF13F051EF13F073817351D8B457EF23
:1026A80013F059EF13F06EEF13F07329D8A45FEF0E
:1026B80013F061EF13F069EF13F0000E606F000E76
:1026C800616F000E626F000E636F628F000E636FA2
:1026D80076EF13F0000E606F000E616F000E626FF0
:1026E800000E636F6751800B6C1B67516725746F11
:1026F80066AF81EF13F083EF13F084EF13F074816A
:102708007451D8B48AEF13F08CEF13F0A1EF13F0E3
:102718007429D8A492EF13F094EF13F09CEF13F000
:10272800000E646F000E656F000E666F000E676F17
:10273800668F000E676FA9EF13F0000E646F000E2E
:10274800656F000E666F000E676F64516511661144
:102758006711D8A4B2EF13F0B4EF13F0CCEF13F075
:10276800000E606F000E616F000E626F000E636FE7
:10277800800E62137F0E63136C51631360C060F0A8
:1027880061C061F062C062F063C063F00FEF15F0E2
:102798007351D8A4D2EF13F0D4EF13F0DEEF13F097
:1027A800000E606F000E616F000E626F000E636FA7
:1027B8000FEF15F0745173C033F0346A335E000EB6
:1027C800345A7F0E33246D6F000E34206E6F60C054
:1027D80068F061C069F062C06AF063C06BF0000E17
:1027E800606F000E616F000E626F000E636F000E67
:1027F8006F6F000E706F000E716F000E726F000E1B
:10280800746F3FEF14F07451D8B40DEF14F00FEF5C
:1028180014F026EF14F0D890683769376A376B37A9
:10282800D890603761376237633772AF1EEF14F0A4
:1028380020EF14F021EF14F06081D8906F377037D3
:10284800713772376451685D6551695966516A59C3
:1028580067516B59D8A033EF14F035EF14F03EEF01
:1028680014F0728D6451685F6551695B66516A5BEB
:1028780067516B5B742B190E746545EF14F047EFC5
:1028880014F007EF14F0685169116A116B11D8B48C
:1028980050EF14F052EF14F06AEF14F06F816AEF02
:1028A80014F0D890603761376237633772AF5FEFE3
:1028B80014F061EF14F062EF14F06081D8906F3774
:1028C8007037713772376D07D8A06E0762AF6FEF38
:1028D80014F071EF14F055EF14F0000E746F72AF2E
:1028E80078EF14F07AEF14F09EEF14F0FF0E6F15E6
:1028F800336EFF0E7015346EFF0E7115356E7F0E38
:102908007215366E3350341035103610D8B48FEF38
:1029180014F091EF14F095EF14F0010E746F9EEF20
:1029280014F060A19AEF14F09CEF14F09EEF14F0ED
:1029380091EF14F07451D8B4A4EF14F0A6EF14F08A
:10294800CAEF14F0010E6027000E6123622363238F
:1029580063A1B1EF14F0B3EF14F0CAEF14F060C044
:1029680033F061C034F062C035F063C036F03634FD
:10297800363235323432333233C060F034C061F02D
:1029880035C062F036C063F06D4B6E2B6EBFD5EF6D
:1029980014F06E5108E16D29D8A0D5EF14F0D7EFE7
:1029A80014F0E2EF14F0000E6E6F6D69000E606FA8
:1029B800000E616F000E626F000E636F6EBFEFEF67
:1029C80014F06E5106E16D05D8B0EDEF14F0EFEF9D
:1029D80014F0FDEF14F0000E6E6F000E6D6F000E18
:1029E800606F000E616F000E626F000E636F000E65
:1029F8006C6F6DC073F073A104EF15F006EF15F05E
:102A080009EF15F0628F0AEF15F0629FD8907331C5
:102A1800636FC0EF13F01200000E166E010E156EF4
:102A2800A5EC3BF03D0AD8A41CEF15F01EEF15F0FD
:102A38001FEF16F0000E166E020E156EA5EC3BF099
:102A48000101CA6FCA51CC6FCB6B000E166E030E14
:102A5800156EA5EC3BF00101CD6FCD51CB11716F17
:102A6800CC51726F000E166E040E156EA5EC3BF07D
:102A78000101CA6FCA51CC6FCB6B000E166E050EE2
:102A8800156EA5EC3BF00101CD6FCD51CB11756FE3
:102A9800CC51766F000E166E060E156EA5EC3BF047
:102AA8000101CA6FCA51CC6FCB6B000E166E070EB0
:102AB800156EA5EC3BF00101CD6FCD51CB11736FB5
:102AC800CC51746F000E166E080E156EA5EC3BF017
:102AD8000101CA6FCA51CC6FCB6B000E166E090E7E
:102AE800156EA5EC3BF00101CD6FCD51CB11836F75
:102AF800CC51846F000E166E0A0E156EA5EC3BF0D5
:102B08000101CA6FCA51CC6FCB6B000E166E0B0E4B
:102B1800156EA5EC3BF00101CD6FCD51CB113F6E89
:102B2800CC51406E000E166E0C0E156EA5EC3BF0E7
:102B38000101CA6FCA51CC6FCB6B000E166E0D0E19
:102B4800156EA5EC3BF00101CD6FCD51CB113D6E5B
:102B5800CC513E6E000E166E0E0E156EA5EC3BF0B7
:102B680001018D6F000E166E0F0E156EA5EC3BF071
:102B78000101CA6FCA51CC6FCB6B000E166E100ED6
:102B8800156EA5EC3BF00101CD6FCD51CB11816FD6
:102B9800CC51826F000E166E110E156EA5EC3BF02F
:102BA800436E000E166E120E156EA5EC3BF0010179
:102BB800CA6FCA51CC6FCB6B000E166E130E156E12
:102BC800A5EC3BF00101CD6FCD51CB113B6ECC5143
:102BD8003C6E000E166E140E156EA5EC3BF001014E
:102BE800CA6FCA51CC6FCB6B000E166E150E156EE0
:102BF800A5EC3BF00101CD6FCD51CB11FE6FCC514F
:102C0800FF6F000E166E160E156EA5EC3BF0010157
:102C1800CA6FCA51CC6FCB6B000E166E170E156EAD
:102C2800A5EC3BF00101CD6FCD51CB11636FCC51B9
:102C3800646F52EF16F0000E0101726F320E716F61
:102C4800FF0E766F010E756FFF0E746F510E736F66
:102C5800FC0E846F180E836F000E406E190E3F6EC7
:102C6800360E3E6E590E3D6E010E8D6F0B0E826F45
:102C7800B80E816F000E436E000E8A6F000E3C6E18
:102C8800000E3B6E000EFF6F050EFE6F030E646FA5
:102C9800840E636F000EF56F030EF46F760E00015D
:102CA800F86FFF0EF96F71C1FAF072C1FBF06BECAF
:102CB8003AF0860E0001F86FFF0EF96F75C1FAF051
:102CC80076C1FBF06BEC3AF07E0E0001F86FFF0E58
:102CD800F96F73C1FAF074C1FBF06BEC3AF04E0E69
:102CE8000001F86FFF0EF96F83C1FAF084C1FBF0A1
:102CF8006BEC3AF0190E0001F86FFF0EF96F8DC1F9
:102D0800FAF0FB6B6BEC3AF08E0E0001F86FFF0ED9
:102D1800F96FFEC1FAF0FFC1FBF06BEC3AF063C14A
:102D280015F064C116F0176A186A000E26EC1EF03A
:102D380015C07DF016C07EF017C07FF018C080F077
:102D48000A0E0001816FD70E826F230E836F3C0E2F
:102D5800846F2CEC11F07DC0CEF17EC0CFF17FC026
:102D6800D0F180C0D1F19E0E0001F86FFF0EF96F0F
:102D7800CEC1FAF0CFC1FBF0D0C1FCF0D1C1FDF05B
:102D88006BEC3AF097EC3CF0120062C07AF063C04A
:102D98007BF064C07CF065C07DF066C07EF067C0E3
:102DA8007FF068C080F069C081F0000181BFDFEF6B
:102DB80016F0E2EF16F0010EE3EF16F0000E786F52
:102DC800796B78517911D8B4ECEF16F0EEEF16F074
:102DD800FEEF16F0811F801F7F1F7E1F7D1F7C1F47
:102DE8007B1F7A6D000E7B237C237D237E237F232C
:102DF8008023812338BE03EF17F005EF17F006EFA5
:102E080017F0399238BE13EF17F0385006E137043F
:102E1800D8B011EF17F013EF17F019EF17F0000EF5
:102E2800756F010E746F1DEF17F037C074F038C05E
:102E380075F061C176F062C177F078517911D8A444
:102E480028EF17F02AEF17F031EF17F039A42FEF1A
:102E580017F031EF17F034EF17F07607D8A077079F
:102E6800000E836F4F0E826F000E02015F6FBAEF84
:102E780017F08207D8A08307100E8225D96E020E9C
:102E88008321DA6E7AC015F07BC016F07CC017F08B
:102E98007DC018F07EC019F07FC01AF080C01BF00A
:102EA80081C01CF00A0E1D6E000E1E6E000E1F6EF5
:102EB800000E206E000E216E000E226E000E236E94
:102EC800000E246E36EC25F015C06AF016C06BF0C3
:102ED80017C06CF018C06DF019C06EF01AC06FF012
:102EE8001BC070F01CC071F06AC027F06CC028F0DD
:102EF8005EEC37F02750300FDF6E00017407D8A062
:102F080075077607D8A077077AC015F07BC016F04A
:102F18007CC017F07DC018F07EC019F07FC01AF091
:102F280080C01BF081C01CF00A0E1D6E000E1E6EC4
:102F3800000E1F6E000E206E000E216E000E226E17
:102F4800000E236E000E246E2EEC22F015C07AF0CF
:102F580016C07BF017C07CF018C07DF019C07EF059
:102F68001AC07FF01BC080F01CC081F0000183BF35
:102F7800C6EF17F0835108E18205D8A0C6EF17F015
:102F8800C8EF17F0F8EF17F07A517B117C117D111B
:102F98007E117F1180118111D8A4D5EF17F0D7EFDA
:102FA80017F03DEF17F075BFE4EF17F0755106E124
:102FB8007405D8B0E2EF17F0E4EF17F03DEF17F023
:102FC80077BFEFEF17F0775108E17605D8A0EFEF5C
:102FD80017F0F1EF17F0F8EF17F039B2F6EF17F036
:102FE800F8EF17F03DEF17F078517911D8A4FFEFFB
:102FF80017F001EF18F008EF18F039A406EF18F0F1
:1030080008EF18F026EF18F08207D8A08307785148
:103018007911D8A412EF18F014EF18F01AEF18F07D
:10302800000E736F2B0E726F1EEF18F0000E736F89
:103038002D0E726F100E8225D96E020E8321DA6E64
:1030480072C0DFFF60C027F061C028F0100E822533
:10305800296E020E83212A6E76C02BF077C02CF0E1
:1030680017EC2EF027C060F028C061F0120052C1A2
:1030780085F053C186F054C187F055C188F075C0FA
:1030880085F076C086F077C087F078C088F0810E2A
:103098000001796FFF0E7A6F85C07BF086C07CF0E7
:1030A80087C07DF088C07EF0180E60EF18F0D890C9
:1030B8007E337D337C337B33E82E5BEF18F07B5116
:1030C8007925836F000E7A21846F84BF75EF18F01D
:1030D800845109E1170E835DD8A075EF18F077EFDA
:1030E80018F081EF18F075C075F076C076F077C0EB
:1030F80077F078C078F045EF19F084BF86EF18F0C4
:1031080088EF18F0F9EF18F083C079F0FF0E7A6FA6
:10311800FF0E7B6F7F0E7C6F000E7D6F796797EFD8
:1031280018F09FEF18F07D357D337C337B337A338D
:10313800792F92EF18F07AC07FF07BC080F07CC0C6
:1031480081F07DC082F000017F518515796F805133
:1031580086157A6F815187157B6F825188157C6F30
:1031680079517A117B117C11D8A4BDEF18F0BFEF0B
:1031780018F0C1EF18F077EF18F085C079F086C025
:103188007AF087C07BF088C07CF0200ED1EF18F071
:10319800D8907C337B337A337933E82ECCEF18F030
:1031A80079517A117B117C11D8B4DDEF18F0DFEF7B
:1031B80018F0E7EF18F07F51852780518623815159
:1031C8008723825188237F1D796F801D7A6F811D27
:1031D8007B6F821D7C6F795185177A5186177B51D9
:1031E80087177C5188173DEF19F085C079F086C0A4
:1031F8007AF087C07BF088C07CF0200E09EF19F0C8
:10320800D8907C337B337A337933E82E04EF19F086
:1032180079517A117B117C11D8A415EF19F017EFA9
:1032280019F021EF19F0000E856F000E866F000E61
:10323800876F000E886F3DEF19F0D8908535796F4C
:1032480086357A6F87357B6F88357C6F79517A112F
:103258007B117C11D8B433EF19F035EF19F03DEF3D
:1032680019F0000E856F000E866F800E876FBF0EF7
:10327800886F85C075F086C076F087C077F088C003
:1032880078F0120041B04BEF19F04DEF19F054EF00
:1032980019F042A052EF19F054EF19F05FEF19F04E
:1032A800AD0E0001F86FFF0EF96F44C1FAF045C189
:1032B800FBF06BEC3AF041B264EF19F066EF19F0ED
:1032C8006DEF19F042A06BEF19F06DEF19F078EF80
:1032D80019F0DE0E0001F86FFF0EF96F46C1FAF023
:1032E80047C1FBF06BEC3AF041B47DEF19F07FEF8A
:1032F80019F086EF19F042A084EF19F086EF19F063
:1033080091EF19F0E50E0001F86FFF0EF96F48C153
:10331800FAF049C1FBF06BEC3AF041B696EF19F0C0
:1033280098EF19F09FEF19F042A09DEF19F09FEF69
:1033380019F0AAEF19F02C0E0001F86FFF0EF96FC3
:10334800D0C2FAF0D1C2FBF06BEC3AF041B8AFEF63
:1033580019F0B1EF19F0B8EF19F042A0B6EF19F073
:10336800B8EF19F0C3EF19F0C90E0001F86FFF0E9E
:10337800F96F75C1FAF076C1FBF06BEC3AF041B821
:10338800C8EF19F0CAEF19F0D1EF19F042A0CFEF4A
:1033980019F0D1EF19F0DCEF19F0D70E0001F86F32
:1033A800FF0EF96F73C1FAF074C1FBF06BEC3AF0E1
:1033B80041BAE1EF19F0E3EF19F0EAEF19F042A092
:1033C800E8EF19F0EAEF19F0F5EF19F0BB0E00017C
:1033D800F86FFF0EF96F7FC1FAF080C1FBF06BEC5C
:1033E8003AF041BAFAEF19F0FCEF19F003EF1AF0CE
:1033F80042A001EF1AF003EF1AF00DEF1AF0B40E25
:103408000001F86FFF0EF96F8CC1FAF0FB6B6BECE3
:103418003AF041BC12EF1AF014EF1AF01BEF1AF051
:1034280042A019EF1AF01BEF1AF026EF1AF0D00E8F
:103438000001F86FFF0EF96F77C1FAF078C1FBF061
:103448006BEC3AF041BE2BEF1AF02DEF1AF034EF87
:103458001AF042A032EF1AF034EF1AF03FEF1AF0E8
:10346800C20E0001F86FFF0EF96F7BC1FAF07CC144
:10347800FBF06BEC3AF041504210D8B446EF1AF02A
:1034880048EF1AF04FEF1AF0FF0E0001F86FFE0E2A
:10349800F96F6BEC3AF012004350D8B456EF1AF0BB
:1034A80058EF1AF0D8EF1AF001018D51D8B45FEF38
:1034B8001AF061EF1AF0D8EF1AF00A0E0001816FC6
:1034C800D70E826F230E836F3C0E846F63C115F095
:1034D80064C116F0176A186A000E26EC1EF015C0B3
:1034E8007DF016C07EF017C07FF018C080F02CEC7D
:1034F80011F07DC0A2F07EC0A3F07FC0A4F080C010
:10350800A5F0A2C081F0A3C082F0A4C083F0A5C03A
:1035180084F03F5001017B5D0001A06F4050010124
:103528007C590001A16FA0C015F0A1C016F0000ED3
:1035380016BEFF0E176E186E010E26EC1EF015C093
:103548007DF016C07EF017C07FF018C080F02CEC1C
:1035580011F07DC027F07EC028F07FC029F080C020
:103568002AF03BC015F03CC016F0176A186A000E26
:1035780026EC1EF015C023F016C024F017C025F065
:1035880018C026F09FEC0CF023C096F024C097F0EA
:1035980025C098F026C099F09FEC28F096C046F117
:1035A80097C047F14DEF1BF00A0E0001816FD70E4F
:1035B800826F230E836F3C0E846F63C115F064C164
:1035C80016F0176A186A000E26EC1EF015C07DF07A
:1035D80016C07EF017C07FF018C080F02CEC11F0F8
:1035E8007DC0A2F07EC0A3F07FC0A4F080C0A5F08B
:1035F800A2C081F0A3C082F0A4C083F0A5C084F06B
:103608003F5001017B5D0001A06F405001017C59D2
:103618000001A16FA0C015F0A1C016F0000E16BEE3
:10362800FF0E176E186E010E26EC1EF015C07DF009
:1036380016C07EF017C07FF018C080F02CEC11F097
:103648007DC027F07EC028F07FC029F080C02AF016
:103658003DC015F03EC016F0176A186A000E26EC39
:103668001EF015C023F016C024F017C025F018C0AE
:1036780026F09FEC0CF023C096F024C097F025C0EC
:1036880098F026C099F09FEC28F096C046F197C0B4
:1036980047F112001C6E1C50020D870EF324D96EE0
:1036A800010EF420DA6E8F0E1C24E16EE26A010E20
:1036B800E222E7CF17F0010EE7261750020DF3CFED
:1036C80018F0F4CF19F01C50060D4C0E1A6E010EAE
:1036D8001B6EF3501A26F4501B2218501A24E16E60
:1036E80019501B20E26EDECFE6FFDDCFE5FF8F0E1F
:1036F8001C24D96EDA6A010EDA22020EDF6487EF23
:103708001BF089EF1BF091EF1BF08F0E1C24D96E74
:10371800DA6A010EDA22000EDF6E1C50060D4E0E1C
:10372800F324D96E010EF420DA6E1C50060D4C0EEF
:10373800F324E16E010EF420E26EDE50E65CDE500A
:10374800E658D8A0AAEF1BF0ACEF1BF00CEF1CF06A
:103758001C50060D500EF324D96E010EF420DA6EBB
:103768001C50060D4E0EF324E16E010EF420E26E9D
:10377800DE50E65CDE50E658D8A0C5EF1BF0C7EF78
:103788001BF0D5EF1BF01C50060D4E0EF324D96E1E
:10379800010EF420DA6EDECF15F0DDCF16F046EF1D
:1037A8001CF01C50060D500EF324D96E010EF420A7
:1037B800DA6E1C50060D4C0EF324E16E010EF42057
:1037C800E26EDE50E65CDE50E658D8A0EEEF1BF065
:1037D800F0EF1BF0FEEF1BF01C50060D500EF3240B
:1037E800D96E010EF420DA6EDECF15F0DDCF16F0BB
:1037F80046EF1CF01C50060D4C0EF324D96E010E3A
:10380800F420DA6EDECF15F0DDCF16F046EF1CF0AF
:103818001C50060D500EF324D96E010EF420DA6EFA
:103828001C50060D4C0EF324E16E010EF420E26EDE
:10383800DE50E65CDE50E658D8A025EF1CF027EFF6
:103848001CF029EF1CF0FEEF1BF01C50060D500E6B
:10385800F324D96E010EF420DA6E1C50060D4E0EBC
:10386800F324E16E010EF420E26EDE50E65CDE50D9
:10387800E658D8A042EF1CF044EF1CF0C7EF1BF04D
:10388800F0EF1BF01200000E0001646F000E636F72
:10389800000E656F4950020DF3CF2BF0F4CF2CF0DA
:1038A8006551060D4C0E2D6E010E2E6EF3502D2611
:1038B800F4502E222B502D24D96E2C502E20DA6E47
:1038C800DECF2FF0DDCF30F06551020D870EF324E7
:1038D800D96E010EF420DA6EDECF31F0DDCF32F092
:1038E8002F50315C276E30503258286E5EEC37F01E
:1038F80027C061F028C062F000016151635D625128
:103908006459D8B08AEF1CF08CEF1CF090EF1CF0D3
:1039180061C063F062C064F0652B6551D8B497EF5D
:103928001CF099EF1CF04EEF1CF0645109E1650E94
:10393800635DD8A0A2EF1CF0A4EF1CF018EF1DF0F7
:103948005A0E4924D96EDA6A010EDA22DF2A050EE8
:10395800DF64B1EF1CF0B3EF1CF038EF1DF0F10E8F
:103968004924D96EDA6A010EDA22DF50666F020E38
:103978006665C1EF1CF0C3EF1CF0C8EF1CF0665180
:10398800FE0F666FCAEF1CF01E0E666F010E606FA9
:10399800000E676F49506719D8A4D5EF1CF0D7EF10
:1039A8001CF0D9EF1CF0EAEF1CF0F10E6725D96E78
:1039B800DA6A010EDA226651DE18D8A4E6EF1CF0A6
:1039C800E8EF1CF0EAEF1CF0000E606F672B020EA8
:1039D8006765F1EF1CF0F3EF1CF0CEEF1CF06051BF
:1039E800D8B4F9EF1CF0FBEF1CF0BBEF1CF0F10EA4
:1039F8004924D96EDA6A010EDA2266C0DFFF000EAA
:103A0800676F5A0E6725D96EDA6A010EDA22000E40
:103A1800DF6E672B020E676514EF1DF016EF1DF0C1
:103A280005EF1DF038EF1DF0645107E1320E635DBC
:103A3800D8B021EF1DF023EF1DF038EF1DF05A0E1E
:103A48004924D96EDA6A010EDA22DF50D8B42FEF92
:103A58001DF031EF1DF038EF1DF05A0E4924D96ED4
:103A6800DA6A010EDA22DF061200D1EC39F097EC9F
:103A78003CF019EC3BF0A60E156E010E166E1AEC12
:103A880028F0A20E156E780E166E5DEC3CF0F28EE4
:103A9800F28C340E0201E96FF10EE82EFED7E92F01
:103AA800FCD700D010EC15F0DC0E0001F86FFE0E0C
:103AB800F96F6BEC3AF093EC3CF0A60E156E010E24
:103AC800166E9CEC20F093EC34F006EC31F001011A
:103AD800AEA771EF1DF073EF1DF075EF1DF0B6EC9A
:103AE80023F0E3EC2CF00101AEAB7DEF1DF07FEF8E
:103AF8001DF08CEF1DF06E5107E1140E6D5DD8B00E
:103B080088EF1DF08AEF1DF08CEF1DF06D4B6E2BCA
:103B1800F451F511D8A493EF1DF095EF1DF0A2EF25
:103B28001DF06B516C11D8A49CEF1DF09EEF1DF099
:103B3800A2EF1DF0B2EC3CF0FBEF1DF0F451F511D3
:103B4800D8B4A9EF1DF0ABEF1DF0CEEF1DF0AEAD70
:103B5800B0EF1DF0B2EF1DF0FBEF1DF0F10E00010C
:103B6800F86FFE0EF96FF4C1FAF0F5C1FBF06BECDB
:103B78003AF00101F407D8A0F507F405F511D8A427
:103B8800C8EF1DF0CAEF1DF0FBEF1DF09DEC35F0FE
:103B9800FBEF1DF06B516C11D8B4D5EF1DF0D7EFCA
:103BA8001DF0FBEF1DF0AEADDCEF1DF0DEEF1DF0FC
:103BB800FBEF1DF00C0E6B196C11D8A4E6EF1DF08D
:103BC800E8EF1DF0EAEF1DF083EC31F001016B071F
:103BD800D8A06C07B20E0001F86FFE0EF96F6BC12A
:103BE800FAF06CC1FBF06BEC3AF0FBEF1DF0010151
:103BF800F451F511D8A403EF1EF005EF1EF009EFFC
:103C08001EF0D5EC33F061EF1DF0AEAB0EEF1EF0F9
:103C180010EF1EF061EF1DF085B215EF1EF018EFE2
:103C28001EF0010E19EF1EF0000EFF0A0201E96FE7
:103C3800E9478550E919FD0BE919856E61EF1DF01B
:103C480097EF00F01D6E1D50D8B42DEF1EF02FEF2A
:103C58001EF051EF1EF018BE36EF1EF034EF1EF0C6
:103C680051EF1EF015C019F016C01AF017C01BF05E
:103C780018C01CF0191E1A1E1B1E1C1E192A000E25
:103C88001A221B221C2219C01FF01AC020F01BC0C8
:103C980021F01CC022F059EF1EF015C01FF016C00D
:103CA80020F017C021F018C022F015501610171078
:103CB8001810D8A462EF1EF064EF1EF06EEF1EF02D
:103CC800000E156E000E166E000E176E000E186EA2
:103CD800FFEF1EF0960E1E6E78EF1EF01E2AD8908B
:103CE8002232213220321F32000E1F14196E000EAC
:103CF80020141A6E000E21141B6EFE0E22141C6E68
:103D080019501A101B101C10D8A48DEF1EF08FEF3D
:103D18001EF072EF1EF09DEF1EF01E2A010E1F26E8
:103D2800000E202221222222D89022322132203253
:103D38001F32000E1F14196E000E20141A6E000E8A
:103D480021141B6EFF0E22141C6E19501A101B1022
:103D58001C10D8A4B2EF1EF0B4EF1EF091EF1EF0C5
:103D6800BCEF1EF01E06D8901F36203621362236AC
:103D780021BEC1EF1EF0C3EF1EF0CBEF1EF0020E06
:103D88001E60C9EF1EF0CBEF1EF0B6EF1EF01EB09E
:103D9800D0EF1EF0D2EF1EF0D3EF1EF0219ED89088
:103DA8001E321EC019F01A6A1B6A1C6A19C01CF060
:103DB8001B6A1A6A196A19501F121A5020121B50CE
:103DC80021121C5022121D50D8B4EDEF1EF0EFEF57
:103DD8001EF0F7EF1EF018BEF6EF1EF0F4EF1EF01F
:103DE800F7EF1EF0228E1FC015F020C016F021C07C
:103DF80017F022C018F01200000E1C6E000EF2BE62
:103E0800010E1B6E1AEF1FF04A2A4A04D8A40FEFBE
:103E18001FF011EF1FF01AEF1FF0000E4A6E000E90
:103E28000101936F010E1C6E30EF1FF04A50BDEC7C
:103E380037F00009D8A423EF1FF025EF1FF008EF93
:103E48001FF04A509EEC37F00009D8B42EEF1FF04F
:103E580030EF1FF008EF1FF01C50D8A436EF1FF00A
:103E680038EF1FF0CDEF1FF04A50090DAF0EF324C5
:103E78001D6E010EF4201E6E1DC015F01EC016F03A
:103E88003AEC3BF00009D8B44CEF1FF04EEF1FF0AE
:103E980061EF1FF020EE03F01D50D9261E50DA22E4
:103EA800DF500F015C6F20EE02F01D50D9261E5026
:103EB800DA22DF505E6F87EF1FF01DC015F01EC0BD
:103EC80016F02AEC3BF00009D8B46DEF1FF06FEF45
:103ED8001FF082EF1FF020EE02F01D50D9261E5071
:103EE800DA22DF500F015E6F20EE03F01D50D92655
:103EF8001E50DA22DF505C6F87EF1FF0600E0F0153
:103F08005E6F600E5C6F010190510F015E2720EE1D
:103F180001F01D50D9261E50DA22DF505F6F20EEC7
:103F280004F01D50D9261E50DA22DF50196ED890A1
:103F38001930666E20EE05F01D50D9261E50DA2283
:103F4800DF505D6F608E010E0101936F010E156EDB
:103F58004A5001EC39F0F29E608020EE04F01D50CA
:103F6800D9261E50DA22DF50196E1A6A090ED89027
:103F780019361A36E82EBBEF1FF019C070FF1AC0A9
:103F880071FF1BB002D0F29E01D0F28E000E01012B
:103F9800926F1200000E086E000EF2BE010E076E40
:103FA800E8EF1FF04A2A4A04D8A4DDEF1FF0DFEF3C
:103FB8001FF0E8EF1FF0000E4A6E000E0101936F2C
:103FC800010E086EFEEF1FF04A50FBEC37F00009B7
:103FD800D8A4F1EF1FF0F3EF1FF0D6EF1FF04A500F
:103FE8001AEC38F00009D8B4FCEF1FF0FEEF1FF010
:103FF800D6EF1FF00850D8A404EF20F006EF20F009
:104008009BEF20F04A50090DAF0EF324096E010E04
:10401800F4200A6E09C001F00AC002F05AEC3BF025
:104028000009D8B41AEF20F01CEF20F02FEF20F091
:1040380020EE03F00950D9260A50DA22DF500F018A
:104048005C6F20EE02F00950D9260A50DA22DF50C0
:104058005E6F55EF20F009C001F00AC002F04AEC8B
:104068003BF00009D8B43BEF20F03DEF20F050EFD3
:1040780020F020EE02F00950D9260A50DA22DF504B
:104088000F015E6F20EE03F00950D9260A50DA229C
:10409800DF505C6F55EF20F0600E0F015E6F600E11
:1040A8005C6F010190510F015E2720EE01F009506D
:1040B800D9260A50DA22DF505F6F20EE04F009504B
:1040C800D9260A50DA22DF50056ED8900530666E80
:1040D80020EE05F00950D9260A50DA22DF505D6F2C
:1040E800608E010E0101936F010E016E4A5039EC8A
:1040F80039F0F29E608020EE04F00950D9260A506B
:10410800DA22DF50056E066A090ED89005360636A3
:10411800E82E89EF20F005C070FF06C071FF07B0D8
:1041280002D0F29E01D0F28E000E0101926F1200B1
:1041380020EE08F01550D9261650DA22DF9020EE2E
:1041480008F01550D9261650DA22DF9220EE08F032
:104158001550D9261650DA22DF9620EE08F01550B1
:10416800D9261650DA22DF9820EE08F01550D92605
:104178001650DA22DF9A20EE08F01550D92616508C
:10418800DA22DF9C20EE07F01550D9261650DA22E5
:10419800DFA0D1EF20F0D3EF20F0E1EF20F020EE08
:1041A80008F01550D9261650DA22DF8020EE07F0E5
:1041B8001550D9261650DA22DF9020EE07F0155058
:1041C800D9261650DA22DFA2ECEF20F0EEEF20F02D
:1041D800FCEF20F020EE08F01550D9261650DA2210
:1041E800DF8220EE07F01550D9261650DA22DF922A
:1041F80020EE07F01550D9261650DA22DFA407EF73
:1042080021F009EF21F017EF21F020EE08F015500A
:10421800D9261650DA22DF8620EE07F01550D92667
:104228001650DA22DF9420EE07F01550D9261650E2
:10423800DA22DFA622EF21F024EF21F032EF21F07D
:1042480020EE08F01550D9261650DA22DF8820EE25
:1042580007F01550D9261650DA22DF9620EE07F01F
:104268001550D9261650DA22DFA83DEF21F03FEF8E
:1042780021F04DEF21F020EE08F01550D926165008
:10428800DA22DF8A20EE07F01550D9261650DA22F6
:10429800DF9820EE07F01550D9261650DA22DFAA4B
:1042A80058EF21F05AEF21F068EF21F020EE08F0E6
:1042B8001550D9261650DA22DF8C20EE07F015505B
:1042C800D9261650DA22DF9A1200000E2A6E000E46
:1042D800296E000E236E000E226E75EF21F01C4A27
:1042E8001D2A010E286E1CC0D9FF1DC0DAFF200E42
:1042F800DE18D8B482EF21F084EF21F0A0EF21F08E
:10430800F70E1E6EFF0E1F6E1CC0D9FF1DC0DAFF10
:10431800DF50206E216A1E5020261F502122215076
:1043280009E1050E205CD8A09CEF21F09EEF21F05A
:10433800A0EF21F0000E286E28C024F0256A245032
:104348002510D8A4AAEF21F0ACEF21F073EF21F0EB
:10435800B6EF21F0000E236E010E226E1C4A1D2AB4
:10436800EBEF21F01CC0D9FF1DC0DAFFDF501E6E35
:104378001F6A1F50000AD8B4C4EF21F0EBEF21F0F8
:104388001E502B0AD8B4B2EF21F0060AD8B4AEEF0B
:1043980021F0EBEF21F029C015F02AC016F0000E2D
:1043A800186E0A0E176EBBEC3AF01CC0D9FF1DC080
:1043B800DAFFDF501E6E1E50155E000E165A300EC4
:1043C8001524296E000E16202A6EB2EF21F0D00EA9
:1043D8001E6EFF0E1F6E1CC0D9FF1DC0DAFFDF5016
:1043E800206E216A1E5020261F50212221500AE1EA
:1043F8000A0E205CD8A003EF22F006EF22F0010E8F
:1044080007EF22F0000E266E276A26502710D8A440
:1044180010EF22F012EF22F0CFEF21F022502310FC
:10442800D8A419EF22F01BEF22F029EF22F029C0BF
:104438001EF02AC01FF01E1E1F1E1E4A1F2A1EC065
:104448001CF01FC01DF02DEF22F029C01CF02AC05F
:104458001DF01200000E266E24BE37EF22F035EF55
:1044680022F049EF22F0241E231E221E211E201EA8
:104478001F1E1E1E1D6C000E1E221F22202221221E
:10448800222223222422010E266E1CBE50EF22F087
:104498004EEF22F062EF22F01C1E1B1E1A1E191E80
:1044A800181E171E161E156C000E1622172218222B
:1044B80019221A221B221C22010E261A20EE27F08E
:1044C800070EDE6AE806FDE21D501E101F102010C0
:1044D8002110221023102410D8B475EF22F077EFA2
:1044E80022F0C9EF22F0010E256E85EF22F0D89058
:1044F8001D361E361F362036213622362336243600
:10450800252A24AE8AEF22F08CEF22F07BEF22F0EE
:10451800D8902736283629362A362B362C362D368B
:104528002E361D50155C1E5016581F501758205017
:1045380018582150195822501A5823501B582450E3
:104548001C58D8A0AAEF22F0ACEF22F0BDEF22F061
:104558001D50155E1E50165A1F50175A2050185AD3
:104568002150195A22501A5A23501B5A24501C5AA7
:104578002780D890243223322232213220321F322F
:104588001E321D32252E8CEF22F02650D8B4CFEFE4
:1045980022F0D1EF22F0E1EF22F02E1E2D1E2C1E6C
:1045A8002B1E2A1E291E281E276C000E28222922AF
:1045B8002A222B222C222D222E2227C015F028C099
:1045C80016F029C017F02AC018F02BC019F02CC01B
:1045D8001AF02DC01BF02EC01CF0120001C0D9FF2C
:1045E80002C0DAFF000EDE6E000EDD6E20EE02F075
:1045F8000150D9260250DA22DF2A20EE07F00150B6
:10460800D9260250DA22DF8020EE02F00150D926A6
:104618000250DA22090EDF6414EF23F016EF23F0BC
:1046280033EF23F020EE02F00150D9260250DA22AF
:10463800000EDF6E20EE03F00150D9260250DA2278
:10464800DF2A20EE04F00150D9260250DA22DF2AB0
:1046580020EE07F00150D9260250DA22DF8220EE40
:1046680003F00150D9260250DA22090EDF643FEF29
:1046780023F041EF23F057EF23F020EE03F0015031
:10468800D9260250DA22000EDF6E20EE05F0015026
:10469800D9260250DA22DF2A20EE07F00150D92667
:1046A8000250DA22DF8420EE04F00150D9260250AD
:1046B800DA22180EDF6463EF23F065EF23F074EF5E
:1046C80023F020EE04F00150D9260250DA22000E21
:1046D800DF6E20EE07F00150D9260250DA22DF867D
:1046E80020EE05F00150D9260250DA22040EDF64CC
:1046F80080EF23F082EF23F098EF23F020EE05F00F
:104708000150D9260250DA22000EDF6E20EE07F0A3
:104718000150D9260250DA22DF8820EE06F0015037
:10472800D9260250DA22DF2A20EE06F00150D926D7
:104738000250DA22010EDF64A4EF23F0A6EF23F083
:10474800B5EF23F020EE06F00150D9260250DA2208
:10475800000EDF6E20EE07F00150D9260250DA2253
:10476800DF8A1200A2EC3CF00009D8A4BEEF23F0C7
:10477800C0EF23F075EF24F0A4EC33F0030E000132
:10478800A06F970EE82EFED7A02FFCD700D0B00E52
:10479800236E020E246E3D0EBAEC39F015C025F0DA
:1047A80016C026F01BEC0AF0000E0001816F000E07
:1047B800826FA00E836F3F0E846F000E646FC00E71
:1047C800656F7F0E666F440E676F22EEB8F0DECF1E
:1047D80015F0DDCF16F0000E16BEFF0E176E186E20
:1047E800010E26EC1EF015C060F016C061F017C06F
:1047F80062F018C063F042EC13F060C079F061C059
:104808007AF062C07BF063C07CF0000E0001756F27
:10481800000E766F800E776F3F0E786F91EC36F052
:1048280075C07DF076C07EF077C07FF078C080F0EC
:104838002CEC11F07DC0A1F07EC0A2F07FC0A3F0E7
:1048480080C0A4F0DA0E0001646F030E656FAD0E30
:10485800666F3A0E676FA1C079F0A2C07AF0A3C064
:104868007BF0A4C07CF0390E756FB40E766F280EFD
:10487800776F3F0E786F91EC36F075C060F076C0B8
:1048880061F077C062F078C063F042EC13F060C06A
:10489800A5F061C0A6F062C0A7F063C0A8F0000E42
:1048A800276E000E286E200E296EC20E2A6EA5C035
:1048B80023F0A6C024F0A7C025F0A8C026F09FECDE
:1048C8000CF023C096F024C097F025C098F026C0BD
:1048D80099F09FEC28F096C077F197C078F1A5EC95
:1048E8003CF01200000E166E010E156E3D0E176E8E
:1048F800B5EC36F0000E166E020E156E01017251FF
:10490800176EB5EC36F0000E166E030E156E71C1FB
:1049180017F0B5EC36F0000E166E040E156E010198
:104928007651176EB5EC36F0000E166E050E156E44
:1049380075C117F0B5EC36F0000E166E060E156E42
:1049480001017451176EB5EC36F0000E166E070EA5
:10495800156E73C117F0B5EC36F0000E166E0E0E1C
:10496800156E8DC117F0B5EC36F0000E166E080EF8
:10497800156E01018451176EB5EC36F0000E166EF7
:10498800090E156E83C117F0B5EC36F0000E166EE1
:104998000F0E156E01018251176EB5EC36F0000E40
:1049A800166E100E156E81C117F0B5EC36F0000EBC
:1049B800166E0A0E156E4050176EB5EC36F0000EE6
:1049C800166E0B0E156E3FC017F0B5EC36F0000EE4
:1049D800166E0C0E156E3E50176EB5EC36F0000EC6
:1049E800166E0D0E156E3DC017F0B5EC36F0000EC4
:1049F800166E110E156E43C017F0B5EC36F0000EAA
:104A0800166E120E156E3C50176EB5EC36F0000E91
:104A1800166E130E156E3BC017F0B5EC36F0000E8F
:104A2800166E140E156E0101FF51176EB5EC36F0B7
:104A3800000E166E150E156EFEC117F0B5EC36F0A9
:104A4800000E166E160E156E01016451176EB5EC48
:104A580036F0000E166E170E156E63C117F0B5EC22
:104A680036F01200000E266E1CBE3FEF25F03DEF1B
:104A780025F051EF25F01C1E1B1E1A1E191E181EAC
:104A8800171E161E156C000E162217221822192240
:104A98001A221B221C22010E266E24BE58EF25F076
:104AA80056EF25F068EF25F0241E231E221E211E36
:104AB800201E1F1E1E1E1D6C000E1E221F222022DD
:104AC80021222222232224221D501E101F102010D2
:104AD8002110221023102410D8B475EF25F077EF99
:104AE80025F0BFEF25F0010E256E85EF25F0D89053
:104AF8001D361E361F3620362136223623362436FA
:104B0800252A24AE8AEF25F08CEF25F07BEF25F0DF
:104B18001D50155C1E5016581F5017582050185815
:104B28002150195822501A5823501B5824501C58E9
:104B3800D8A0A1EF25F0A3EF25F0B3EF25F01D5085
:104B4800155E1E50165A1F50175A2050185A2150D9
:104B5800195A22501A5A23501B5A24501C5AD890BA
:104B6800243223322232213220321F321E321D32A9
:104B7800252E8CEF25F02650D8B4C5EF25F0C7EFC9
:104B880025F0D7EF25F01C1E1B1E1A1E191E181E15
:104B9800171E161E156C000E16221722182219222F
:104BA8001A221B221C2215C015F016C016F017C0B9
:104BB80017F018C018F019C019F01AC01AF01BC065
:104BC8001BF01CC01CF0120020EE05F01550D92671
:104BD8001650DA22DECF17F0DECF18F0DECF19F04C
:104BE800DECF1AF0050EFEEF25F0D8901A321932F2
:104BF80018321732E82EF9EF25F020EE03F01550A1
:104C0800D9261650DA22DECF1BF0DDCF1CF01B5060
:104C18001D6E1C501E6E1F6A206A17501D5C216E87
:104C280018501E58226E19501F58236E1A502058BB
:104C3800246E20EE0FF01550D9261650DA22DF50D8
:104C4800176E21C018F022C019F023C01AF024C032
:104C58001BF0176632EF26F03AEF26F01B341B32B2
:104C68001A3219321832172E2DEF26F018C021F0FB
:104C780019C022F01AC023F01BC024F024BE50EF44
:104C880026F024502310221009E1800E215CD8A0C0
:104C980050EF26F052EF26F05AEF26F07F0E216EE5
:104CA800000E226E000E236E000E246E24AE6AEFF4
:104CB80026F0800E215CFF0E2258FF0E2358FF0EAF
:104CC8002458D8B06AEF26F06CEF26F074EF26F07F
:104CD800800E216EFF0E226EFF0E236EFF0E246ED5
:104CE80020EE09F01550D9261650DA2221C0DFFF30
:104CF80012002BC020F02CC021F0B20E226EFF0E45
:104D0800236E22EC2BF020C060F021C061F060C05F
:104D18001DF061C01EF0C0EC31F01DC066F01EC071
:104D280067F0000167BF9DEF26F09BEF26F0A3EF29
:104D380026F066C02BF067C02CF00BEF27F0000EB2
:104D4800206E000E216EB20E226EFF0E236E22EC34
:104D58002BF020C062F021C063F0000E206E000E20
:104D6800216EB20E226EFF0E236E22EC2BF020C0B5
:104D780064F021C065F0000E0001696F000E686FD5
:104D8800DFEF26F068512B24D96E69512C20DA6E9A
:104D9800200EDE18D8A4D3EF26F0D5EF26F0DDEFED
:104DA80026F068512B24D96E69512C20DA6E000E3A
:104DB800DF6E684B692B68512B24D96E69512C2002
:104DC800DA6EDF50D8A4EBEF26F0EDEF26F0C6EF51
:104DD80026F062C01CF063C01DF069EC21F02DC004
:104DE800D9FF2EC0DAFF1CC0DEFF1DC0DDFF64C086
:104DF8001CF065C01DF069EC21F02FC0D9FF30C050
:104E0800DAFF1CC0DEFF1DC0DDFF9DEF26F012009B
:104E1800F2AE11EF27F013EF27F055EF27F0F29ECF
:104E280020EE05F01550D9261650DA22DECF17F0FD
:104E3800DECF18F0DECF19F0DECF1AF0050E2AEF1C
:104E480027F0D8901A32193218321732E82E25EF87
:104E580027F020EE05F01550D9261650DA22175003
:104E6800DE5E1850DE5A1950DE5A1A50DE5A20EE0D
:104E780003F01550D9261650DA22DECF17F0DDCF11
:104E880018F020EE05F01550D9261650DA221750E2
:104E9800DE261850DE22000EDE22DE22F28E93EF8E
:104EA80027F020EE05F01550D9261650DA22DECF6D
:104EB80017F0DECF18F0DECF19F0DECF1AF0050EAE
:104EC8006BEF27F0D8901A32193218321732E82EC1
:104ED80066EF27F020EE05F01550D9261650DA2295
:104EE8001750DE5E1850DE5A1950DE5A1A50DE5A34
:104EF80020EE03F01550D9261650DA22DECF17F02F
:104F0800DDCF18F020EE05F01550D9261650DA221C
:104F18001750DE261850DE22000EDE22DE22120096
:104F2800000E1E6E1CBE9DEF27F09BEF27F0A7EF2B
:104F380027F01C1E1B1E1A1E196C000E1A221B229B
:104F48001C22010E1E6E18BEAEEF27F0ACEF27F044
:104F5800B8EF27F0181E171E161E156C000E162225
:104F680017221822010E1E1A000E1F6E000E206E48
:104F7800000E216E000E226E19501A101B101C1004
:104F8800D8B4C9EF27F0CBEF27F001EF28F0010ED6
:104F98001D6ED5EF27F0D89019361A361B361C36F9
:104FA8001D2A1CAEDAEF27F0DCEF27F0CFEF27F051
:104FB800D8901F362036213622361950155C1A50E3
:104FC80016581B5017581C501858D8A0EEEF27F049
:104FD800F0EF27F0F9EF27F01950155E1A50165A1E
:104FE8001B50175A1C50185A1F80D8901C321B325D
:104FF8001A3219321D2EDCEF27F01E50D8B407EFF5
:1050080028F009EF28F011EF28F0221E211E201E9B
:105018001F6C000E2022212222221FC015F020C062
:1050280016F021C017F022C018F0120020EE07F089
:105038001550D9261650DA22DF9020EE07F01550C9
:10504800D9261650DA22DF9220EE07F01550D9261D
:105058001650DA22DF9420EE07F01550D9261650A4
:10506800DA22DF9620EE07F01550D9261650DA22FC
:10507800DF9820EE07F01550D9261650DA22DF9A6D
:1050880020EE08F01550D9261650DA22DF9020EECF
:1050980008F01550D9261650DA22DF9220EE08F0D3
:1050A8001550D9261650DA22DF9620EE08F0155052
:1050B800D9261650DA22DF9820EE08F01550D926A6
:1050C8001650DA22DF9A20EE08F01550D92616502D
:1050D800DA22DF9C15C0D9FF16C0DAFF000EDE6E9B
:1050E800000EDD6E20EE02F01550D9261650DA2299
:1050F800000EDF6E20EE03F01550D9261650DA2286
:10510800000EDF6E20EE04F01550D9261650DA2274
:10511800000EDF6E20EE05F01550D9261650DA2263
:10512800000EDF6E20EE06F01550D9261650DA2252
:10513800000EDF6E12000001983599359F6F9F5160
:10514800D8A4A9EF28F0ABEF28F0B5EF28F0000EAF
:10515800966F000E976F000E986F000E996F22EFF2
:1051680029F096C09AF097C09BF098C09CF099C01F
:105178009DF0200EC5EF28F0D8909D339C339B33CB
:105188009A33E82EC0EF28F09A519E6F988FFF0E41
:105198009617FF0E9717FF0E9817000E9917960E81
:1051A8009F5F9FBFDCEF28F0DAEF28F0F2EF28F0DE
:1051B8009F51800A970FD8B0E4EF28F0E6EF28F067
:1051C800E8EF28F0ABEF28F0D8909933983397336D
:1051D80096339F3FE8EF28F00AEF29F01F0E9F65EE
:1051E800F8EF28F0FAEF28F002EF29F0ABEF28F0FB
:1051F800D89096379737983799379F079F51D8A4F3
:1052080008EF29F00AEF29F0FCEF28F09E51D8B4F6
:1052180010EF29F012EF29F01AEF29F0991F981FC3
:10522800971F966D000E97239823992396C096F0A2
:1052380097C097F098C098F099C099F01200000EA6
:10524800000196159E6F000E97159F6F800E98159A
:10525800A06F7F0E9915A16F9E519F11A011A111EA
:10526800D8A439EF29F03BEF29F043EF29F0000EDD
:10527800966F000E976F000E986F000E996F000ED4
:105288009A159E6F000E9B159F6F800E9C15A06F40
:105298007F0E9D15A16F9E519F11A011A111D8A439
:1052A80058EF29F05AEF29F062EF29F0000E9A6FB3
:1052B800000E9B6F000E9C6F000E9D6F99AF67EFFD
:1052C80029F069EF29F072EF29F0966D971FD8B091
:1052D800972B981FD8B0982B800E99579DAF77EFD2
:1052E80029F079EF29F082EF29F09A6D9B1FD8B049
:1052F8009B2B9C1FD8B09C2B800E9D57000E961B95
:10530800000E971B000E981B800E991B000E9A1B0F
:10531800000E9B1B000E9C1B800E9D1B9A51965DD8
:105328009B5197599C5198599D519959D8B09FEFC5
:1053380029F0A1EF29F0A4EF29F0D890A5EF29F0E2
:10534800D8801200000E016E4A5039EC39F0010184
:105358009251D8B4B2EF29F0B4EF29F0B7EF29F0A1
:10536800609E25EF2AF0609E4A50090DAF0EF32487
:105378000D6E010EF4200E6E0DC001F00EC002F08D
:105388005AEC3BF00009D8A4CCEF29F0CEEF29F075
:10539800D6EF29F00DC001F00EC002F088EC3BF00A
:1053A800DCEF29F00DC001F00EC002F049EC3CF032
:1053B8004A50020D870EF324D96E010EF420DA6EDE
:1053C800DECF0BF0DDCF0CF072500B5C016E73502A
:1053D8000C58026E7EEC37F0025009E1650E015C54
:1053E800D8A0F9EF29F0FBEF29F007EF2AF04A508F
:1053F800090DB70EF324D96E010EF420DA6E0101FF
:10540800DF8411EF2AF04A50090DB70EF324D96E44
:10541800010EF420DA6E0101DF949151D8A417EF40
:105428002AF019EF2AF025EF2AF04A50020D870ECC
:10543800F324D96E010EF420DA6E72CFDEFF73CF3B
:10544800DDFFCEEC1FF0120056C11FF057C120F04F
:1054580058C121F059C122F015C01FF016C020F024
:1054680017C021F018C022F01FC019F020C01AF090
:1054780021C01BF022C01CF0180E48EF2AF0D8906B
:105488001C321B321A321932E82E43EF2AF0195017
:105498001D6E1E6A1D501E10D8A455EF2AF057EF36
:1054A8002AF077EF2AF0D8901F34196E20341A6E3C
:1054B80021341B6E22341C6E19501A101B101C103C
:1054C800D8A469EF2AF06BEF2AF071EF2AF0000EEA
:1054D800166E020E156EA6EF2AF0000E166E030E5B
:1054E800156EA6EF2AF01D281E10D8A47EEF2AF00C
:1054F80080EF2AF0A2EF2AF01FC019F020C01AF09E
:1055080021C01BF022C01CF0090ED89019361A369B
:105518001B361C36E82E89EF2AF019501A101B107A
:105528001C10D8B49AEF2AF09DEF2AF0010E9EEFD6
:105538002AF0000E156E166AA6EF2AF0000E166EF7
:10554800040E156E120050EC1AF0000EADEC38F097
:1055580015C044F116C045F1C80E236E020E246E24
:1055680044C125F045C126F01BEC0AF00101465163
:10557800445D486F47514559496F4851755D7651AB
:10558800800A0001A66F01014951800A0001A6594D
:10559800D8B0D1EF2AF0D3EF2AF01AEF2BF001019F
:1055A8007351485D4951800A0001A66F0101745189
:1055B800800A0001A659D8B0E4EF2AF0E6EF2AF0F5
:1055C8001AEF2BF0FEC115F0FFC116F0000E186E91
:1055D800640E176EBBEC3AF001014A510001A66F48
:1055E80001014B510001A76F01014A4B4B2B15508C
:1055F8000001A65D1650A759D8A005EF2BF007EFBC
:105608002BF021EF2BF0FEC115F0FFC116F0000EB4
:10561800186E640E176EBBEC3AF015C04AF116C04E
:105628004BF1010E01018C6F21EF2BF0000E0101EF
:105638004B6F000E4A6F000E8C6F12002050211025
:10564800D8A429EF2BF02BEF2BF03EEF2BF05DC108
:1056580020F05EC121F020502110D8A436EF2BF0A5
:1056680038EF2BF03EEF2BF0000E206E000E216E6F
:1056780092EF2BF020C019F021C01AF022C01BF0C5
:1056880023C01CF00CEC33F0195020261A502122AC
:1056980020C0D9FF21C0DAFFDF50D8A456EF2BF085
:1056A80058EF2BF063EF2BF0000E01015D6F000E39
:1056B8005E6F5DC120F05EC121F092EF2BF020C03B
:1056C80019F021C01AF022C01BF023C01CF03FECD7
:1056D80033F01950202401015D6F1A5021205E6FAC
:1056E8005DC1D9FF5EC1DAFFDF50D8B47EEF2BF081
:1056F80080EF2BF08AEF2BF05DC1D9FF5EC1DAFF96
:10570800000EDF6E5D4B5E2B8EEF2BF0000E5D6F93
:10571800000E5E6F20C020F021C021F01200286E1C
:105728002850100D960EF324296E010EF4202A6ECF
:1057380020EE01F02950D9262A50DA22DF50BDEC9C
:1057480037F00009D8B4ABEF2BF0ADEF2BF003EF37
:105758002CF020EE01F02950D9262A50DA22DF5009
:10576800DCEC37F00009D8B4BCEF2BF0BEEF2BF01F
:1057780003EF2CF029C01DF02AC01EF0A2EC39F06E
:1057880029C015F02AC016F0E8EC25F020EE02F04A
:105798002950D9262A50DA22020EDF64D6EF2BF0E0
:1057A800D8EF2BF0DFEF2BF029C0D9FF2AC0DAFFA2
:1057B800DF50FCEC31F029C01EF02AC01FF020EEAB
:1057C80002F02950D9262A50DA22DF50256E2550BA
:1057D800020DEB0EF324D96E010EF420DA6EDECF43
:1057E80026F0DDCF27F002D803EF2CF00500FA6E83
:1057F8002650FD6E2750FE6EFF6AFA501200120006
:1058080020EE0AF01E50D9261F50DA22010EDB5076
:1058180007E1090EDE5CD8B014EF2CF016EF2CF07F
:105828001EEF2CF01EC018F01FC019F0C2EC34F0A7
:1058380024EF2CF01EC015F01FC016F00CEC27F05A
:1058480020EE0AF01E50D9261F50DA22DE2A000E5A
:10585800DD2220EE0AF01E50D9261F50DA22010E52
:10586800DB5009E1100EDE5CD8A03DEF2CF03FEFD5
:105878002CF074EF2CF020EE05F01E50D9261F50A6
:10588800DA22DECF20F0DECF21F0DECF22F0DECF2D
:1058980023F0050E55EF2CF0D89023322232213216
:1058A8002032E82E50EF2CF020EE03F01E50D926BF
:1058B8001F50DA2220C0DEFF21C0DDFF20EE02F0FB
:1058C8001E50D9261F50DA22010EDF6E20EE0AF094
:1058D8001E50D9261F50DA22000EDE6E000EDD6E35
:1058E800120015C01CF016C01DF017C01EF018C01D
:1058F8001FF01906D8A01A06192806E11A28D8A4F4
:1059080088EF2CF08AEF2CF097EF2CF0000E166E33
:10591800000E156EE2EF2CF01C4A1D2A1E4A1F2AA3
:105928001906D8A01A061CC0D9FF1DC0DAFFDF501F
:10593800D8B4A1EF2CF0A3EF2CF0D0EF2CF01EC0C0
:10594800F6FF1FC0F7FFF86A0800F5500009D8B441
:10595800B0EF2CF0B2EF2CF0D0EF2CF019501A1059
:10596800D8B4B9EF2CF0BBEF2CF0D0EF2CF01CC062
:10597800D9FF1DC0DAFFDF501B6E1EC0F6FF1FC027
:10598800F7FFF86A0800F5501B18D8B4CEEF2CF0D2
:10599800D0EF2CF090EF2CF01CC0D9FF1DC0DAFF1F
:1059A800DF501B6E1EC0F6FF1FC0F7FFF86A080025
:1059B800F5501B5C156E166AD8A016061200BDECD1
:1059C8003BF0E806D8A4EBEF2CF0EDEF2CF039EF24
:1059D8002DF09FEC3CF00201E86FE85158EC3CF0E8
:1059E80023EF2DF0600E01016F25D96E020E702194
:1059F800DA6E000EDF6EF2EC06F0000E0101706F39
:105A0800000E6F6F4DEF2DF0010170BF17EF2DF0F5
:105A1800705107E1500E6F5DD8B015EF2DF017EFFC
:105A28002DF001EF2DF0600E6F25D96E020E70215A
:105A3800DA6EE8C2DFFF6F4B702B4DEF2DF00201DD
:105A4800E851E66FE76BE751000AD8B42EEF2DF066
:105A580008EF2DF0E6510A0AD8B44DEF2DF0070AE9
:105A6800D8B4F6EF2CF008EF2DF00101AEA33FEF0C
:105A78002DF041EF2DF043EF2DF0A7EC2AF00101B6
:105A8800AEAD49EF2DF04BEF2DF04DEF2DF046EC7C
:105A980019F0120020EE09F01E50D9261F50DA2204
:105AA800DF50206E20EE0EF01E50D9261F50DA224D
:105AB800DF50216E2150D880D88420AE205CD8A039
:105AC800D884D8B46AEF2DF06CEF2DF087EF2DF065
:105AD80020EE02F01E50D9261F50DA22020EDF6E89
