:0400000095EF00F088
:100008000182FACF10F0FBCF11F0D9CF12F0DACF7E
:1000180013F0F3CF14F0F4CF15F00E01C2AB17EFC5
:1000280000F019EF00F024EF00F0CAAB1EEF00F06B
:1000380020EF00F024EF00F0A9EC35F087EF00F096
:10004800F2AC29EF00F02BEF00F087EF00F0C5A924
:1000580030EF00F032EF00F048EF00F0CDA937EFB5
:1000680000F039EF00F048EF00F002D846EF00F05A
:100078000500FA6E0101F751FD6EF851FE6EFF6A38
:10008800FA50120087EF00F0C5AB4DEF00F04FEFCC
:1000980000F065EF00F0CDAB54EF00F056EF00F044
:1000A80065EF00F002D863EF00F00500FA6E010179
:1000B800F551FD6EF651FE6EFF6AFA50120087EF99
:1000C80000F0C3A36AEF00F06CEF00F077EF00F0E8
:1000D800CBA371EF00F073EF00F077EF00F04CEC7A
:1000E80033F087EF00F0C6A17CEF00F07EEF00F060
:1000F80087EF00F0CEA183EF00F085EF00F087EFE7
:1001080000F052EC35F015C0F4FF14C0F3FF13C033
:10011800DAFF12C0D9FF11C0FBFF10C0FAFF01922D
:1001280011003BEF2BF00001CC6BA4C0CDF0A5C0B3
:10013800CEF0A6C0CFF0A7C0D0F0D0BFA8EF00F097
:10014800A6EF00F0BCEF00F0010ECC6FCDC016F0AA
:10015800CEC017F0CFC018F0D0C019F03FEC32F085
:1001680016C0CDF017C0CEF018C0CFF019C0D0F02F
:100178000001D26B000ED16F6DC1BCF06EC1BDF035
:10018800CC51D8B4CAEF00F0CCEF00F0DEEF00F0AD
:10019800CC51D8A4D2EF00F0D4EF00F0D9EF00F0A2
:1001A800B26B2B0EB16FDCEF00F0B26B2D0EB16F9E
:1001B800B1C0CCF0CDC016F0CEC017F0CFC018F04B
:1001C800D0C019F076EC25F016041710D8A4EFEF7C
:1001D80000F0F1EF00F023EF01F00001CC51D8B4AA
:1001E800F8EF00F0FAEF00F002EF01F0CCC000F2F7
:1001F800BC07D8A0BD07D26B010ED16F000ED12568
:10020800166E020ED221176EF60E186EFF0E196EBC
:10021800E8EC31F00001FD0EBC27FF0EBD23A2C0A3
:1002280028F0A3C029F0000E2A6E020E2B6EBCC067
:100238002CF0BDC02DF0B8EC2CF089EF05F0CDC046
:1002480016F0CEC017F0CFC018F0D0C019F076EC79
:1002580025F016501710D8A434EF01F036EF01F04E
:1002680055EF01F00001CC51D8B43DEF01F03FEF5C
:1002780001F047EF01F0CCC000F2BC07D8A0BD07E1
:10028800D26B010ED16F000ED125166E020ED2214F
:10029800176EFA0E186EFF0E196EE8EC31F00EEFBD
:1002A80001F0000E0001D36F000ED46F800ED56FE1
:1002B8003F0ED66FBB6B000EBA6FCDC016F0CEC026
:1002C80017F0CFC018F0D0C019F0000E1A6E000E4B
:1002D8001B6E000E1C6E000E1D6E4BEC2AF0D8B083
:1002E80078EF01F07AEF01F05BEF02F087EF01F0B1
:1002F800BEC0D3F0BFC0D4F0C0C0D5F0C1C0D6F0E6
:100308000001BA4BBB2BD3C07DF0D4C07EF0D5C062
:100318007FF0D6C080F0000E0001816F000E826F62
:10032800200E836F410E846F6FEC0DF07DC0BEF020
:100338007EC0BFF07FC0C0F080C0C1F00001BE51D8
:10034800CD5D166EBF51CE59176EC051CF59186E7C
:10035800C151D059196EF9EC2EF019BEBFEF01F05A
:1003680019501810171009E1020E165CD8A0BFEF3B
:1003780001F0C1EF01F07CEF01F0BEC096F0BFC004
:1003880097F0C0C098F0C1C099F0CDC09AF0CEC027
:100398009BF0CFC09CF0D0C09DF0F4EC23F000019E
:1003A800D8A0D9EF01F0DBEF01F07CEF01F0D351D9
:1003B800CD5D166ED451CE59176ED551CF59186EE2
:1003C800D651D059196EF9EC2EF019BEF9EF01F09B
:1003D80019501810171007E1020E165CD8B0F7EF85
:1003E80001F0F9EF01F041EF02F0D3C0CDF0D4C035
:1003F800CEF0D5C0CFF0D6C0D0F05BEF02F0D3C0BE
:1004080060F0D4C061F0D5C062F0D6C063F0000ED1
:10041800646F000E656F200E666F410E676F83EC88
:100428000FF060C0D3F061C0D4F062C0D5F063C0F3
:10043800D6F00001BA07D8A0BB07D351CD5D166E20
:10044800D451CE59176ED551CF59186ED651D059AF
:10045800196EF9EC2EF019BE3FEF02F01950181082
:10046800171007E1020E165CD8B03DEF02F03FEF1F
:1004780002F041EF02F0F9EF01F0CDC096F0CEC0E6
:1004880097F0CFC098F0D0C099F0D3C09AF0D4C0FC
:100498009BF0D5C09CF0D6C09DF0F4EC23F0000191
:1004A800D8A059EF02F05BEF02F003EF02F0A8C00A
:1004B800B4F0B4C0B5F0010170BF65EF02F067EFAA
:1004C80002F06DEF02F06FC1ADF070C1AEF071EFE8
:1004D80002F00001AE6B060EAD6FADC0B8F0AEC055
:1004E800B9F00001B84BB92B660EB519D8A47FEF47
:1004F80002F081EF02F0A0EF02F0BBBF88EF02F03C
:1005080086EF02F093EF02F0000ED36F000ED46F67
:10051800800ED56F3F0ED66FBB6B000EBA6F670E9D
:10052800B419D8B49AEF02F09CEF02F0A0EF02F0F1
:10053800BA51B827BB51B923C36B000EC26FCDC0E7
:10054800C4F0CEC0C5F0CFC0C6F0D0C0C7F0D3C08D
:10055800BEF0D4C0BFF0D5C0C0F0D6C0C1F031EFF6
:1005680003F0C4C060F0C5C061F0C6C062F0C7C087
:1005780063F0D3C064F0D4C065F0D5C066F0D6C0CF
:1005880067F083EC0FF060C075F061C076F062C070
:1005980077F063C078F02BEC17F075C0C8F076C020
:1005A800C9F077C0CAF078C0CBF0C8C096F0C9C00F
:1005B80097F0CAC098F0CBC099F070EC23F096C0C1
:1005C800B6F097C0B7F0C4C075F0C5C076F0C6C025
:1005D80077F0C7C078F0C8C081F0C9C082F0CAC03F
:1005E80083F0CBC084F0D3C07DF0D4C07EF0D5C0FA
:1005F8007FF0D6C080F06FEC0DF07DC079F07EC042
:100608007AF07FC07BF080C07CF068EC30F075C079
:10061800C4F076C0C5F077C0C6F078C0C7F0D3C0C4
:1006280060F0D4C061F0D5C062F0D6C063F0000EAF
:100638000001646F000E656F200E666F410E676FD4
:1006480083EC0FF060C0D3F061C0D4F062C0D5F085
:1006580063C0D6F00001C24BC32BB851C25DC35171
:10066800800AA96FB951800AA959D8A03EEF03F0B2
:1006780040EF03F0B5EF02F0D3C07DF0D4C07EF0B8
:10068800D5C07FF0D6C080F0000E816F000E826F5B
:10069800A00E836F400E846F6FEC0DF07DC0C8F024
:1006A8007EC0C9F07FC0CAF080C0CBF0C4C096F04D
:1006B800C5C097F0C6C098F0C7C099F0C8C09AF0F6
:1006C800C9C09BF0CAC09CF0CBC09DF0F4EC23F0ED
:1006D8000001D8B072EF03F074EF03F07EEF03F07F
:1006E800000EC86F000EC96F000ECA6F000ECB6FE8
:1006F800A7EF03F0C4C016F0C5C017F0C6C018F0C5
:10070800C7C019F0C8C01AF0C9C01BF0CAC01CF095
:10071800CBC01DF04BEC2AF0D8A095EF03F097EF73
:1007280003F0A7EF03F00001B6B19DEF03F09FEFD0
:1007380003F0A7EF03F0000EC86F000EC96F000E9C
:10074800CA6F000ECB6FCDC024F0CEC025F0CFC04D
:1007580026F0D0C027F0C8C028F0C9C029F0CAC008
:100768002AF0CBC02BF014EC0BF024C0C4F025C049
:10077800C5F026C0C6F027C0C7F0C4C096F0C5C0F3
:1007880097F0C6C098F0C7C099F0000E0001816FBD
:10079800000E826F200E836F410E846FBEC07DF005
:1007A800BFC07EF0C0C07FF0C1C080F06FEC0DF01C
:1007B8007DC09AF07EC09BF07FC09CF080C09DF009
:1007C800F4EC23F00001D8A0ECEF03F0EEEF03F017
:1007D80016EF04F0BA4BBB2BBEC07DF0BFC07EF055
:1007E800C0C07FF0C1C080F0000E816F000E826F24
:1007F800200E836F410E846F6FEC0DF07DC0BEF04C
:100808007EC0BFF07FC0C0F080C0C1F0660E00019E
:10081800B519D8A412EF04F014EF04F016EF04F0A1
:10082800B84BB92BBEC0D3F0BFC0D4F0C0C0D5F010
:10083800C1C0D6F0BAC0ABF0BBC0ACF0B36BB06B04
:10084800000EAF6FC36B000EC26F10EF05F0C4C08F
:1008580060F0C5C061F0C6C062F0C7C063F0D3C025
:1008680064F0D4C065F0D5C066F0D6C067F083ECFC
:100878000FF060C075F061C076F062C077F063C0B9
:1008880078F02BEC17F075C0C8F076C0C9F077C0C7
:10089800CAF078C0CBF0C8C096F0C9C097F0CAC0FB
:1008A80098F0CBC099F070EC23F0000197BF68EF87
:1008B80004F0975107E10A0E965DD8B066EF04F090
:1008C80068EF04F078EF04F0C8C096F0C9C097F05C
:1008D800CAC098F0CBC099F070EC23F096C0B6F07F
:1008E80097C0B7F07BEF04F0B76B090EB66F000145
:1008F800B351D8A482EF04F084EF04F0ACEF04F015
:10090800ACBF8BEF04F089EF04F0ACEF04F0000EFD
:10091800D125D96E020ED221DA6E2E0EDF6ED14BA2
:10092800D22BBC07D8A0BD07010EB36FACEF04F003
:10093800000ED125D96E020ED221DA6E300EDF6E8E
:10094800D14BD22BBC07D8A0BD07AF07D8A0B007A2
:10095800AF51B011D8A4B3EF04F0B5EF04F09CEF99
:1009680004F0000ED125D96E020ED221DA6EB651EE
:10097800300FDF6ED14BD22BBC07D8A0BD07C4C047
:1009880075F0C5C076F0C6C077F0C7C078F0C8C0AB
:1009980081F0C9C082F0CAC083F0CBC084F0D3C054
:1009A8007DF0D4C07EF0D5C07FF0D6C080F06FEC6B
:1009B8000DF07DC079F07EC07AF07FC07BF080C0FA
:1009C8007CF068EC30F075C0C4F076C0C5F077C034
:1009D800C6F078C0C7F0D3C060F0D4C061F0D5C00D
:1009E80062F0D6C063F0000E0001646F000E656F00
:1009F800200E666F410E676F83EC0FF060C0D3F076
:100A080061C0D4F062C0D5F063C0D6F00001AB0776
:100A1800D8A0AC07C24BC32BB851C25DC351800AE2
:100A2800A96FB951800AA959D8B01DEF05F01FEF79
:100A380005F02DEF05F0D2BF2BEF05F0D25109E1FB
:100A48004B0ED15DD8A02BEF05F02DEF05F02BEF65
:100A580004F0C36B4F0EC26F000EC225D96E020E92
:100A6800C321DA6EDF6A000EA96F020EAA6FD15198
:100A7800A95FD251AA5BC251A925166EC351AA21FA
:100A8800176E000E186E020E196ED1C01AF0D2C081
:100A98001BF0ECEC2CF00001D151C25DD16FD251AA
:100AA800C359D26FCC51D8A45CEF05F05FEF05F0C5
:100AB800010E60EF05F0000EC26FC36BCC51D8B4C5
:100AC80068EF05F06AEF05F075EF05F0D107D8A0DB
:100AD800D207000ED125D96E020ED221DA6ECCC013
:100AE800DFFFC251BC5FC351BD5BA2C028F0A3C0E9
:100AF80029F0000ED1252A6E020ED2212B6EBCC021
:100B08002CF0BDC02DF0B8EC2CF01200500E256E64
:100B1800020E266EC80E276E020E286EC60E296EAD
:100B2800020E2A6ED8EC21F025C0C4F226C0C5F208
:100B38000201C42906E1C529D8A4A5EF05F0A7EF4D
:100B480005F0F4EF07F0A2EF08F00001F981A2EF39
:100B580008F00001F983A2EF08F00001F985A2EF7F
:100B680008F00001F989A2EF08F00001F98BA2EF63
:100B780008F00001FA81A2EF08F0600E0101F96F98
:100B8800FF0EFA6F54C1FBF155C1FCF177EC34F05C
:100B9800A2EF08F0480E0101F96FFF0EFA6FF5C0D9
:100BA800FBF1F6C0FCF177EC34F0A00E0101F96F0F
:100BB800FF0EFA6FF7C0FBF1F8C0FCF177EC34F0E8
:100BC800A2EF08F0B00E0101F96FFF0EFA6F58C1DD
:100BD800FBF159C1FCF177EC34F0A2EF08F0000109
:100BE800FA6B000EF96FA2EF08F0680E0101F96FB9
:100BF800FF0EFA6F87C1FBF188C1FCF177EC34F086
:100C0800A2EF08F0900E0101F96FFF0EFA6F3DC0D8
:100C1800FBF13EC0FCF177EC34F0A2EF08F0880E4F
:100C28000101F96FFF0EFA6F3BC0FBF13CC0FCF10C
:100C380077EC34F0A2EF08F0780E0101F96FFF0E9F
:100C4800FA6FFC6B000EFB6F77EC34F0A2EF08F044
:100C58000001F98DA2EF08F0800E0101F96FFF0E77
:100C6800FA6F176A020E166E25EC35F00201C06F96
:100C7800C051C26FC16B176A030E166E25EC35F0B2
:100C88000201C36FC351C1110101FB6F0201C251BF
:100C98000101FC6F77EC34F0A2EF08F0580E010167
:100CA800F96FFF0EFA6F3FC0FBF140C0FCF177EC23
:100CB80034F0A2EF08F0C8C23FF0C9C240F0176A8A
:100CC800080E166E4050186E8CEC30F0176A090E3C
:100CD800166E3FC018F08CEC30F0A2EF08F0180E3A
:100CE8000101F96FFF0EFA6FC8C2FBF1C9C2FCF12E
:100CF800C8C216F0C9C217F025EC35F00201C06F62
:100D0800C0510101FD6FFE6B77EC34F0A2EF08F0E3
:100D1800C8C216F0C9C217F0C6C218F08CEC30F081
:100D28000C0E0101F96FFF0EFA6FC8C2FBF1C9C2C0
:100D3800FCF1C6C2FDF1C7C2FEF177EC34F0A2EFB8
:100D480008F0C8C2B8F2C9C2B9F2C6C2BAF2C7C27C
:100D5800BBF284EC2BF0A2EF08F04BEC11F0A2EF01
:100D680008F0B1EC14F0A2EF08F0C8C27DF1C9C2D6
:100D78007EF1176A020E166E01017E51186E8CEC18
:100D880030F0176A030E166E7DC118F08CEC30F047
:100D9800A2EF08F0C8C2FCF0176A0E0E166EFCC06F
:100DA80018F08CEC30F0A2EF08F02D0E0101F96F6D
:100DB800FF0EFA6FF3C0FBF1F4C0FCF177EC34F0EE
:100DC800230E0101F96FFF0EFA6FFCC0FBF1FC6BFB
:100DD80077EC34F0A2EF08F0700E0101F96FFF0E06
:100DE800FA6F83C1FBF184C1FCF177EC34F0A2EF18
:100DF80008F00001F98FA2EF08F0C8C23DF0C9C29F
:100E08003EF0176A040E166E3E50186E8CEC30F0E9
:100E1800176A050E166E3DC018F08CEC30F0A2EF84
:100E280008F0C8C23BF0C9C23CF0176A060E166E3D
:100E38003C50186E8CEC30F0176A070E166E3BC0EB
:100E480018F08CEC30F0A2EF08F0C8C2F3F0C9C279
:100E5800F4F0176A120E166E0001F451186E8CEC3D
:100E680030F0176A130E166EF3C018F08CEC30F0E1
:100E7800A2EF08F023EC36F00101E06B030EDF6F00
:100E8800A50EF96FFE0EFA6F77EC34F0A2EF08F0BA
:100E9800010E0101946F8E0EF96FFE0EFA6FFBC002
:100EA800FBF1FC6B77EC34F0A2EF08F00101946BD6
:100EB800766B000E756F0001FB6BF46B000EF36F21
:100EC80001017A6B000E796F886B000E876F176AC5
:100ED800110E166EFBC018F08CEC30F0176A120E6B
:100EE800166E0001F451186E8CEC30F0176A130E70
:100EF800166EF3C018F08CEC30F0D10E0101F96FCA
:100F0800FE0EFA6F77EC34F0A2EF08F0C8C2F5F0E5
:100F1800C9C2F6F0C6C2F7F0C7C2F8F0176A0A0EDF
:100F2800166E0001F851186E8CEC30F0176A0B0E33
:100F3800166EF7C018F08CEC30F0176A0C0E166EAF
:100F48000001F651186E8CEC30F0176A0D0E166E13
:100F5800F5C018F08CEC30F0A2EF08F0980E010103
:100F6800F96FFF0EFA6FFEC0FBF1FFC0FCF177ECE2
:100F780034F0A2EF08F0C8C2FEF0C9C2FFF0176A49
:100F8800140E166E0001FF51186E8CEC30F0176AC3
:100F9800150E166EFEC018F08CEC30F0500E0101E4
:100FA800F96FFF0EFA6FF1C0FBF1F2C0FCF177ECBC
:100FB80034F0A2EF08F0C8C2F1F0C9C2F2F0176A23
:100FC800160E166E0001F251186E8CEC30F0176A8E
:100FD800170E166EF1C018F08CEC30F0A2EF08F086
:100FE800C4C2C0F2C5C2C1F2C151000AD8B4FFEFF1
:100FF80007F0A2EF08F0C051000AD8B4A9EF05F035
:10100800010AD8B4ADEF05F0030AD8B4B1EF05F082
:10101800010AD8B4B5EF05F0070AD8B4B9EF05F05E
:10102800010AD8B4BDEF05F0030AD8B4C1EF05F042
:10103800010AD8B4CEEF05F00F0AD8B4E6EF05F0F0
:10104800010AD8B4F3EF05F0030AD8B4F9EF05F0B4
:10105800010AD8B406EF06F0070AD8B413EF06F071
:10106800010AD8B420EF06F0030AD8B42CEF06F032
:10107800010AD8B430EF06F01F0AD8B452EF06F0D0
:10108800010AD8B45FEF06F0030AD8B473EF06F08C
:10109800010AD8B48CEF06F0070AD8B4A5EF06F019
:1010A800010AD8B4B1EF06F0030AD8B4B5EF06F0D8
:1010B800010AD8B4B9EF06F00F0AD8B4CEEF06F09B
:1010C800010AD8B4D9EF06F0030AD8B4F0EF06F055
:1010D800010AD8B4FDEF06F0070AD8B401EF07F00B
:1010E800010AD8B415EF07F0030AD8B429EF07F0BE
:1010F800010AD8B43EEF07F03F0AD8B4A2EF08F0CF
:10110800010AD8B44CEF07F0030AD8B45AEF07F035
:10111800010AD8B48AEF07F0070AD8B4B2EF07F08B
:10112800010AD8B4BFEF07F0030AD8B4D2EF07F02A
:10113800010AD8B4DFEF07F0A2EF08F0120024C0CC
:10114800D9FF25C0DAFF26C0DEFF27C0DDFF20EE6D
:1011580006F02450D9262550DA22DE2A000EDD2298
:1011680020EE06F02450D9262550DA22010EDBBEE7
:10117800C8EF08F0010EDB5009E1050EDE5CD8A0CF
:10118800C8EF08F0CAEF08F0D4EF08F020EE06F038
:101198002450D9262550DA22050EDE6E000EDD6EAB
:1011A80020EE02F02450D9262550DA22DE6ADE6AC3
:1011B800DE6ADD6A20EE14F02450D9262550DA22A2
:1011C800FF0EDE6E7F0EDD6E20EE16F02450D9265F
:1011D8002550DA22DE6ADD6A296A010E286E28C0E7
:1011E80060F029C061F0D890000160376137605124
:1011F8002424626F61512520636F0A0E6225D96E1F
:10120800000E6321DA6E28C064F029C065F0D8901A
:101218006437653764512424666F65512520676FEC
:10122800080E6625E16E000E6721E26EDECFE6FF4E
:10123800DDCFE5FF20EE02F02450D9262550DA2232
:10124800DECF60F0DECF61F0DECF62F0DECF63F09C
:1012580028C064F029C065F0D890643765376451B8
:101268002424666F65512520676F0A0E6625D96E9E
:10127800000E6721DA6EDECF68F0DDCF69F068C056
:101288006AF069C06BF0000E6BBFFF0E6C6F6D6F7C
:1012980060516A256E6F61516B216F6F62516C21CD
:1012A800706F63516D21716F20EE02F02450D926C2
:1012B8002550DA226EC0DEFF6FC0DEFF70C0DEFF91
:1012C80071C0DEFF20EE14F02450D9262550DA2212
:1012D80028C062F029C063F0D89062376337625142
:1012E8002424646F63512520656F0A0E6425E16E1E
:1012F800000E6521E26EDE50E65CE650800A686FFB
:10130800DE50800A6859D8B08CEF09F08EEF09F0EA
:10131800ABEF09F028C060F029C061F0D8906037C1
:10132800613760512424626F61512520636F0A0E72
:101338006225D96E000E6321DA6E10EE14F0245087
:10134800E1262550E222DECFE6FFDDCFE5FF28C00B
:1013580060F029C061F0D89060376137605124246B
:10136800626F61512520636F0A0E6225D96E000EE7
:101378006321DA6E10EE16F02450E1262550E222A1
:10138800DE50E65CE650800A686FDE50800A6859D5
:10139800D8B0D1EF09F0D3EF09F0F0EF09F028C089
:1013A80060F029C061F0D89060376137605124241B
:1013B800626F61512520636F0A0E6225D96E000E97
:1013C8006321DA6E10EE16F02450E1262550E22251
:1013D800DECFE6FFDDCFE5FF284A292A295009E1BB
:1013E800050E285CD8A0FBEF09F0FDEF09F0F3EF3C
:1013F80008F024C0D9FF25C0DAFFDECF60F0DDCFCA
:1014080061F020EE02F02450D9262550DA226051EE
:10141800DE266151DE22000E61BFFF0EDE22DE22D3
:1014280020EE06F02450D9262550DA22010EDBBE24
:1014380028EF0AF0010EDB5009E1030EDE5CD8A0AC
:1014480028EF0AF02AEF0AF043EF0AF020EE14F032
:101458002450D9262550DA22DECF60F0DDCF61F0A6
:1014680020EE02F02450D9262550DA226051DE5EA3
:101478006151DE5A000E61BFFF0EDE5ADE5A20EEC1
:1014880006F02450D9262550DA22010EDBBE57EF8C
:101498000AF0010EDB5009E1030EDE5CD8A057EF1D
:1014A8000AF059EF0AF072EF0AF020EE16F0245015
:1014B800D9262550DA22DECF60F0DDCF61F020EEAC
:1014C80002F02450D9262550DA226051DE5E61519F
:1014D800DE5A000E61BFFF0EDE5ADE5A24C0D9FF65
:1014E80025C0DAFF10EE12F02450E1262550E22242
:1014F800DECFE6FFDDCFE5FF20EE06F02450D9264B
:101508002550DA22010EDBBE94EF0AF0010EDB5003
:1015180009E1050EDE5CD8A094EF0AF096EF0AF018
:10152800BAEF0AF020EE02F02450D9262550DA222C
:10153800DECF16F0DECF17F0DECF18F0DECF19F0D1
:10154800030E1A6E000E1B6E000E1C6E000E1D6E32
:10155800EBEC22F020EE08F02450D9262550DA22B0
:1015680016C0DEFF17C0DDFF13EF0BF020EE06F00C
:101578002450D9262550DA22010EDBBECEEF0AF020
:10158800010EDB5009E1030EDE5CD8A0CEEF0AF0B5
:10159800D0EF0AF005EF0BF020EE02F02450D92628
:1015A8002550DA22DECF16F0DECF17F0DECF18F0A6
:1015B800DECF19F020EE06F02450D9262550DA2285
:1015C800DECF60F0DDCF61F0FE0E6025626FFF0EAA
:1015D8006121636F62C01AF063C01BF0000E1BBE6E
:1015E800FF0E1C6E1D6EEBEC22F020EE08F024506E
:1015F800D9262550DA2216C0DEFF17C0DDFF13EF0B
:101608000BF024C0D9FF25C0DAFF10EE08F02450F3
:10161800E1262550E222DECFE6FFDDCFE5FF12000E
:101628002750800B306E27502724326E26AE1FEFCE
:101638000BF021EF0BF022EF0BF032803250D8B4D0
:1016480028EF0BF02AEF0BF03EEF0BF03228D8A46E
:1016580030EF0BF032EF0BF03AEF0BF0000E246E88
:10166800000E256E000E266E000E276E268E276A47
:1016780046EF0BF0000E246E000E256E000E266E4F
:10168800000E276E2B50800B316E30503118D8B4B5
:1016980050EF0BF052EF0BF053EF0BF0308C2B5058
:1016A8002B24316E2AAE5BEF0BF05DEF0BF05EEF93
:1016B8000BF031803150D8B464EF0BF066EF0BF0CB
:1016C8007AEF0BF03128D8A46CEF0BF06EEF0BF02B
:1016D80076EF0BF0000E286E000E296E000E2A6EB3
:1016E800000E2B6E2A8E2B6A82EF0BF0000E286EEE
:1016F800000E296E000E2A6E000E2B6E3250315CE1
:10170800D8B089EF0BF08BEF0BF0B2EF0BF030ACE9
:1017180090EF0BF092EF0BF094EF0BF0800E301A75
:1017280032C033F031C032F033C031F024C033F06E
:1017380028C024F033C028F025C033F029C025F094
:1017480033C029F026C033F02AC026F033C02AF06F
:1017580027C033F02BC027F033C02BF0336A325048
:1017680031C02CF02D6A2C5E000E2D5A2DBEC6EF0E
:101778000BF02D5009E11A0E2C5CD8A0C6EF0BF027
:10178800C8EF0BF0FFEF0BF02450251026102710A0
:10179800D8A4D1EF0BF0D4EF0BF0010ED5EF0BF07E
:1017A800000E336E000E246E000E256E000E266E9F
:1017B800000E276E31C032F008EF0CF033A0E7EFCF
:1017C8000BF0E9EF0BF0EFEF0BF0D8903330010995
:1017D800336EF1EF0BF0D890333224A0F6EF0BF014
:1017E800F8EF0BF0F9EF0BF0338E2734273226325F
:1017F80025322432322A3150325CD8A006EF0CF060
:1018080008EF0CF0E2EF0BF030BC0DEF0CF00FEF2F
:101818000CF04FEF0CF03250D8A415EF0CF017EF86
:101828000CF021EF0CF0000E246E000E256E000E59
:10183800266E000E276E6EEF0DF0285024262950D4
:1018480025222A5026222B50272227A02EEF0CF0E3
:1018580030EF0CF0DCEF0CF033A035EF0CF037EF85
:101868000CF03DEF0CF0D89033300109336E3FEFA8
:101878000CF0D890333224A044EF0CF046EF0CF073
:1018880047EF0CF0338E27342732263225322432A4
:10189800322ADCEF0CF02850245C295025582A50B5
:1018A80026582750800A2C6E2B50800A2C58D8B006
:1018B80060EF0CF062EF0CF08DEF0CF02450285C18
:1018C8002C6E255029582D6E26502A582E6E2750DA
:1018D8002B582F6EFF0E2C24246EFF0E2D20256E04
:1018E800FF0E2E20266EFF0E2F20276E800E301A38
:1018F800336C3350D8A483EF0CF085EF0CF095EFE0
:101908000CF0010E2426000E25222622272295EF10
:101918000CF02850245E2950255A2A50265A2B505C
:10192800275A2450251026102710D8A49EEF0CF013
:10193800A0EF0CF0D5EF0CF03350D8A4A6EF0CF0C4
:10194800A8EF0CF0D5EF0CF0000E246E000E256EFB
:10195800000E266E000E276E6EEF0DF0D89024361E
:1019680025362636273633AEBCEF0CF0BEEF0CF02A
:10197800BFEF0CF0248033A0C4EF0CF0C6EF0CF0DE
:10198800CAEF0CF0D8803336CCEF0CF0D890333651
:101998003250D8B4D2EF0CF0D4EF0CF0D5EF0CF0F5
:1019A800320626AEDAEF0CF0DCEF0CF0B2EF0CF0FA
:1019B800316A33AEE2EF0CF0E4EF0CF0FCEF0CF020
:1019C80033C02CF07F0E2C16D8B4EDEF0CF0EFEFEF
:1019D8000CF0F3EF0CF0010E316EFCEF0CF024A0CC
:1019E800F8EF0CF0FAEF0CF0FCEF0CF0EFEF0CF066
:1019F8003150D8B402EF0DF004EF0DF02FEF0DF0D9
:101A0800010E2426000E25222622272227A00FEFCA
:101A18000DF011EF0DF02FEF0DF024C02CF025C0C4
:101A28002DF026C02EF027C02FF02F342F322E3263
:101A38002D322C322CC024F02DC025F02EC026F0DB
:101A48002FC027F03228D8B42CEF0DF02EEF0DF070
:101A58002FEF0DF0322A3228D8B435EF0DF037EFDA
:101A68000DF03FEF0DF03250D8A43DEF0DF03FEFF1
:101A78000DF050EF0DF0000E246E000E256E000ED6
:101A8800266E000E276E3250D8A44DEF0DF04FEFA2
:101A98000DF050EF0DF0306A32A055EF0DF057EF12
:101AA8000DF05AEF0DF0268E5BEF0DF0269ED890C4
:101AB8003230276E30AE63EF0DF065EF0DF066EF54
:101AC8000DF0278E24C024F025C025F026C026F06E
:101AD80027C027F0120000018051800B896F8051C8
:101AE80080258B6F7FAF7BEF0DF07DEF0DF07EEFE4
:101AF8000DF08B818B51D8B484EF0DF086EF0DF08B
:101B080099EF0DF08B29D8A48CEF0DF08EEF0DF026
:101B180096EF0DF0000E7D6F000E7E6F000E7F6F4A
:101B2800000E806F7F8FA1EF0DF0000E7D6F000E0D
:101B38007E6F000E7F6F000E806F8451800B891BB3
:101B4800845184258A6F83AFACEF0DF0AEEF0DF0B2
:101B5800AFEF0DF08A818A51D8B4B5EF0DF0B7EF29
:101B68000DF0CAEF0DF08A29D8A4BDEF0DF0BFEF34
:101B78000DF0C7EF0DF0000E816F000E826F000EA2
:101B8800836F000E846F838FD2EF0DF0000E816F8C
:101B9800000E826F000E836F000E846F8A51D8B4D6
:101BA800D8EF0DF0DAEF0DF0E2EF0DF08B51D8A47D
:101BB800E0EF0DF0E2EF0DF0ECEF0DF0000E7D6FB1
:101BC800000E7E6F000E7F6F000E806F82EF0FF0A9
:101BD80083517D03F3CF94F0F4CF95F094518C6F3B
:101BE8008D6B8E6B8F6B9551906F916B926B936B26
:101BF80082517E03F3CF94F0F4CF95F094518C2763
:101C0800000E8D238E238F2395519027000E91234C
:101C18009223932381517F03F3CF94F0F4CF95F06F
:101C280094518C27000E8D238E238F239551902756
:101C3800000E9123922393238EC08FF08DC08EF0D7
:101C48008CC08DF08C6B81517E03F3CF94F0F4CF70
:101C580095F094518C2795518D23000E8E23000EFC
:101C68008F2382517D03F3CF94F0F4CF95F09451F4
:101C78008C2795518D23000E8E23000E8F238EC046
:101C88008FF08DC08EF08CC08DF08C6B81517D03F0
:101C9800F3CF94F0F4CF95F094518C2795518D2380
:101CA800000E8E23000E8F2383517E03F3CF94F012
:101CB800F4CF95F09451902795519123000E9223DB
:101CC800000E932382517F03F3CF94F0F4CF95F065
:101CD8009451902795519123000E9223000E93233F
:101CE80083517F03F3CF94F0F4CF95F09451856F2F
:101CF8009551866F876B886B87C088F086C087F0A0
:101D080085C086F0856B8551902786519123875130
:101D18009223885193238CC085F08DC086F08EC0A5
:101D280087F08FC088F0190E9FEF0EF0D890883397
:101D3800873386338533E82E9AEF0EF08551902746
:101D48008651912387519223885193238EC08FF017
:101D58008DC08EF08CC08DF08C6B8A518BC085F055
:101D6800866B8527000E8623820E8525946FFF0ECD
:101D78008621956FD5EF0EF0D8909037913792372E
:101D880093378FAFCAEF0EF0CCEF0EF0CDEF0EF019
:101D98009081D8908C378D378E378F379407D8A09D
:101DA800950792AFDAEF0EF0DCEF0EF0C0EF0EF011
:101DB8008A6B8FAFE2EF0EF0E4EF0EF008EF0FF052
:101DC800FF0E8C15856FFF0E8D15866FFF0E8E1515
:101DD800876F7F0E8F15886F85518611871188113F
:101DE800D8B4F9EF0EF0FBEF0EF0FFEF0EF0010E96
:101DF8008A6F08EF0FF090A104EF0FF006EF0FF0D5
:101E080008EF0FF0FBEF0EF08A51D8B40EEF0FF089
:101E180010EF0FF034EF0FF0010E9027000E912312
:101E28009223932393A11BEF0FF01DEF0FF034EFD4
:101E38000FF090C085F091C086F092C087F093C0F3
:101E480088F08835883387338633853385C090F0AA
:101E580086C091F087C092F088C093F0944B952B80
:101E680095BF3FEF0FF0955108E19429D8A03FEFB7
:101E78000FF041EF0FF04BEF0FF0000E906F000ED8
:101E8800916F800E926F7F0E936F78EF0FF095BF72
:101E980058EF0FF0955106E19405D8B056EF0FF0C2
:101EA80058EF0FF063EF0FF0000E906F000E916F78
:101EB800000E926F000E936F896B78EF0FF094C04D
:101EC8008BF0FF0E9017FF0E91177F0E9217000EE2
:101ED80093178BA172EF0FF074EF0FF075EF0FF0FF
:101EE800928FD8908B31936F8951931390C07DF066
:101EF80091C07EF092C07FF093C080F01200000184
:101F08006351800B6C6F63516325736F62AF8FEF02
:101F18000FF091EF0FF092EF0FF073817351D8B477
:101F280098EF0FF09AEF0FF0AEEF0FF07329D8A4E7
:101F3800A0EF0FF0A2EF0FF0AAEF0FF0000E606F06
:101F4800000E616F000E626F000E636F628F636B2D
:101F5800B6EF0FF0000E606F000E616F000E626F3B
:101F6800000E636F6751800B6C1B67516725746F98
:101F780066AFC1EF0FF0C3EF0FF0C4EF0FF074813D
:101F88007451D8B4CAEF0FF0CCEF0FF0E0EF0FF0B8
:101F98007429D8A4D2EF0FF0D4EF0FF0DCEF0FF0D4
:101FA800000E646F000E656F000E666F000E676F9F
:101FB800668F676BE8EF0FF0000E646F000E656FB9
:101FC800000E666F000E676F645165116611671128
:101FD800D8A4F1EF0FF0F3EF0FF00BEF10F0000EB5
:101FE800606F000E616F000E626F000E636F800EEF
:101FF80062137F0E63136C51631360C060F061C09D
:1020080061F062C062F063C063F04AEF11F073518F
:10201800D8A411EF10F013EF10F01DEF10F0000E20
:10202800606F000E616F000E626F000E636F4AEF03
:1020380011F0745173C034F0356A345E000E355AAD
:102048007F0E34246D6F000E35206E6F60C068F00F
:1020580061C069F062C06AF063C06BF0000E606F27
:10206800000E616F000E626F000E636F000E6F6FDF
:10207800000E706F000E716F000E726F746B7DEF43
:1020880010F07451D8B44BEF10F04DEF10F064EF2E
:1020980010F0D890683769376A376B37D89060374F
:1020A80061376237633772AF5CEF10F05EEF10F0A4
:1020B8005FEF10F06081D8906F37703771377237E3
:1020C8006451685D6551695966516A5967516B5920
:1020D800D8A071EF10F073EF10F07CEF10F0728D54
:1020E8006451685F6551695B66516A5B67516B5BF8
:1020F800742B190E746583EF10F085EF10F045EF1F
:1021080010F0685169116A116B11D8B48EEF10F094
:1021180090EF10F0A8EF10F06F81A8EF10F0D890B2
:10212800603761376237633772AF9DEF10F09FEF0A
:1021380010F0A0EF10F06081D8906F3770377137CA
:1021480072376D07D8A06E0762AFADEF10F0AFEF32
:1021580010F093EF10F0746B72AFB5EF10F0B7EFAB
:1021680010F0DBEF10F0FF0E6F15346EFF0E7015D8
:10217800356EFF0E7115366E7F0E7215376E345040
:10218800351036103710D8B4CCEF10F0CEEF10F071
:10219800D2EF10F0010E746FDBEF10F060A1D7EFF3
:1021A80010F0D9EF10F0DBEF10F0CEEF10F0745113
:1021B800D8B4E1EF10F0E3EF10F007EF11F0010EE3
:1021C8006027000E61236223632363A1EEEF10F002
:1021D800F0EF10F007EF11F060C034F061C035F097
:1021E80062C036F063C037F03734373236323532B2
:1021F800343234C060F035C061F036C062F037C0A8
:1022080063F06D4B6E2B6EBF12EF11F06E5108E14B
:102218006D29D8A012EF11F014EF11F01FEF11F093
:10222800000E6E6F6D69000E606F000E616F000E1C
:10223800626F000E636F6EBF2CEF11F06E5106E1F6
:102248006D05D8B02AEF11F02CEF11F038EF11F02E
:102258006E6B000E6D6F000E606F000E616F000EEA
:10226800626F000E636F6C6B6DC073F073A13FEF0C
:1022780011F041EF11F044EF11F0628F45EF11F0CA
:10228800629FD8907331636FFFEF0FF01200176AE7
:10229800010E166E25EC35F03D0AD8A456EF11F064
:1022A80058EF11F059EF12F0176A020E166E25EC6E
:1022B80035F00201B86FB851BA6FB96B176A030EDF
:1022C800166E25EC35F00201BB6FBB51B911010147
:1022D8007D6F0201BA5101017E6F176A040E166EF6
:1022E80025EC35F00201B86FB851BA6FB96B176AAF
:1022F800050E166E25EC35F00201BB6FBB51B91106
:102308003D6EBA513E6E176A060E166E25EC35F014
:102318000201B86FB851BA6FB96B176A070E166E1B
:1023280025EC35F00201BB6FBB51B9113B6EBA51B8
:102338003C6E176A080E166E25EC35F00201B86F70
:10234800B851BA6FB96B176A090E166E25EC35F0DD
:102358000201BB6FBB51B9113F6EBA51406E176A8B
:102368000A0E166E25EC35F00201B86FB851BA6F37
:10237800B96B176A0B0E166E25EC35F00201BB6FB0
:10238800BB51B9110001F76F0201BA510001F86F92
:10239800176A0C0E166E25EC35F00201B86FB851AD
:1023A800BA6FB96B176A0D0E166E25EC35F002017F
:1023B800BB6FBB51B9110001F56F0201BA510001A1
:1023C800F66F176A0E0E166E25EC35F00001FC6FDD
:1023D800176A0F0E166E25EC35F00201B86FB8516A
:1023E800BA6FB96B176A100E166E25EC35F002013C
:1023F800BB6FBB51B9110101896F0201BA510101CB
:102408008A6F176A110E166E25EC35F00001FB6F06
:10241800176A120E166E25EC35F00201B86FB85126
:10242800BA6FB96B176A130E166E25EC35F00201F8
:10243800BB6FBB51B9110001F36F0201BA51000122
:10244800F46F176A140E166E25EC35F00201B86F9A
:10245800B851BA6FB96B176A150E166E25EC35F0C0
:102468000201BB6FBB51B9110001FE6F0201BA51E5
:102478000001FF6F176A160E166E25EC35F0020183
:10248800B86FB851BA6FB96B176A170E166E25EC8C
:1024980035F00201BB6FBB51B9110001F16F0201A8
:1024A800BA510001F26F8BEF12F001017E6B320E10
:1024B8007D6FFE0E3E6E700E3D6EFF0E3C6EBA0EC8
:1024C8003B6EFC0E406E180E3F6E0001F86B190E45
:1024D800F76F360EF66F590EF56F010EFC6F0B0E87
:1024E80001018A6FB80E896F0001FB6B0101936BC4
:1024F8000001F46B000EF36FFF6B020EFE6F030E0C
:10250800F26F840EF16F0101E06B030EDF6F800E36
:102518000101F96FFF0EFA6F7DC1FBF17EC1FCF17D
:1025280077EC34F0900E0101F96FFF0EFA6F3DC0A1
:10253800FBF13EC0FCF177EC34F0880E0101F96F35
:10254800FF0EFA6F3BC0FBF13CC0FCF177EC34F0B6
:10255800580E0101F96FFF0EFA6F3FC0FBF140C042
:10256800FCF177EC34F0230E0101F96FFF0EFA6FDE
:10257800FCC0FBF1FC6B77EC34F0980E0101F96FAD
:10258800FF0EFA6FFEC0FBF1FFC0FCF177EC34F0F0
:10259800F1C016F0F2C017F0186A196A000E00ECC4
:1025A8001CF016C07DF017C07EF018C07FF019C06F
:1025B80080F00A0E0001816FD70E826F230E836FA1
:1025C8003C0E846F6FEC0DF07DC0BCF27EC0BDF296
:1025D8007FC0BEF280C0BFF2A80E0101F96FFF0EE6
:1025E800FA6FBCC2FBF1BDC2FCF1BEC2FDF1BFC2B5
:1025F800FEF177EC34F023EC36F012000001D951EB
:10260800D96EDA6ADECFF6FFDDCFF7FFF86A080089
:10261800F550250AD8A413EF13F015EF13F09CEF2B
:1026280014F0D951D96EDA6ADE2A000EDD220101D2
:102638006E6B000E6D6F6DC191F16F69706900016D
:10264800D951D96EDA6ADECFE2F0DDCFE3F0E2C02D
:10265800F6FFE3C0F7FFF86A0800F550640AD8B43B
:1026680038EF13F03AEF13F049EF13F0E2C0F6FF3A
:10267800E3C0F7FFF86A0800F550690AD8A447EFE5
:1026880013F049EF13F0E6EF13F0DA51D96EDA6A76
:10269800DFCFDBF0020EDE26DFCFDCF0000EDD221E
:1026A800DBC0D9FFDCC0DAFFDECFDEF0DDCFDFF044
:1026B800010EE225DB6F000EE321DC6FD951D96EE4
:1026C800DA6ADBC0DEFFDCC0DDFF500EE46FDFBF7F
:1026D80070EF13F073EF13F0010E74EF13F0000EA8
:1026E800DD6FE407000EE425D96EDA6A020EDA22FD
:1026F800DEC016F0DFC017F0196A0A0E186EF4EC87
:1027080029F016C01CF017C01DF0FFEC32F01C5069
:10271800300FDF6EDEC016F0DFC017F0196A0A0E40
:10272800186EDCEC28F016C0DEF017C0DFF00001F0
:10273800DE51DF11D8B4A3EF13F0A5EF13F0ADEF1E
:1027480013F0E451D8A4ABEF13F0ADEF13F075EF2D
:1027580013F0E451D8B4B3EF13F0B5EF13F0DBEF97
:1027680013F0DD51D8B4BBEF13F0BDEF13F0DBEF7E
:1027780013F0E407000EE425D96EDA6A020EDA22B5
:102788002D0EDF6EDBEF13F0000EE425D96EDA6A4A
:10279800020EDA22DF50DB6FDB51186E196AD7C0E0
:1027A8001AF0D8C01BF0B5EC27F00001E42B500E4E
:1027B800E419D8A4E2EF13F0E4EF13F0C8EF13F034
:1027C800B0EF14F0D951D96EDA6ADECFE2F0DDCF7E
:1027D800E3F0E2C0F6FFE3C0F7FFF86A0800F5CFC0
:1027E800E4F002EF14F0E24BE32B11EF14F06C0E5F
:1027F800E46F11EF14F0E46B11EF14F0E4514C0A9C
:10280800D8B4F7EF13F02A0AD8B4FBEF13F00A0A8A
:10281800D8B4F7EF13F0FFEF13F0E2C0F6FFE3C010
:10282800F7FFF86A0800F550660AD8A41EEF14F0FE
:1028380020EF14F093EF14F054EF14F0DA51D96E3E
:10284800DA6ADFCFDBF0040EDE26DFCFDCF0000E25
:10285800DD22DBC0D9FFDCC0DAFFDECFDEF0DECF61
:10286800DFF0DECFE0F0DECFE1F05FEF14F0DA5119
:10287800D96EDA6ADFCFDBF0040EDE26DFCFDCF0BC
:10288800000EDD22DBC0D9FFDCC0DAFFDECFDEF0D0
:10289800DECFDFF0DECFE0F0DECFE1F05FEF14F067
:1028A800E4514C0AD8B43BEF14F0200AD8B422EF14
:1028B80014F05FEF14F0010EE225DB6F000EE32148
:1028C800DC6FD951D96EDA6ADBC0DEFFDCC0DDFF10
:1028D80086EF14F0D7C0A2F0D8C0A3F0DEC0A4F0F1
:1028E800DFC0A5F0E0C0A6F0E1C0A7F0E2C0F6FFA7
:1028F800E3C0F7FFF86A0800F5CFA8F097EC00F0FE
:10290800B0EF14F0E2C0F6FFE3C0F7FFF86A080082
:10291800F550660AD8B46EEF14F093EF14F0000186
:10292800D951D96EDA6ADE2A000EDD22B0EF14F032
:10293800D951D96EDA6ADECFF6FFDDCFF7FFF86A34
:102948000800F550186E196AD7C01AF0D8C01BF0E5
:10295800B5EC27F093EF14F01200000EF2BE010E52
:102968000001EE6FF29E176A010E166E3D0E186E8C
:102978008CEC30F081B2C3EF14F0C5EF14F0BEEF69
:1029880014F0176A020E166E01017E51186E8CEC57
:1029980030F081B2D2EF14F0D4EF14F0CDEF14F090
:1029A800176A030E166E7DC118F08CEC30F081B2F8
:1029B800E0EF14F0E2EF14F0DBEF14F0176A040E06
:1029C800166E3E50186E8CEC30F081B2EEEF14F0BB
:1029D800F0EF14F0E9EF14F0176A050E166E3DC01B
:1029E80018F08CEC30F081B2FCEF14F0FEEF14F02C
:1029F800F7EF14F0176A060E166E3C50186E8CEC42
:102A080030F081B20AEF15F00CEF15F005EF15F074
:102A1800176A070E166E3BC018F08CEC30F081B2C6
:102A280018EF15F01AEF15F013EF15F0176A0E0EE0
:102A3800166EFCC018F08CEC30F081B226EF15F061
:102A480028EF15F021EF15F0176A080E166E4050A2
:102A5800186E8CEC30F081B234EF15F036EF15F0CB
:102A68002FEF15F0176A090E166E3FC018F08CECA0
:102A780030F081B242EF15F044EF15F03DEF15F05C
:102A8800176A0F0E166E01018A51186E8CEC30F021
:102A980081B251EF15F053EF15F04CEF15F0176AAE
:102AA800100E166E89C118F08CEC30F081B25FEF11
:102AB80015F061EF15F05AEF15F0176A0A0E166E49
:102AC8000001F851186E8CEC30F081B26EEF15F001
:102AD80070EF15F069EF15F0176A0B0E166EF7C058
:102AE80018F08CEC30F081B27CEF15F07EEF15F029
:102AF80077EF15F0176A0C0E166E0001F651186E76
:102B08008CEC30F081B28BEF15F08DEF15F086EF7D
:102B180015F0176A0D0E166EF5C018F08CEC30F033
:102B280081B299EF15F09BEF15F094EF15F0176A45
:102B3800110E166EFBC018F08CEC30F081B2A7EFC6
:102B480015F0A9EF15F0A2EF15F0176A120E166E20
:102B58000001F451186E8CEC30F081B2B6EF15F02C
:102B6800B8EF15F0B1EF15F0176A130E166EF3C033
:102B780018F08CEC30F081B2C4EF15F0C6EF15F008
:102B8800BFEF15F0176A140E166E0001FF51186E8C
:102B98008CEC30F081B2D3EF15F0D5EF15F0CEEF15
:102BA80015F0176A150E166EFEC018F08CEC30F092
:102BB80081B2E1EF15F0E3EF15F0DCEF15F0176ADD
:102BC800160E166E0001F251186E8CEC30F081B2C0
:102BD800F0EF15F0F2EF15F0EBEF15F0176A170E9E
:102BE800166EF1C018F08CEC30F081B2FEEF15F0E3
:102BF80000EF16F0F9EF15F00001EEB102D0F29EE9
:102C080001D0F28E1A0E386EF80EE82EFED7382E46
:102C1800FCD700D0700E0101F96FFE0EFA6F77EC49
:102C280034F012000001F9B11CEF16F01EEF16F097
:102C380025EF16F0FAA123EF16F025EF16F030EF86
:102C480016F0B70E0101F96FFF0EFA6F54C1FBF1D0
:102C580055C1FCF177EC34F00001F9B336EF16F00A
:102C680038EF16F03FEF16F0FAA13DEF16F03FEF00
:102C780016F04AEF16F0E80E0101F96FFF0EFA6F31
:102C880056C1FBF157C1FCF177EC34F00001F9B5FE
:102C980050EF16F052EF16F059EF16F0FAA157EF71
:102CA80016F059EF16F064EF16F0EF0E0101F96F08
:102CB800FF0EFA6F58C1FBF159C1FCF177EC34F003
:102CC8000001F9B76AEF16F06CEF16F073EF16F023
:102CD800FAA171EF16F073EF16F07EEF16F0360ECC
:102CE8000101F96FFF0EFA6FA4C1FBF1A5C1FCF158
:102CF80077EC34F00001F9B984EF16F086EF16F09E
:102D08008DEF16F0FAA18BEF16F08DEF16F098EF15
:102D180016F0D30E0101F96FFF0EFA6F3DC0FBF1FB
:102D28003EC0FCF177EC34F00001F9B99EEF16F0E3
:102D3800A0EF16F0A7EF16F0FAA1A5EF16F0A7EF8F
:102D480016F0B2EF16F0E10E0101F96FFF0EFA6FFF
:102D58003BC0FBF13CC0FCF177EC34F00001F9BB5F
:102D6800B8EF16F0BAEF16F0C1EF16F0FAA1BFEF00
:102D780016F0C1EF16F0CCEF16F0C50E0101F96F91
:102D8800FF0EFA6F87C1FBF188C1FCF177EC34F0D4
:102D98000001F9BBD2EF16F0D4EF16F0DBEF16F016
:102DA800FAA1D9EF16F0DBEF16F0E5EF16F0BE0E3C
:102DB8000101F96FFF0EFA6F95C1FBF1FC6B77EC1F
:102DC80034F00001F9BDEBEF16F0EDEF16F0F4EF7B
:102DD80016F0FAA1F2EF16F0F4EF16F0FFEF16F086
:102DE800DA0E0101F96FFF0EFA6F7FC1FBF180C1A6
:102DF800FCF177EC34F00001F9BF05EF17F007EFAD
:102E080017F00EEF17F0FAA10CEF17F00EEF17F00E
:102E180019EF17F0CC0E0101F96FFF0EFA6F83C19D
:102E2800FBF184C1FCF177EC34F00001F951FA119F
:102E3800D8B421EF17F023EF17F02AEF17F0090E97
:102E48000101F96FFF0EFA6F77EC34F0120062C1DE
:102E580085F063C186F064C187F065C188F075C0EC
:102E680085F076C086F077C087F078C088F0810E4C
:102E78000001796FFF0E7A6F85C07BF086C07CF009
:102E880087C07DF088C07EF0180E50EF17F0D890FC
:102E98007E337D337C337B33E82E4BEF17F07B5149
:102EA8007925836F000E7A21846F84BF65EF17F050
:102EB800845109E1170E835DD8A065EF17F067EF1D
:102EC80017F071EF17F075C075F076C076F077C01F
:102ED80077F078C078F035EF18F084BF76EF17F008
:102EE80078EF17F0E9EF17F083C079F0FF0E7A6FEB
:102EF800FF0E7B6F7F0E7C6F000E7D6F796787EF0B
:102F080017F08FEF17F07D357D337C337B337A33C1
:102F1800792F82EF17F07AC07FF07BC080F07CC0F9
:102F280081F07DC082F000017F518515796F805155
:102F380086157A6F815187157B6F825188157C6F52
:102F480079517A117B117C11D8A4ADEF17F0AFEF4E
:102F580017F0B1EF17F067EF17F085C079F086C06A
:102F68007AF087C07BF088C07CF0200EC1EF17F0A4
:102F7800D8907C337B337A337933E82EBCEF17F063
:102F880079517A117B117C11D8B4CDEF17F0CFEFBE
:102F980017F0D7EF17F07F5185278051862381518D
:102FA8008723825188237F1D796F801D7A6F811D49
:102FB8007B6F821D7C6F795185177A5186177B51FB
:102FC80087177C5188172DEF18F085C079F086C0D7
:102FD8007AF087C07BF088C07CF0200EF9EF17F0FC
:102FE800D8907C337B337A337933E82EF4EF17F0BB
:102FF80079517A117B117C11D8A405EF18F007EFED
:1030080018F011EF18F0000E856F000E866F000E95
:10301800876F000E886F2DEF18F0D8908535796F7F
:1030280086357A6F87357B6F88357C6F79517A1151
:103038007B117C11D8B423EF18F025EF18F02DEF91
:1030480018F0000E856F000E866F800E876FBF0E1A
:10305800886F85C075F086C076F087C077F088C025
:1030680078F012000001FB51D8B43DEF18F03FEFA3
:1030780018F0BEEF18F0FC51D8B445EF18F047EF40
:1030880018F0BEEF18F00A0E816FD70E826F230E6C
:10309800836F3C0E846FF1C016F0F2C017F0186A07
:1030A800196A000E00EC1CF016C07DF017C07EF007
:1030B80018C07FF019C080F06FEC0DF07DC0A2F051
:1030C8007EC0A3F07FC0A4F080C0A5F0A2C081F0AC
:1030D800A3C082F0A4C083F0A5C084F00001F7511A
:1030E8000101835D0001A06FF851010184590001BD
:1030F800A16FA0C016F0A1C017F0000E17BEFF0EFA
:10310800186E196E010E00EC1CF016C07DF017C089
:103118007EF018C07FF019C080F06FEC0DF07DC014
:1031280028F07EC029F07FC02AF080C02BF0F3C0C1
:1031380016F0F4C017F0186A196A000E00EC1CF0BB
:1031480016C024F017C025F018C026F019C027F0C3
:1031580014EC0BF024C096F025C097F026C098F028
:1031680027C099F070EC23F096C056F197C057F13C
:1031780033EF19F00A0E816FD70E826F230E836F1B
:103188003C0E846FF1C016F0F2C017F0186A196A85
:10319800000E00EC1CF016C07DF017C07EF018C0C1
:1031A8007FF019C080F06FEC0DF07DC0A2F07EC0FA
:1031B800A3F07FC0A4F080C0A5F0A2C081F0A3C096
:1031C80082F0A4C083F0A5C084F00001F75101018A
:1031D800835D0001A06FF851010184590001A16FBE
:1031E800A0C016F0A1C017F0000E17BEFF0E186E93
:1031F800196E010E00EC1CF016C07DF017C07EF0B1
:1032080018C07FF019C080F06FEC0DF07DC028F079
:103218007EC029F07FC02AF080C02BF0F5C016F0E0
:10322800F6C017F0186A196A000E00EC1CF016C0F8
:1032380024F017C025F018C026F019C027F014ECA8
:103248000BF024C096F025C097F026C098F027C050
:1032580099F070EC23F096C056F197C057F1120020
:1032680094EC33F023EC36F09BEC34F0C40E166E7D
:10327800010E176EF8EC24F0B20E166E6B0E176E78
:10328800E5EC35F0020E0201CB6F040ECA6FBA0EE0
:10329800E82EFED7CA2FFCD7CB2FFAD70000F28E24
:1032A800F28C340E0201CA6FF10EE82EFED7CA2F37
:1032B800FCD700D04BEC11F0E60E0101F96FFE0EC1
:1032C800FA6F77EC34F01FEC36F0C40E166E010E70
:1032D800176EDAEC1CF049EC2EF0CBEC2BF0010168
:1032E800CCA779EF19F07BEF19F07DEF19F03BECE3
:1032F8001FF07CEC28F00101CCAB85EF19F087EFCB
:1033080019F094EF19F07A5107E1140E795DD8B0ED
:1033180090EF19F092EF19F094EF19F0794B7A2B9E
:10332800DF51E011D8A49BEF19F09DEF19F0A8EF39
:1033380019F077517811D8A4A4EF19F0A6EF19F075
:10334800A8EF19F0FDEF19F0DF51E011D8B4AFEF95
:1033580019F0B1EF19F0D3EF19F0CCADB6EF19F0C1
:10336800B8EF19F0FDEF19F0FB0EF96FFE0EFA6FCA
:10337800DFC1FBF1E0C1FCF177EC34F00101DF07BC
:10338800D8A0E007DF05E011D8A4CDEF19F0CFEF02
:1033980019F0FDEF19F0A3EC2FF0FDEF19F07751BC
:1033A8007811D8B4DAEF19F0DCEF19F0FDEF19F065
:1033B800CCADE1EF19F0E3EF19F0FDEF19F00C0EC9
:1033C80077197811D8A4EBEF19F0EDEF19F0EFEFBA
:1033D80019F009EC2CF001017707D8A07807BC0E8A
:1033E800F96FFE0EFA6F77C1FBF178C1FCF177EC4B
:1033F80034F00101DF51E011D8A405EF1AF007EF0E
:103408001AF00BEF1AF01DEC30F069EF19F0CCABA5
:1034180010EF1AF012EF1AF069EF19F085B217EFF2
:103428001AF01AEF1AF0010E1BEF1AF0000EFF0A3D
:103438000201CA6FCA478550CA19FD0BCA19856EA1
:1034480069EF19F095EF00F01D6E1D50020D8F0EFB
:10345800F324D96E010EF420DA6E1D50490FE16E87
:10346800E26AE7CF18F0010EE7261850020DF3CFF5
:1034780019F0F4CF1AF01D50060D5C0EF3241B6EE4
:10348800010EF4201C6E19501B24E16E1A501C20EA
:10349800E26EDECFE6FFDDCFE5FF1D50490FD96EA6
:1034A800DA6A020EDF645BEF1AF05DEF1AF062EF82
:1034B8001AF01D50490FD96EDA6ADF6A1D50060DE1
:1034C8005E0EF324D96E010EF420DA6E1D50060D3F
:1034D8005C0EF324E16E010EF420E26EDE50E65C31
:1034E800DE50E658D8A07BEF1AF07DEF1AF0DDEF3A
:1034F8001AF01D50060D600EF324D96E010EF4204B
:10350800DA6E1D50060D5E0EF324E16E010EF420F6
:10351800E26EDE50E65CDE50E658D8A096EF1AF070
:1035280098EF1AF0A6EF1AF01D50060D5E0EF32460
:10353800D96E010EF420DA6EDECF16F0DDCF17F06B
:1035480017EF1BF01D50060D600EF324D96E010E07
:10355800F420DA6E1D50060D5C0EF324E16E010EA8
:10356800F420E26EDE50E65CDE50E658D8A0BFEFED
:103578001AF0C1EF1AF0CFEF1AF01D50060D600EC9
:10358800F324D96E010EF420DA6EDECF16F0DDCF0B
:1035980017F017EF1BF01D50060D5C0EF324D96EC3
:1035A800010EF420DA6EDECF16F0DDCF17F017EF3C
:1035B8001BF01D50060D600EF324D96E010EF42089
:1035C800DA6E1D50060D5C0EF324E16E010EF42038
:1035D800E26EDE50E65CDE50E658D8A0F6EF1AF050
:1035E800F8EF1AF0FAEF1AF0CFEF1AF01D50060DA7
:1035F800600EF324D96E010EF420DA6E1D50060D0C
:103608005E0EF324E16E010EF420E26EDE50E65CFD
:10361800DE50E658D8A013EF1BF015EF1BF098EF1B
:103628001AF0C1EF1AF012002C6A000E2B6E2D6AE8
:103638004A50020DF3CF20F0F4CF21F02D50060DA3
:103648005C0EF324226E010EF420236E20502224F7
:10365800D96E21502320DA6EDECF24F0DDCF25F09D
:103668002D50020D8F0EF324D96E010EF420DA6E60
:10367800DECF26F0DDCF27F02450265C1C6E2550C7
:1036880027581D6EFFEC32F01CC029F01DC02AF02F
:1036980029502B5C2A502C58D8B055EF1BF057EF07
:1036A8001BF05BEF1BF029C02BF02AC02CF02D2A51
:1036B8002D50D8B462EF1BF064EF1BF01CEF1BF029
:1036C8002C5009E1650E2B5CD8A06DEF1BF06FEF55
:1036D8001BF0DFEF1BF06A0E4A24D96EDA6A010E7E
:1036E800DA22DF2A050EDF647CEF1BF07EEF1BF089
:1036F800FFEF1BF0DC0E4A24D96EDA6A010EDA22DB
:10370800DF502E6E020E2E648CEF1BF08EEF1BF036
:1037180093EF1BF02E50FE0F2E6E95EF1BF01E0E32
:103728002E6E010E286E2F6A4A502F18D8A49FEFCC
:103738001BF0A1EF1BF0A3EF1BF0B3EF1BF0DC0EA7
:103748002F24D96EDA6A010EDA222E50DE18D8A498
:10375800B0EF1BF0B2EF1BF0B3EF1BF0286A2F2A73
:10376800020E2F64BAEF1BF0BCEF1BF098EF1BF0B2
:103778002850D8B4C2EF1BF0C4EF1BF086EF1BF043
:10378800DC0E4A24D96EDA6A010EDA222EC0DFFF77
:103798002F6A6A0E2F24D96EDA6A010EDA22DF6ADE
:1037A8002F2A020E2F64DBEF1BF0DDEF1BF0CDEFAD
:1037B8001BF0FFEF1BF02C5007E1320E2B5CD8B04A
:1037C800E8EF1BF0EAEF1BF0FFEF1BF06A0E4A244C
:1037D800D96EDA6A010EDA22DF50D8B4F6EF1BF0A0
:1037E800F8EF1BF0FFEF1BF06A0E4A24D96EDA6A75
:1037F800010EDA22DF0612001E6E1E50D8B407EF43
:103808001CF009EF1CF02BEF1CF019BE10EF1CF098
:103818000EEF1CF02BEF1CF016C01AF017C01BF0AF
:1038280018C01CF019C01DF01A1E1B1E1C1E1D1EE0
:103838001A2A000E1B221C221D221AC020F01BC0AF
:1038480021F01CC022F01DC023F033EF1CF016C07D
:1038580020F017C021F018C022F019C023F016502C
:10386800171018101910D8A43CEF1CF03EEF1CF0EC
:1038780048EF1CF0000E166E000E176E000E186E44
:10388800000E196ED9EF1CF0960E1F6E52EF1CF049
:103898001F2AD8902332223221322032000E2014DF
:1038A8001A6E000E21141B6E000E22141C6EFE0EE2
:1038B80023141D6E1A501B101C101D10D8A467EF7E
:1038C8001CF069EF1CF04CEF1CF077EF1CF01F2A7E
:1038D800010E2026000E212222222322D8902332F4
:1038E800223221322032000E20141A6E000E2114CA
:1038F8001B6E000E22141C6EFF0E23141D6E1A5030
:103908001B101C101D10D8A48CEF1CF08EEF1CF09F
:103918006BEF1CF096EF1CF01F06D890203621366E
:103928002236233622BE9BEF1CF09DEF1CF0A5EF3C
:103938001CF0020E1F60A3EF1CF0A5EF1CF090EF27
:103948001CF01FB0AAEF1CF0ACEF1CF0ADEF1CF0A0
:10395800229ED8901F321FC01AF01B6A1C6A1D6A6B
:103968001AC01DF01C6A1B6A1A6A1A5020121B50D2
:1039780021121C5022121D5023121E50D8B4C7EF1A
:103988001CF0C9EF1CF0D1EF1CF019BED0EF1CF0F1
:10399800CEEF1CF0D1EF1CF0238E20C016F021C012
:1039A80017F022C018F023C019F0120020EE08F01A
:1039B8001650D9261750DA22DF9020EE08F016505C
:1039C800D9261750DA22DF9220EE08F01650D926B1
:1039D8001750DA22DF9620EE08F01650D926175035
:1039E800DA22DF9820EE08F01650D9261750DA228E
:1039F800DF9A20EE08F01650D9261750DA22DF9CFD
:103A080020EE07F01650D9261750DA22DFA00FEF64
:103A18001DF011EF1DF01FEF1DF020EE08F01650FD
:103A2800D9261750DA22DF8020EE07F01650D92663
:103A38001750DA22DF9020EE07F01650D9261750DB
:103A4800DA22DFA22AEF1DF02CEF1DF03AEF1DF06D
:103A580020EE08F01650D9261750DA22DF8220EE21
:103A680007F01650D9261750DA22DF9220EE07F019
:103A78001650D9261750DA22DFA445EF1DF047EF7C
:103A88001DF055EF1DF020EE08F01650D9261750FE
:103A9800DA22DF8620EE07F01650D9261750DA22F0
:103AA800DF9420EE07F01650D9261750DA22DFA649
:103AB80060EF1DF062EF1DF070EF1DF020EE08F0D2
:103AC8001650D9261750DA22DF8820EE07F0165054
:103AD800D9261750DA22DF9620EE07F01650D9269D
:103AE8001750DA22DFA87BEF1DF07DEF1DF08BEF7A
:103AF8001DF020EE08F01650D9261750DA22DF8A7A
:103B080020EE07F01650D9261750DA22DF9820EE5B
:103B180007F01650D9261750DA22DFAA96EF1DF0C3
:103B280098EF1DF0A6EF1DF020EE08F01650D926EC
:103B38001750DA22DF8C20EE07F01650D9261750DE
:103B4800DA22DF9A12001D6A000EF2BE010E1C6E08
:103B5800BEEF1DF04B2A4B04D8A4B5EF1DF0B7EF0C
:103B68001DF0BEEF1DF04B6A0101996B010E1D6E31
:103B7800D4EF1DF04B5070EC31F00009D8A4C7EF1A
:103B88001DF0C9EF1DF0AEEF1DF04B5052EC31F0B7
:103B98000009D8B4D2EF1DF0D4EF1DF0AEEF1DF040
:103BA8001D50D8A4DAEF1DF0DCEF1DF070EF1EF009
:103BB8004B50090DCD0EF3241E6E010EF4201F6E1E
:103BC8001EC016F01FC017F0BBEC34F00009D8B4C3
:103BD800F0EF1DF0F2EF1DF005EF1EF020EE03F000
:103BE8001E50D9261F50DA22DF500F015C6F20EEDD
:103BF80002F01E50D9261F50DA22DF505E6F2BEFDD
:103C08001EF01EC016F01FC017F0ABEC34F0000910
:103C1800D8B411EF1EF013EF1EF026EF1EF020EEC1
:103C280002F01E50D9261F50DA22DF500F015E6FB6
:103C380020EE03F01E50D9261F50DA22DF505C6FA9
:103C48002BEF1EF0600E0F015E6F600E5C6F0101BE
:103C580097510F015E2720EE01F01E50D9261F5004
:103C6800DA22DF505F6F20EE04F01E50D9261F5075
:103C7800DA22DF501A6ED8901A30666E20EE05F000
:103C88001E50D9261F50DA22DF505D6F608E010E5C
:103C98000101996F010E166E4B505BEC32F0F29EEB
:103CA800608020EE04F01E50D9261F50DA22DF5023
:103CB8001A6E1B6A090ED8901A361B36E82E5FEF6B
:103CC8001EF01AC070FF1BC071FF1CB002D0F29E1C
:103CD80001D0F28E0001FD6B1200096A000EF2BEDF
:103CE800010E086E88EF1EF04B2A4B04D8A47FEF14
:103CF8001EF081EF1EF088EF1EF04B6A0101996BF0
:103D0800010E096E9EEF1EF04B50ACEC31F000092D
:103D1800D8A491EF1EF093EF1EF078EF1EF04B50F1
:103D2800CAEC31F00009D8B49CEF1EF09EEF1EF0EB
:103D380078EF1EF00950D8A4A4EF1EF0A6EF1EF0ED
:103D48003AEF1FF04B50090DCD0EF3240A6E010E09
:103D5800F4200B6E0AC002F00BC003F0DBEC34F069
:103D68000009D8B4BAEF1EF0BCEF1EF0CFEF1EF07A
:103D780020EE03F00A50D9260B50DA22DF500F014B
:103D88005C6F20EE02F00A50D9260B50DA22DF5081
:103D98005E6FF5EF1EF00AC002F00BC003F0CBEC2B
:103DA80034F00009D8B4DBEF1EF0DDEF1EF0F0EFC1
:103DB8001EF020EE02F00A50D9260B50DA22DF500E
:103DC8000F015E6F20EE03F00A50D9260B50DA225D
:103DD800DF505C6FF5EF1EF0600E0F015E6F600E36
:103DE8005C6F010197510F015E2720EE01F00A5028
:103DF800D9260B50DA22DF505F6F20EE04F00A500C
:103E0800D9260B50DA22DF50066ED8900630666E3F
:103E180020EE05F00A50D9260B50DA22DF505D6FEC
:103E2800608E010E0101996F010E026E4B5077EC06
:103E380032F0F29E608020EE04F00A50D9260B5032
:103E4800DA22DF50066E076A090ED8900636073662
:103E5800E82E29EF1FF006C070FF07C071FF08B0F9
:103E680002D0F29E01D0F28E0001FD6B12002BEC05
:103E780036F00009D8A443EF1FF045EF1FF0F8EF24
:103E88001FF0AEEC30F0030E386E980EE82EFED719
:103E9800382EFCD7A00E246E020E256E3D0E7DEC4A
:103EA80033F016C026F017C027F0A3EC08F0000E78
:103EB8000001816F000E826FA00E836F3F0E846F2A
:103EC800000E646FC00E656F7F0E666F440E676FDD
:103ED80022EEA8F0DECF16F0DDCF17F0000E17BEE9
:103EE800FF0E186E196E010E00EC1CF016C060F083
:103EF80017C061F018C062F019C063F083EC0FF0CE
:103F080060C079F061C07AF062C07BF063C07CF079
:103F1800000E0001756F000E766F800E776F3F0EF2
:103F2800786F68EC30F075C07DF076C07EF077C0B1
:103F38007FF078C080F06FEC0DF07DC0A0F07EC0FF
:103F4800A1F07FC0A2F080C0A3F0DA0E0001646F78
:103F5800030E656FAD0E666F3A0E676FA0C079F0FD
:103F6800A1C07AF0A2C07BF0A3C07CF0390E756FB7
:103F7800B40E766F280E776F3F0E786F68EC30F0CE
:103F880075C060F076C061F077C062F078C063F009
:103F980083EC0FF060C0A4F061C0A5F062C0A6F089
:103FA80063C0A7F0000E286E000E296E200E2A6E40
:103FB800C20E2B6EA4C024F0A5C025F0A6C026F022
:103FC800A7C027F014EC0BF024C096F025C097F09A
:103FD80026C098F027C099F070EC23F096C07FF1C6
:103FE80097C080F12EEC36F0120002C0D9FF03C052
:103FF800DAFFDE6ADD6A20EE02F00250D9260350AD
:10400800DA22DF2A20EE07F00250D9260350DA22FE
:10401800DF8020EE02F00250D9260350DA22090E82
:10402800DF6419EF20F01BEF20F037EF20F020EECF
:1040380002F00250D9260350DA22DF6A20EE03F09C
:104048000250D9260350DA22DF2A20EE04F002506B
:10405800D9260350DA22DF2A20EE07F00250D926AB
:104068000350DA22DF8220EE03F00250D9260350F3
:10407800DA22090EDF6443EF20F045EF20F05AEF13
:1040880020F020EE03F00250D9260350DA22DF6A2E
:1040980020EE05F00250D9260350DA22DF2A20EE5E
:1040A80007F00250D9260350DA22DF8420EE04F00C
:1040B8000250D9260350DA22180EDF6466EF20F08A
:1040C80068EF20F076EF20F020EE04F00250D926B9
:1040D8000350DA22DF6A20EE07F00250D926035097
:1040E800DA22DF8620EE05F00250D9260350DA22C4
:1040F800040EDF6482EF20F084EF20F099EF20F0C7
:1041080020EE05F00250D9260350DA22DF6A20EEAD
:1041180007F00250D9260350DA22DF8820EE06F095
:104128000250D9260350DA22DF2A20EE06F0025088
:10413800D9260350DA22010EDF64A5EF20F0A7EF9D
:1041480020F0B5EF20F020EE06F00250D9260350FB
:10415800DA22DF6A20EE07F00250D9260350DA226D
:10416800DF8A120020EE05F01650D9261750DA2201
:10417800DECF18F0DECF19F0DECF1AF0DECF1BF05D
:10418800050ECCEF20F0D8901B321A3219321832B3
:10419800E82EC7EF20F020EE03F01650D92617506E
:1041A800DA22DECF1CF0DDCF1DF01C501E6E1D5034
:1041B8001F6E206A216A18501E5C226E19501F5803
:1041C800236E1A502058246E1B502158256E20EE5D
:1041D8000FF01650D9261750DA22DF50186E22C079
:1041E80019F023C01AF024C01BF025C01CF0186673
:1041F80000EF21F008EF21F01C341C321B321A3278
:104208001932182EFBEF20F019C022F01AC023F043
:104218001BC024F01CC025F025BE1EEF21F0255040
:104228002410231009E1800E225CD8A01EEF21F093
:1042380020EF21F028EF21F07F0E226E000E236E72
:10424800000E246E000E256E25AE38EF21F0800E8C
:10425800225CFF0E2358FF0E2458FF0E2558D8B0B5
:1042680038EF21F03AEF21F042EF21F0800E226E74
:10427800FF0E236EFF0E246EFF0E256E20EE09F052
:104288001650D9261750DA2222C0DFFF12001D6A05
:10429800000E1C6E1B6A53EF21F0164A172A16C02F
:1042A800D9FF17C0DAFF200EDE18D8B45EEF21F070
:1042B80060EF21F051EF21F016C0D9FF17C0DAFFE7
:1042C800DF50186EF70E1826040E18646EEF21F0F2
:1042D80070EF21F051EF21F016C0D9FF17C0DAFFB7
:1042E8002D0EDE18D8A47BEF21F07DEF21F083EFAF
:1042F80021F0010E1B6E164A172AADEF21F016C0E9
:10430800D9FF17C0DAFF2B0EDE18D8A48EEF21F0E4
:1043180090EF21F0ADEF21F07FEF21F00A0E1C02A3
:10432800F3CF18F0F4CF19F01D02F350192616C078
:10433800D9FF17C0DAFFDF501A6E1A50185E000E48
:10434800195A300E18241C6E000E19201D6E7FEFAE
:1043580021F016C0D9FF17C0DAFFDF50186ED00E53
:104368001826090E1864BBEF21F0BDEF21F092EF7B
:1043780021F01B50D8A4C3EF21F0C5EF21F0D3EFF3
:1043880021F01CC018F01DC019F0181E191E184A7B
:10439800192A18C016F019C017F0D7EF21F01CC061
:1043A80016F01DC017F0120025C021F026C022F01B
:1043B800BC0E236EFF0E246E47EC27F021C02CF0B4
:1043C80022C02DF02CC01EF02DC01FF046EC2CF0A2
:1043D8001EC032F01FC033F033BEF7EF21F0F5EF07
:1043E80021F0FDEF21F032C025F033C026F062EF56
:1043F80022F0000E216E000E226EBC0E236EFF0E00
:10440800246E47EC27F021C02EF022C02FF0000EBA
:10441800216E000E226EBC0E236EFF0E246E47EC3A
:1044280027F021C030F022C031F0356A000E346E1A
:1044380036EF22F034502524D96E35502620DA6E16
:10444800200EDE18D8A42BEF22F02DEF22F034EF47
:1044580022F034502524D96E35502620DA6EDF6AD2
:10446800344A352A34502524D96E35502620DA6E40
:10447800DF50D8A442EF22F044EF22F01EEF22F0E2
:104488002EC016F02FC017F04BEC21F027C0D9FF33
:1044980028C0DAFF16C0DEFF17C0DDFF30C016F0F7
:1044A80031C017F04BEC21F029C0D9FF2AC0DAFF40
:1044B80016C0DEFF17C0DDFFF7EF21F01200F2AEE5
:1044C80068EF22F06AEF22F0ACEF22F0F29E20EEC5
:1044D80005F01650D9261750DA22DECF18F0DECFB5
:1044E80019F0DECF1AF0DECF1BF0050E81EF22F0B7
:1044F800D8901B321A3219321832E82E7CEF22F08B
:1045080020EE05F01650D9261750DA221850DE5E34
:104518001950DE5A1A50DE5A1B50DE5A20EE03F0AC
:104528001650D9261750DA22DECF18F0DDCF19F051
:1045380020EE05F01650D9261750DA221850DE263C
:104548001950DE22000EDE22DE22F28EEAEF22F081
:1045580020EE05F01650D9261750DA22DECF18F0D3
:10456800DECF19F0DECF1AF0DECF1BF0050EC2EF5A
:1045780022F0D8901B321A3219321832E82EBDEFC9
:1045880022F020EE05F01650D9261750DA221850DE
:10459800DE5E1950DE5A1A50DE5A1B50DE5A20EEE3
:1045A80003F01650D9261750DA22DECF18F0DDCFE7
:1045B80019F020EE05F01650D9261750DA221850B7
:1045C800DE261950DE22000EDE22DE2212001F6ACD
:1045D8001DBEF3EF22F0F1EF22F0FDEF22F01D1ED9
:1045E8001C1E1B1E1A6C000E1B221C221D22010EF3
:1045F8001F6E19BE04EF23F002EF23F00EEF23F035
:10460800191E181E171E166C000E172218221922C2
:10461800010E1F1A000E206E000E216E000E226E73
:10462800000E236E1A501B101C101D10D8B41FEF5B
:1046380023F021EF23F057EF23F0010E1E6E2BEF2E
:1046480023F0D8901A361B361C361D361E2A1DAE8E
:1046580030EF23F032EF23F025EF23F0D890203607
:104668002136223623361A50165C1B5017581C5018
:1046780018581D501958D8A044EF23F046EF23F0DE
:104688004FEF23F01A50165E1B50175A1C50185A39
:104698001D50195A2080D8901D321C321B321A32F4
:1046A8001E2E32EF23F01F50D8B45DEF23F05FEFDA
:1046B80023F067EF23F0231E221E211E206C000E1C
:1046C80021222222232220C016F021C017F022C066
:1046D80018F023C019F012000001983599359F6F22
:1046E8009F51D8A47AEF23F07CEF23F086EF23F0D4
:1046F800000E966F000E976F000E986F000E996F60
:10470800F3EF23F096C09AF097C09BF098C09CF006
:1047180099C09DF0200E96EF23F0D8909D339C33DE
:104728009B339A33E82E91EF23F09A519E6F988F1E
:10473800FF0E9617FF0E9717FF0E9817000E991782
:10474800960E9F5F9FBFADEF23F0ABEF23F0C3EF53
:1047580023F09F51800A970FD8B0B5EF23F0B7EF39
:1047680023F0B9EF23F07CEF23F0D89099339833F6
:10477800973396339F3FB9EF23F0DBEF23F01F0EFB
:104788009F65C9EF23F0CBEF23F0D3EF23F07CEF45
:1047980023F0D89096379737983799379F079F51C6
:1047A800D8A4D9EF23F0DBEF23F0CDEF23F09E510F
:1047B800D8B4E1EF23F0E3EF23F0EBEF23F0991FF8
:1047C800981F971F966D000E97239823992396C0DC
:1047D80096F097C097F098C098F099C099F0120099
:1047E800000E000196159E6F000E97159F6F800EA4
:1047F8009815A06F7F0E9915A16F9E519F11A0115A
:10480800A111D8A40AEF24F00CEF24F014EF24F03F
:10481800000E966F000E976F000E986F000E996F3E
:10482800000E9A159E6F000E9B159F6F800E9C15AB
:10483800A06F7F0E9D15A16F9E519F11A011A11110
:10484800D8A429EF24F02BEF24F033EF24F0000E46
:104858009A6F000E9B6F000E9C6F000E9D6F99AFB4
:1048680038EF24F03AEF24F043EF24F0966D971FC9
:10487800D8B0972B981FD8B0982B800E99579DAF1A
:1048880048EF24F04AEF24F053EF24F09A6D9B1F71
:10489800D8B09B2B9C1FD8B09C2B800E9D57000E28
:1048A800961B000E971B000E981B800E991B000E7E
:1048B8009A1B000E9B1B000E9C1B800E9D1B9A5181
:1048C800965D9B5197599C5198599D519959D8B0CB
:1048D80070EF24F072EF24F075EF24F0D89076EFA3
:1048E80024F0D8801200000E026E4B5077EC32F0A4
:1048F8000001FD51D8B483EF24F085EF24F088EF50
:1049080024F0609EF5EF24F0609E4B50090DCD0E0B
:10491800F3240E6E010EF4200F6E0EC002F00FC0CD
:1049280003F0DBEC34F00009D8A49DEF24F09FEFEE
:1049380024F0A7EF24F00EC002F00FC003F0FAEC49
:1049480034F0ADEF24F00EC002F00FC003F0CAEC53
:1049580035F04B50020D8F0EF324D96E010EF42062
:10496800DA6EDECF0CF0DDCF0DF072500C5C026E0B
:1049780073500D58036E19EC33F0035009E1650EBE
:10498800025CD8A0CAEF24F0CCEF24F0D7EF24F0D3
:104998004B50090DD50EF324D96E010EF420DA6EB2
:1049A800DF84E0EF24F04B50090DD50EF324D96EC7
:1049B800010EF420DA6EDF9401019851D8A4E7EFD4
:1049C80024F0E9EF24F0F5EF24F04B50020D8F0EA0
:1049D800F324D96E010EF420DA6E72CFDEFF73CFA6
:1049E800DDFF71EC1EF0120020EE07F01650D926FC
:1049F8001750DA22DF9020EE07F01650D92617500C
:104A0800DA22DF9220EE07F01650D9261750DA2264
:104A1800DF9420EE07F01650D9261750DA22DF96D9
:104A280020EE07F01650D9261750DA22DF9820EE2C
:104A380007F01650D9261750DA22DF9A20EE08F030
:104A48001650D9261750DA22DF9020EE08F01650BB
:104A5800D9261750DA22DF9220EE08F01650D92610
:104A68001750DA22DF9620EE08F01650D926175094
:104A7800DA22DF9820EE08F01650D9261750DA22ED
:104A8800DF9A20EE08F01650D9261750DA22DF9C5C
:104A980016C0D9FF17C0DAFFDE6ADD6A20EE02F021
:104AA8001650D9261750DA22DF6A20EE03F0165086
:104AB800D9261750DA22DF6A20EE04F01650D926DC
:104AC8001750DA22DF6A20EE05F01650D926175063
:104AD800DA22DF6A20EE06F01650D9261750DA22BD
:104AE800DF6A120066C120F067C121F068C122F0B8
:104AF80069C123F016C020F017C021F018C022F0B9
:104B080019C023F020C01AF021C01BF022C01CF0ED
:104B180023C01DF0180E96EF25F0D8901D321C32D8
:104B28001B321A32E82E91EF25F01A501E6E1F6ABA
:104B38001E501F10D8A4A3EF25F0A5EF25F0C3EF52
:104B480025F0D89020341A6E21341B6E22341C6E46
:104B580023341D6E1A501B101C101D10D8A4B7EF5B
:104B680025F0B9EF25F0BEEF25F0176A020E166E94
:104B7800F1EF25F0176A030E166EF1EF25F01E28E7
:104B88001F10D8A4CAEF25F0CCEF25F0EEEF25F0E2
:104B980020C01AF021C01BF022C01CF023C01DF059
:104BA800090ED8901A361B361C361D36E82ED5EF5E
:104BB80025F01A501B101C101D10D8B4E6EF25F074
:104BC800E9EF25F0010EEAEF25F0000E166E176AE0
:104BD800F1EF25F0176A040E166E120036EC18F085
:104BE800000E93EC32F016C054F117C055F19C0E2C
:104BF800246E010E256E54C126F055C127F0A3EC92
:104C080008F001015651545D586F57515559596F65
:104C180058513D5C3E50800A0001A66F0101595170
:104C2800800A0001A659D8B01CEF26F01EEF26F026
:104C380061EF26F03B500101585D5951800A00018F
:104C4800A66F3C50800AA659D8B02DEF26F02FEF5A
:104C580026F061EF26F0640EFE03F3CFA6F0F4CF42
:104C6800A7F0FF03F350A72701015A510001A86FCD
:104C780001015B510001A96F01015A4B5B2B000137
:104C8800A651A85DA751A959D8A04DEF26F04FEF1E
:104C980026F066EF26F0640EFE03F3CFA6F0F4CFFD
:104CA800A7F0FF03F350A727A6C05AF1A7C05BF1EE
:104CB800010E0101956F66EF26F001015B6B000E96
:104CC8005A6F956B1200296E2950100DB40EF324FB
:104CD8002A6E010EF4202B6E20EE01F02A50D92600
:104CE8002B50DA22DF5070EC31F00009D8B47FEF96
:104CF80026F081EF26F0D7EF26F020EE01F02A50BB
:104D0800D9262B50DA22DF508EEC31F00009D8B4C6
:104D180090EF26F092EF26F0D7EF26F02AC01EF08B
:104D28002BC01FF065EC33F02AC016F02BC017F02B
:104D3800B6EC20F020EE02F02A50D9262B50DA22C9
:104D4800020EDF64AAEF26F0ACEF26F0B3EF26F0F0
:104D58002AC0D9FF2BC0DAFFDF5020EC2DF02AC083
:104D68001FF02BC020F020EE02F02A50D9262B503D
:104D7800DA22DF50266E2650020DD60EF324D96EA5
:104D8800010EF420DA6EDECF27F0DDCF28F002D84E
:104D9800D7EF26F00500FA6E2750FD6E2850FE6EFC
:104DA800FF6AFA501200120020EE0AF01F50D926AE
:104DB8002050DA22010EDB5007E1090EDE5CD8B084
:104DC800E8EF26F0EAEF26F0F2EF26F01FC019F020
:104DD80020C01AF01AEC2EF0F8EF26F01FC016F0DB
:104DE80020C017F063EC22F020EE0AF01F50D926FD
:104DF8002050DA22DE2A000EDD2220EE0AF01F50B3
:104E0800D9262050DA22010EDB5009E1100EDE5CB3
:104E1800D8A011EF27F013EF27F046EF27F020EE88
:104E280005F01F50D9262050DA22DECF21F0DECF40
:104E380022F0DECF23F0DECF24F0050E29EF27F095
:104E4800D8902432233222322132E82E24EF27F060
:104E580020EE03F01F50D9262050DA2221C0DEFFB1
:104E680022C0DDFF20EE02F01F50D9262050DA22A2
:104E7800010EDF6E20EE0AF01F50D9262050DA22EC
:104E8800DE6ADD6A120021502210D8A44EEF27F006
:104E980050EF27F063EF27F039C021F03AC022F035
:104EA80021502210D8A45BEF27F05DEF27F063EFC5
:104EB80027F0000E216E000E226EB4EF27F021C0FD
:104EC8001AF022C01BF023C01CF024C01DF054ECC3
:104ED8002DF01A5021261B50222221C0D9FF22C0B2
:104EE800DAFFDF50D8A47BEF27F07DEF27F087EFBC
:104EF80027F0000E396E000E3A6E39C021F03AC024
:104F080022F0B4EF27F021C01AF022C01BF023C012
:104F18001CF024C01DF086EC2DF01A502124396EA7
:104F28001B5022203A6E39C0D9FF3AC0DAFFDF5051
:104F3800D8B4A1EF27F0A3EF27F0ACEF27F039C0E2
:104F4800D9FF3AC0DAFFDF6A394A3A2AB0EF27F0C8
:104F5800000E396E000E3A6E21C021F022C022F0F8
:104F680012001A501B10D8B4BCEF27F0BEEF27F080
:104F7800C7EF27F01A501B10D8A4C5EF27F0C7EFCA
:104F880027F0CCEF27F01850E0EC35F019EF28F0B7
:104F980020EE09F01A50D9261B50DA22DE50DE1016
:104FA800D8B4D9EF27F0DBEF27F0F6EF27F020EEA3
:104FB80009F01A50D9261B50DA2210EE02F01A50C6
:104FC800E1261B50E222DE50E65CE650800A206EA5
:104FD800DE50800A2058D8B0F4EF27F0F6EF27F01B
:104FE80019EF28F020EE02F01A50D9261B50DA22C9
:104FF800DECF1CF0DDCF1DF01AC0D9FF1BC0DAFFD1
:10500800DECF1EF0DDCF1FF01C501E24D96E1D50C0
:105018001F20DA6E18C0DFFF20EE02F01A50D926E2
:105028001B50DA22DE2A000EDD22120020EE09F0E3
:105038001F50D9262050DA22DF50216E20EE0EF0C4
:105048001F50D9262050DA22DF50226E2250D880F5
:10505800D88421AE215CD8A0D884D8B436EF28F003
:1050680038EF28F052EF28F020EE02F01F50D92632
:105078002050DA22020EDF6E20EE0AF01F50D926E9
:105088002050DA22DE6ADD6A1FC0D9FF20C0DAFFAD
:10509800DF50166E3EEC36F05AEF28F020EE0AF09C
:1050A8001F50D9262050DA22DE6ADD6A20EE0CF085
:1050B8001F50D9262050DA22DE2A000EDD2220EEEB
:1050C8000CF01F50D9262050DA22800EDE18DE1090
:1050D800D8A471EF28F073EF28F07BEF28F020EECA
:1050E8000CF01F50D9262050DA22DE6ADD6A120041
:1050F80031EC35F0E806D8A484EF28F086EF28F0E4
:10510800C7EF28F0D2EC35F017500001F06FF051DE
:10511800E0EC35F0BBEF28F0500E01017B25D96E8D
:10512800020E7C21DA6EDF6A8AEC05F001017C6BE5
:10513800000E7B6FDBEF28F001017CBFAFEF28F09A
:105148007C5107E1500E7B5DD8B0ADEF28F0AFEF92
:1051580028F09AEF28F0500E7B25D96E020E7C219C
:10516800DA6EF0C0DFFF7B4B7C2BDBEF28F0000111
:10517800F0510A0AD8B4DBEF28F0070AD8B490EF48
:1051880028F0A0EF28F00101CCA3CDEF28F0CFEF55
:1051980028F0D1EF28F0F2EC25F00101CCADD7EFE3
:1051A80028F0D9EF28F0DBEF28F016EC16F0120003
:1051B8001B6A19BEE4EF28F0E2EF28F0EAEF28F0C6
:1051C800186C191ED8B0192A010E1B6E17BEF1EF04
:1051D80028F0EFEF28F0F7EF28F0166C171ED8B07C
:1051E800172A010E1B1A1D6A000E1C6E1850191082
:1051F800D8B401EF29F003EF29F02BEF29F0010EC5
:105208001A6E0BEF29F0D890183619361A2A19AEEB
:1052180010EF29F012EF29F007EF29F0D8901C368B
:105228001D361850165C19501758D8A01EEF29F0D3
:1052380020EF29F025EF29F01850165E1950175A5B
:105248001C80D890193218321A2E12EF29F01B50F0
:10525800D8B431EF29F033EF29F037EF29F01C6C7F
:105268001D1ED8B01D2A1CC016F01DC017F0120054
:10527800240E4524D96EDA6A010EDA22DF6A9DA46B
:1052880048EF29F04AEF29F05EEF29F0240E452473
:10529800D96EDA6A010EDA22DF8202D85EEF29F0CF
:1052A8000500FA6E0101F151FD6EF251FE6EFF6AC2
:1052B800FA5012009DA263EF29F065EF29F079EF0B
:1052C80029F0240E4524D96EDA6A010EDA22DF8429
:1052D80002D879EF29F00500FA6E0101EF51FD6E51
:1052E800F051FE6EFF6AFA501200240E4524D96E62
:1052F800DA6A010EDA22DF50D8B485EF29F087EF99
:1053080029F096EF29F002D894EF29F00500FA6EFB
:105318000101ED51FD6EEE51FE6EFF6AFA5012006A
:1053280098EF29F017EC34F0120020EE02F0195033
:10533800D9261A50DA22DF50D8B4A5EF29F0A7EF02
:1053480029F0E0EF29F020EE03F01950D9261A5081
:10535800DA22DECF1BF0DDCF1CF0040E1D6ED890D4
:105368001C321B321D2EB3EF29F020EE03F019502A
:10537800D9261A50DA221B50DE5E1C50DD5A20EE68
:1053880001F01950D9261A50DA22DF50E4EC32F035
:10539800040E1B6ED890173216321B2ECEEF29F052
:1053A80020EE03F01950D9261A50DA221650DE26BC
:1053B8001750DD22F3EF29F020EE01F01950D9261D
:1053C8001A50DA22DF50E4EC32F020EE03F01950E4
:1053D800D9261A50DA2216C0DEFF17C0DDFF1200E8
:1053E8001B6A17BEFCEF29F0FAEF29F002EF2AF04A
:1053F800166C171ED8B0172A010E1B6E19BE09EFBE
:105408002AF007EF2AF00DEF2AF0186C191ED8B011
:10541800192A18501910D8B414EF2AF016EF2AF0E8
:105428003AEF2AF0010E1A6E1EEF2AF0D8901836BD
:1054380019361A2A19AE23EF2AF025EF2AF01AEFA7
:105448002AF01850165C19501758D8A02EEF2AF0D9
:1054580030EF2AF034EF2AF01850165E1950175A18
:10546800D890193218321A2E25EF2AF01B50D8B4CA
:1054780040EF2AF042EF2AF046EF2AF0166C171E8A
:10548800D8B0172A16C016F017C017F01200000E71
:1054980016141E6E000E17141F6E800E1814206E40
:1054A8007F0E1914216E1E501F1020102110D8A431
:1054B80060EF2AF062EF2AF06AEF2AF0000E166E0B
:1054C800000E176E000E186E000E196E000E1A14DC
:1054D8001E6E000E1B141F6E800E1C14206E7F0E95
:1054E8001D14216E1E501F1020102110D8A47FEF0C
:1054F8002AF081EF2AF089EF2AF0000E1A6E000ECA
:105508001B6E000E1C6E000E1D6E1A5016180FE151
:105518001B5017180CE11C50181809E11D501918D8
:10552800D8B499EF2AF09BEF2AF09EEF2AF0D89092
:105538009FEF2AF0D8801200736D7200736D6200BD
:10554800736D6400736D7400736D7000736D61002A
:105558007372720073726200737264006D74730008
:1055680073727000736E72007378720061647200F7
:1055780061646D0074687200736F7200736F7700F6
:1055880065657200656577006565640065656C0032
:10559800656573007468770072656E0072657200E5
:1055A8007465720074656D00736E770073787700A8
:1055B80072657700617463007366620077727300C6
:1055C80077726900737362007264740073647400A4
:1055D800726263007362630020EE0EF01F50D926DA
:1055E8002050DA22DF50216ED890213220EE0EF0C2
:1055F8001F50D9262050DA22DF50226E2150225C1B
:10560800236E20EE09F01F50D9262050DA22DE50F2
:10561800800A256E2350800A255CD8B016EF2BF03F
:1056280018EF2BF03AEF2BF020EE02F01F50D9269E
:105638002050DA22010EDF6E20EE0AF01F50D92624
:105648002050DA22DE6ADD6A20EE0CF01F50D926DF
:105658002050DA22FF0EDE6EFB0EDD6E1FC0D9FF72
:1056680020C0DAFFDF50166E3EEC36F01200400E16
:10567800F66E550EF76E000EF86E03EE00F010EEA3
:10568800A0F00900F5CFEEFFE550E150FAE1F60E83
:10569800F66E6A0EF76E000EF86E01EED6F010EE9A
:1056A80013F00900F5CFEEFFE550E150FAE1760E70
:1056B800F66E6C0EF76E000EF86E0900F5CFFEF070
:1056C8000900F5CFFFF002EE00F0B80EEE6AE8062A
:1056D800FDE101EE00F0D60EEE6AE806FDE100EE0F
:1056E800F1F00D0EEE6AE806FDE100EE39F0130E5A
:1056F800EE6AE806FDE101900192000134EF19F02D
:105708000001EF6B000EEE6FB8EF2BF03F0E0101BA
:10571800F96FFF0EFA6F0001EE510201B825010181
:10572800FB6F0001EF510201B9210101FC6F00017B
:10573800EE510201B825166E0001EF510201B921A0
:10574800176E25EC35F0386E38500101FD6FFE6B91
:1057580077EC34F0090E0101F96FFF0EFA6F77EC60
:1057680034F00001EE4BEF2B0201BA510001EE5D5F
:10577800EF51800A386E0201BB51800A3858D8A010
:10578800C8EF2BF0CAEF2BF08AEF2BF01200D9EC00
:1057980033F01EC026F01FC027F027BEDBEF2BF02A
:1057A800080E275CD8A0DBEF2BF0DDEF2BF0E3EF42
:1057B8002BF0000E2624266EF00E2720276E26C01A
:1057C80023F027C024F0040E256E2434243223321B
:1057D800252EE9EF2BF023C083F124C084F10A0EB3
:1057E8002602F3CF23F0F4CF24F02702F350242627
:1057F800040E256E243424322332252EFEEF2BF09E
:1058080023C081F124C082F112000001FB51D8A409
:1058180010EF2CF012EF2CF021EF2CF058C11CF0F7
:1058280059C11DF0FFEC32F01C500001F55DF36F1B
:105838001D50F659F46F2CEF2CF058C11CF059C1CB
:105848001DF0FFEC32F01C500001F35F1D50F45BBB
:10585800FB2B0101936B176A110E166EFBC018F033
:105868008CEC30F0176A120E166E0001F451186EA7
:105878008CEC30F0176A130E166EF3C018F08CEC2F
:1058880030F01200236A000E226E1EC016F01FC0F0
:1058980017F022C020F023C021F0D89020362136FE
:1058A800D89020362136000E2024186E030E2120B1
:1058B800196EB8EC2DF016501710D8B466EF2CF00E
:1058C80068EF2CF06EEF2CF022C01EF023C01FF002
:1058D80080EF2CF0224A232A23BE7CEF2CF02350A1
:1058E80009E1280E225CD8A07CEF2CF07EEF2CF08A
:1058F80049EF2CF01E681F6812000E01C59B780E38
:10590800166E520E176EEFEC35F00E01C599640E47
:10591800166E620E176EEAEC35F0080E9F6E900E4A
:105928009D6E240E9E6E220E9B6E9C6A820E166ED3
:105938006C0E176EF9EC35F0620E166E6C0E176E63
:10594800F4EC35F0680E166E6C0E176EFEEC35F042
:105958000101966B486A476A100E466E456A446AAA
:10596800436A0E01C58B12002DBEBFEF2CF0BDEFB0
:105978002CF0C2EF2CF02D6A000E2C6E306A000E4F
:105988002F6ED2EF2CF0196A200E186E28C01AF06C
:1059980029C01BF0B5EC27F02F4A302A2C502F5C79
:1059A8003050800A2E6E2D50800A2E58D8A0DFEF76
:1059B8002CF0E1EF2CF0C7EF2CF02AC021F02BC01F
:1059C80022F028C023F029C024F0D0EC30F01200D7
:1059D80018C01FF019C020F016C01DF017C01EF027
:1059E80012EF2DF01FC0F6FF20C0F7FF000EF86E73
:1059F8000E0EF76403D00800F55005D0F6CFE9FF86
:105A0800F7CFEAFFEF501C6E1F4A202A1DC0D9FFAE
:105A18001EC0DAFF1CC0DFFF1D4A1E2A1A06D8A0C6
:105A28001B061A2806E11B28D8A41DEF2DF01FEF2E
:105A38002DF0F6EF2CF01200176E1750100DB40E63
:105A4800F324186E010EF420196E20EE02F018509F
:105A5800D9261950DA22DF6A20EE05F01850D92627
:105A68001950DA22DE6ADE6ADE6ADD6A20EE0AF0A2
:105A78001850D9261950DA22DE6ADD6A20EE0CF0B9
:105A88001850D9261950DA22DE6ADD6A20EE01F0B4
:105A98001850D9261950DA22DF5064EC34F012007D
:105AA800206A000E1F6E5DEF2DF01A4A1B2A1F4A4E
:105AB800202A1AC0D9FF1BC0DAFFDF50D8B467EF1D
:105AC8002DF069EF2DF081EF2DF01CC016F01DC0F0
:105AD80017F01AC0D9FF1BC0DAFFDF501E6E1E5028
