:0400000095EF00F088
:100008000182FACF10F0FBCF11F0D9CF12F0DACF7E
:1000180013F0F3CF14F0F4CF15F00E01C2AB17EFC5
:1000280000F019EF00F024EF00F0CAAB1EEF00F06B
:1000380020EF00F024EF00F0D0EC35F087EF00F06F
:10004800F2AC29EF00F02BEF00F087EF00F0C5A924
:1000580030EF00F032EF00F048EF00F0CDA937EFB5
:1000680000F039EF00F048EF00F002D846EF00F05A
:100078000500FA6E0101F951FD6EFA51FE6EFF6A34
:10008800FA50120087EF00F0C5AB4DEF00F04FEFCC
:1000980000F065EF00F0CDAB54EF00F056EF00F044
:1000A80065EF00F002D863EF00F00500FA6E010179
:1000B800F751FD6EF851FE6EFF6AFA50120087EF95
:1000C80000F0C3A36AEF00F06CEF00F077EF00F0E8
:1000D800CBA371EF00F073EF00F077EF00F072EC54
:1000E80033F087EF00F0C6A17CEF00F07EEF00F060
:1000F80087EF00F0CEA183EF00F085EF00F087EFE7
:1001080000F078EC35F015C0F4FF14C0F3FF13C00D
:10011800DAFF12C0D9FF11C0FBFF10C0FAFF01922D
:10012800110061EF2BF00001CC6BA4C0CDF0A5C08D
:10013800CEF0A6C0CFF0A7C0D0F0D0BFA8EF00F097
:10014800A6EF00F0BCEF00F0010ECC6FCDC016F0AA
:10015800CEC017F0CFC018F0D0C019F065EC32F05F
:1001680016C0CDF017C0CEF018C0CFF019C0D0F02F
:100178000001D26B000ED16F6DC1BCF06EC1BDF035
:10018800CC51D8B4CAEF00F0CCEF00F0DEEF00F0AD
:10019800CC51D8A4D2EF00F0D4EF00F0D9EF00F0A2
:1001A800B26B2B0EB16FDCEF00F0B26B2D0EB16F9E
:1001B800B1C0CCF0CDC016F0CEC017F0CFC018F04B
:1001C800D0C019F09CEC25F016041710D8A4EFEF56
:1001D80000F0F1EF00F023EF01F00001CC51D8B4AA
:1001E800F8EF00F0FAEF00F002EF01F0CCC000F2F7
:1001F800BC07D8A0BD07D26B010ED16F000ED12568
:10020800166E020ED221176EF60E186EFF0E196EBC
:100218000EEC32F00001FD0EBC27FF0EBD23A2C07C
:1002280028F0A3C029F0000E2A6E020E2B6EBCC067
:100238002CF0BDC02DF0DEEC2CF089EF05F0CDC020
:1002480016F0CEC017F0CFC018F0D0C019F09CEC53
:1002580025F016501710D8A434EF01F036EF01F04E
:1002680055EF01F00001CC51D8B43DEF01F03FEF5C
:1002780001F047EF01F0CCC000F2BC07D8A0BD07E1
:10028800D26B010ED16F000ED125166E020ED2214F
:10029800176EFA0E186EFF0E196E0EEC32F00EEF96
:1002A80001F0000E0001D36F000ED46F800ED56FE1
:1002B8003F0ED66FBB6B000EBA6FCDC016F0CEC026
:1002C80017F0CFC018F0D0C019F0000E1A6E000E4B
:1002D8001B6E000E1C6E000E1D6E71EC2AF0D8B05D
:1002E80078EF01F07AEF01F05BEF02F087EF01F0B1
:1002F800BEC0D3F0BFC0D4F0C0C0D5F0C1C0D6F0E6
:100308000001BA4BBB2BD3C07DF0D4C07EF0D5C062
:100318007FF0D6C080F0000E0001816F000E826F62
:10032800200E836F410E846F60EC0DF07DC0BEF02F
:100338007EC0BFF07FC0C0F080C0C1F00001BE51D8
:10034800CD5D166EBF51CE59176EC051CF59186E7C
:10035800C151D059196E1FEC2FF019BEBFEF01F033
:1003680019501810171009E1020E165CD8A0BFEF3B
:1003780001F0C1EF01F07CEF01F0BEC096F0BFC004
:1003880097F0C0C098F0C1C099F0CDC09AF0CEC027
:100398009BF0CFC09CF0D0C09DF01AEC24F0000177
:1003A800D8A0D9EF01F0DBEF01F07CEF01F0D351D9
:1003B800CD5D166ED451CE59176ED551CF59186EE2
:1003C800D651D059196E1FEC2FF019BEF9EF01F074
:1003D80019501810171007E1020E165CD8B0F7EF85
:1003E80001F0F9EF01F041EF02F0D3C0CDF0D4C035
:1003F800CEF0D5C0CFF0D6C0D0F05BEF02F0D3C0BE
:1004080060F0D4C061F0D5C062F0D6C063F0000ED1
:10041800646F000E656F200E666F410E676F74EC97
:100428000FF060C0D3F061C0D4F062C0D5F063C0F3
:10043800D6F00001BA07D8A0BB07D351CD5D166E20
:10044800D451CE59176ED551CF59186ED651D059AF
:10045800196E1FEC2FF019BE3FEF02F0195018105B
:10046800171007E1020E165CD8B03DEF02F03FEF1F
:1004780002F041EF02F0F9EF01F0CDC096F0CEC0E6
:1004880097F0CFC098F0D0C099F0D3C09AF0D4C0FC
:100498009BF0D5C09CF0D6C09DF01AEC24F000016A
:1004A800D8A059EF02F05BEF02F003EF02F0A8C00A
:1004B800B4F0B4C0B5F0010170BF65EF02F067EFAA
:1004C80002F06DEF02F06FC1ADF070C1AEF071EFE8
:1004D80002F00001AE6B060EAD6FADC0B8F0AEC055
:1004E800B9F00001B84BB92B660EB519D8A47FEF47
:1004F80002F081EF02F0A0EF02F0BBBF88EF02F03C
:1005080086EF02F093EF02F0000ED36F000ED46F67
:10051800800ED56F3F0ED66FBB6B000EBA6F670E9D
:10052800B419D8B49AEF02F09CEF02F0A0EF02F0F1
:10053800BA51B827BB51B923C36B000EC26FCDC0E7
:10054800C4F0CEC0C5F0CFC0C6F0D0C0C7F0D3C08D
:10055800BEF0D4C0BFF0D5C0C0F0D6C0C1F031EFF6
:1005680003F0C4C060F0C5C061F0C6C062F0C7C087
:1005780063F0D3C064F0D4C065F0D5C066F0D6C0CF
:1005880067F074EC0FF060C075F061C076F062C07F
:1005980077F063C078F045EC18F075C0C8F076C005
:1005A800C9F077C0CAF078C0CBF0C8C096F0C9C00F
:1005B80097F0CAC098F0CBC099F096EC23F096C09B
:1005C800B6F097C0B7F0C4C075F0C5C076F0C6C025
:1005D80077F0C7C078F0C8C081F0C9C082F0CAC03F
:1005E80083F0CBC084F0D3C07DF0D4C07EF0D5C0FA
:1005F8007FF0D6C080F060EC0DF07DC079F07EC051
:100608007AF07FC07BF080C07CF08EEC30F075C053
:10061800C4F076C0C5F077C0C6F078C0C7F0D3C0C4
:1006280060F0D4C061F0D5C062F0D6C063F0000EAF
:100638000001646F000E656F200E666F410E676FD4
:1006480074EC0FF060C0D3F061C0D4F062C0D5F094
:1006580063C0D6F00001C24BC32BB851C25DC35171
:10066800800AA96FB951800AA959D8A03EEF03F0B2
:1006780040EF03F0B5EF02F0D3C07DF0D4C07EF0B8
:10068800D5C07FF0D6C080F0000E816F000E826F5B
:10069800A00E836F400E846F60EC0DF07DC0C8F033
:1006A8007EC0C9F07FC0CAF080C0CBF0C4C096F04D
:1006B800C5C097F0C6C098F0C7C099F0C8C09AF0F6
:1006C800C9C09BF0CAC09CF0CBC09DF01AEC24F0C6
:1006D8000001D8B072EF03F074EF03F07EEF03F07F
:1006E800000EC86F000EC96F000ECA6F000ECB6FE8
:1006F800A7EF03F0C4C016F0C5C017F0C6C018F0C5
:10070800C7C019F0C8C01AF0C9C01BF0CAC01CF095
:10071800CBC01DF071EC2AF0D8A095EF03F097EF4D
:1007280003F0A7EF03F00001B6B19DEF03F09FEFD0
:1007380003F0A7EF03F0000EC86F000EC96F000E9C
:10074800CA6F000ECB6FCDC024F0CEC025F0CFC04D
:1007580026F0D0C027F0C8C028F0C9C029F0CAC008
:100768002AF0CBC02BF005EC0BF024C0C4F025C058
:10077800C5F026C0C6F027C0C7F0C4C096F0C5C0F3
:1007880097F0C6C098F0C7C099F0000E0001816FBD
:10079800000E826F200E836F410E846FBEC07DF005
:1007A800BFC07EF0C0C07FF0C1C080F060EC0DF02B
:1007B8007DC09AF07EC09BF07FC09CF080C09DF009
:1007C8001AEC24F00001D8A0ECEF03F0EEEF03F0F0
:1007D80016EF04F0BA4BBB2BBEC07DF0BFC07EF055
:1007E800C0C07FF0C1C080F0000E816F000E826F24
:1007F800200E836F410E846F60EC0DF07DC0BEF05B
:100808007EC0BFF07FC0C0F080C0C1F0660E00019E
:10081800B519D8A412EF04F014EF04F016EF04F0A1
:10082800B84BB92BBEC0D3F0BFC0D4F0C0C0D5F010
:10083800C1C0D6F0BAC0ABF0BBC0ACF0B36BB06B04
:10084800000EAF6FC36B000EC26F10EF05F0C4C08F
:1008580060F0C5C061F0C6C062F0C7C063F0D3C025
:1008680064F0D4C065F0D5C066F0D6C067F074EC0B
:100878000FF060C075F061C076F062C077F063C0B9
:1008880078F045EC18F075C0C8F076C0C9F077C0AC
:10089800CAF078C0CBF0C8C096F0C9C097F0CAC0FB
:1008A80098F0CBC099F096EC23F0000197BF68EF61
:1008B80004F0975107E10A0E965DD8B066EF04F090
:1008C80068EF04F078EF04F0C8C096F0C9C097F05C
:1008D800CAC098F0CBC099F096EC23F096C0B6F059
:1008E80097C0B7F07BEF04F0B76B090EB66F000145
:1008F800B351D8A482EF04F084EF04F0ACEF04F015
:10090800ACBF8BEF04F089EF04F0ACEF04F0000EFD
:10091800D125D96E020ED221DA6E2E0EDF6ED14BA2
:10092800D22BBC07D8A0BD07010EB36FACEF04F003
:10093800000ED125D96E020ED221DA6E300EDF6E8E
:10094800D14BD22BBC07D8A0BD07AF07D8A0B007A2
:10095800AF51B011D8A4B3EF04F0B5EF04F09CEF99
:1009680004F0000ED125D96E020ED221DA6EB651EE
:10097800300FDF6ED14BD22BBC07D8A0BD07C4C047
:1009880075F0C5C076F0C6C077F0C7C078F0C8C0AB
:1009980081F0C9C082F0CAC083F0CBC084F0D3C054
:1009A8007DF0D4C07EF0D5C07FF0D6C080F060EC7A
:1009B8000DF07DC079F07EC07AF07FC07BF080C0FA
:1009C8007CF08EEC30F075C0C4F076C0C5F077C00E
:1009D800C6F078C0C7F0D3C060F0D4C061F0D5C00D
:1009E80062F0D6C063F0000E0001646F000E656F00
:1009F800200E666F410E676F74EC0FF060C0D3F085
:100A080061C0D4F062C0D5F063C0D6F00001AB0776
:100A1800D8A0AC07C24BC32BB851C25DC351800AE2
:100A2800A96FB951800AA959D8B01DEF05F01FEF79
:100A380005F02DEF05F0D2BF2BEF05F0D25109E1FB
:100A48004B0ED15DD8A02BEF05F02DEF05F02BEF65
:100A580004F0C36B4F0EC26F000EC225D96E020E92
:100A6800C321DA6EDF6A000EA96F020EAA6FD15198
:100A7800A95FD251AA5BC251A925166EC351AA21FA
:100A8800176E000E186E020E196ED1C01AF0D2C081
:100A98001BF012EC2DF00001D151C25DD16FD25183
:100AA800C359D26FCC51D8A45CEF05F05FEF05F0C5
:100AB800010E60EF05F0000EC26FC36BCC51D8B4C5
:100AC80068EF05F06AEF05F075EF05F0D107D8A0DB
:100AD800D207000ED125D96E020ED221DA6ECCC013
:100AE800DFFFC251BC5FC351BD5BA2C028F0A3C0E9
:100AF80029F0000ED1252A6E020ED2212B6EBCC021
:100B08002CF0BDC02DF0DEEC2CF01200500E256E3E
:100B1800020E266ECA0E276E020E286EC80E296EA9
:100B2800020E2A6EFEEC21F025C0C6F226C0C7F2DE
:100B38000201C62906E1C729D8A4A5EF05F0A7EF49
:100B480005F0E5EF07F093EF08F00001F98193EF66
:100B580008F00001F98393EF08F00001F98593EF9D
:100B680008F00001F98993EF08F00001F98B93EF81
:100B780008F00001FA8193EF08F0600EB86FFF0EDD
:100B8800B96F54C1BAF255C1BBF29DEC34F093EF82
:100B980008F0480EB86FFF0EB96FF5C0BAF2F6C08C
:100BA800BBF29DEC34F0A00E0201B86FFF0EB96FD6
:100BB800F7C0BAF2F8C0BBF29DEC34F093EF08F03E
:100BC800B00EB86FFF0EB96F58C1BAF259C1BBF277
:100BD8009DEC34F093EF08F00001FA6B000EF96F0A
:100BE80093EF08F0680EB86FFF0EB96F87C1BAF2BD
:100BF80088C1BBF29DEC34F093EF08F0900EB86F0B
:100C0800FF0EB96F3DC0BAF23EC0BBF29DEC34F0A6
:100C180093EF08F0880EB86FFF0EB96F3BC0BAF2B9
:100C28003CC0BBF29DEC34F093EF08F0780EB86F3F
:100C3800FF0EB96FBB6B000EBA6F9DEC34F093EFEB
:100C480008F00001F98D93EF08F0800EB86FFF0EE1
:100C5800B96F176A020E166E4BEC35F00201C26FBF
:100C6800C251C46FC36B176A030E166E4BEC35F096
:100C78000201C56FC551C311BA6FC451BB6F9DEC5A
:100C880034F093EF08F0580EB86FFF0EB96F3FC0FD
:100C9800BAF240C0BBF29DEC34F093EF08F0CAC240
:100CA8003FF0CBC240F0176A080E166E4050186E1F
:100CB800B2EC30F0176A090E166E3FC018F0B2ECAD
:100CC80030F093EF08F0180EB86FFF0EB96FCAC274
:100CD800BAF2CBC2BBF2CAC216F0CBC217F04BECC9
:100CE80035F00201C26FC251BC6FBD6B9DEC34F090
:100CF80093EF08F0CAC216F0CBC217F0C8C218F0BA
:100D0800B2EC30F00C0E0201B86FFF0EB96FCAC218
:100D1800BAF2CBC2BBF2C8C2BCF2C9C2BDF29DECEA
:100D280034F093EF08F0CAC2FBF1CBC2FCF1C8C2A1
:100D3800FDF1C9C2FEF1AAEC2BF093EF08F03CECF0
:100D480011F093EF08F09CEC14F093EF08F0CAC28E
:100D58007DF1CBC27EF1176A020E166E01017E513B
:100D6800186EB2EC30F0176A030E166E7DC118F0DB
:100D7800B2EC30F093EF08F0CAC2FCF0176A0E0E1E
:100D8800166EFCC018F0B2EC30F093EF08F02D0EA0
:100D9800B86FFF0EB96FF3C0BAF2F4C0BBF29DECA6
:100DA80034F0230E0201B86FFF0EB96FFCC0BAF21F
:100DB800BB6B9DEC34F093EF08F0700EB86FFF0E2C
:100DC800B96F83C1BAF284C1BBF29DEC34F093EFE2
:100DD80008F00001F98F93EF08F0CAC23DF0CBC2CA
:100DE8003EF0176A040E166E3E50186EB2EC30F0E4
:100DF800176A050E166E3DC018F0B2EC30F093EF8E
:100E080008F0CAC23BF0CBC23CF0176A060E166E59
:100E18003C50186EB2EC30F0176A070E166E3BC0E5
:100E280018F0B2EC30F093EF08F0CAC2F3F0CBC27E
:100E3800F4F0176A120E166E0001F451186EB2EC37
:100E480030F0176A130E166EF3C018F0B2EC30F0DB
:100E580093EF08F04AEC36F00101E26B030EE16F04
:100E6800A50E0201B86FFE0EB96F9DEC34F093EF3A
:100E780008F0010E0101946F8E0E0201B86FFE0E8C
:100E8800B96FFBC0BAF2BB6B9DEC34F093EF08F07E
:100E98000101946B766B000E756F0001FB6BF46BB0
:100EA800000EF36F01017A6B000E796F886B000EEC
:100EB800876F176A110E166EFBC018F0B2EC30F08F
:100EC800176A120E166E0001F451186EB2EC30F06B
:100ED800176A130E166EF3C018F0B2EC30F0D10E8C
:100EE8000201B86FFE0EB96F9DEC34F093EF08F075
:100EF800CAC2F5F0CBC2F6F0C8C2F7F0C9C2F8F022
:100F0800176A0A0E166E0001F851186EB2EC30F02E
:100F1800176A0B0E166EF7C018F0B2EC30F0176AAD
:100F28000C0E166E0001F651186EB2EC30F0176A0E
:100F38000D0E166EF5C018F0B2EC30F093EF08F015
:100F4800980EB86FFF0EB96FFEC0BAF2FFC0BBF2C1
:100F58009DEC34F093EF08F0CAC2FEF0CBC2FFF06C
:100F6800176A140E166E0001FF51186EB2EC30F0BD
:100F7800176A150E166EFEC018F0B2EC30F0500E5F
:100F88000201B86FFF0EB96FF1C0BAF2F2C0BBF23E
:100F98009DEC34F093EF08F0CAC2F1F0CBC2F2F046
:100FA800176A160E166E0001F251186EB2EC30F088
:100FB800176A170E166EF1C018F0B2EC30F093EF06
:100FC80008F0C6C2C2F2C7C2C3F2C351000AD8B4FD
:100FD800F0EF07F093EF08F0C251000AD8B4A9EF78
:100FE80005F0010AD8B4ADEF05F0030AD8B4B1EFA3
:100FF80005F0010AD8B4B5EF05F0070AD8B4B9EF7F
:1010080005F0010AD8B4BDEF05F0030AD8B4C1EF62
:1010180005F0010AD8B4CDEF05F00F0AD8B4E4EF13
:1010280005F0010AD8B4F0EF05F0030AD8B4F6EFDA
:1010380005F0010AD8B402EF06F0070AD8B40EEF9B
:1010480006F0010AD8B41AEF06F0030AD8B425EF5F
:1010580006F0010AD8B429EF06F01F0AD8B447EF02
:1010680006F0010AD8B453EF06F0030AD8B467EFC4
:1010780006F0010AD8B47EEF06F0070AD8B497EF55
:1010880006F0010AD8B4A3EF06F0030AD8B4A7EF14
:1010980006F0010AD8B4ABEF06F00F0AD8B4C0EFD7
:1010A80006F0010AD8B4CBEF06F0030AD8B4E1EF92
:1010B80006F0010AD8B4EDEF06F0070AD8B4F1EF4C
:1010C80006F0010AD8B405EF07F0030AD8B419EFFF
:1010D80007F0010AD8B42EEF07F03F0AD8B493EF0F
:1010E80008F0010AD8B43DEF07F0030AD8B44CEF72
:1010F80007F0010AD8B47CEF07F0070AD8B4A4EFC8
:1011080007F0010AD8B4B0EF07F0030AD8B4C3EF68
:1011180007F0010AD8B4D0EF07F093EF08F01200F7
:1011280024C0D9FF25C0DAFF26C0DEFF27C0DDFFB7
:1011380020EE06F02450D9262550DA22DE2A000EA9
:10114800DD2220EE06F02450D9262550DA22010EA1
:10115800DBBEB9EF08F0010EDB5009E1050EDE5CDD
:10116800D8A0B9EF08F0BBEF08F0C5EF08F020EE03
:1011780006F02450D9262550DA22050EDE6E000E20
:10118800DD6E20EE02F02450D9262550DA22DE6AE0
:10119800DE6ADE6ADD6A20EE14F02450D926255076
:1011A800DA22FF0EDE6E7F0EDD6E20EE16F0245082
:1011B800D9262550DA22DE6ADD6A296A010E286EF0
:1011C80028C060F029C061F0D8900001603761370D
:1011D80060512424626F61512520636F0A0E6225D5
:1011E800D96E000E6321DA6E28C064F029C065F05C
:1011F800D8906437653764512424666F655125207B
:10120800676F080E6625E16E000E6721E26EDECF7D
:10121800E6FFDDCFE5FF20EE02F02450D926255069
:10122800DA22DECF60F0DECF61F0DECF62F0DECF13
:1012380063F028C064F029C065F0D890643765373A
:1012480064512424666F65512520676F0A0E662550
:10125800D96E000E6721DA6EDECF68F0DDCF69F057
:1012680068C06AF069C06BF0000E6BBFFF0E6C6F50
:101278006D6F60516A256E6F61516B216F6F62519E
:101288006C21706F63516D21716F20EE02F0245054
:10129800D9262550DA226EC0DEFF6FC0DEFF70C08F
:1012A800DEFF71C0DEFF20EE14F02450D926255051
:1012B800DA2228C062F029C063F0D8906237633719
:1012C80062512424646F63512520656F0A0E6425DA
:1012D800E16E000E6521E26EDE50E65CE650800AA3
:1012E800686FDE50800A6859D8B07DEF09F07FEF4B
:1012F80009F09CEF09F028C060F029C061F0D8908F
:101308006037613760512424626F61512520636F13
:101318000A0E6225D96E000E6321DA6E10EE14F003
:101328002450E1262550E222DECFE6FFDDCFE5FF9F
:1013380028C060F029C061F0D890603761376051EB
:101348002424626F61512520636F0A0E6225D96ECD
:10135800000E6321DA6E10EE16F02450E1262550B7
:10136800E222DE50E65CE650800A686FDE50800AB2
:101378006859D8B0C2EF09F0C4EF09F0E1EF09F0FD
:1013880028C060F029C061F0D8906037613760519B
:101398002424626F61512520636F0A0E6225D96E7D
:1013A800000E6321DA6E10EE16F02450E126255067
:1013B800E222DECFE6FFDDCFE5FF284A292A2950C1
:1013C80009E1050E285CD8A0ECEF09F0EEEF09F072
:1013D800E4EF08F024C0D9FF25C0DAFFDECF60F0C3
:1013E800DDCF61F020EE02F02450D9262550DA2214
:1013F8006051DE266151DE22000E61BFFF0EDE2243
:10140800DE2220EE06F02450D9262550DA22010EDD
:10141800DBBE19EF0AF0010EDB5009E1030EDE5CBA
:10142800D8A019EF0AF01BEF0AF034EF0AF020EE0B
:1014380014F02450D9262550DA22DECF60F0DDCF13
:1014480061F020EE02F02450D9262550DA226051AE
:10145800DE5E6151DE5A000E61BFFF0EDE5ADE5AB3
:1014680020EE06F02450D9262550DA22010EDBBEE4
:1014780048EF0AF0010EDB5009E1030EDE5CD8A04C
:1014880048EF0AF04AEF0AF063EF0AF020EE16F090
:101498002450D9262550DA22DECF60F0DDCF61F066
:1014A80020EE02F02450D9262550DA226051DE5E63
:1014B8006151DE5A000E61BFFF0EDE5ADE5A24C0AB
:1014C800D9FF25C0DAFF10EE12F02450E12625508E
:1014D800E222DECFE6FFDDCFE5FF20EE06F0245066
:1014E800D9262550DA22010EDBBE85EF0AF0010E5F
:1014F800DB5009E1050EDE5CD8A085EF0AF087EF26
:101508000AF0ABEF0AF020EE02F02450D92625505D
:10151800DA22DECF16F0DECF17F0DECF18F0DECFFE
:1015280019F0030E1A6E000E1B6E000E1C6E000ED4
:101538001D6E11EC23F020EE08F02450D92625501A
:10154800DA2216C0DEFF17C0DDFF04EF0BF020EE35
:1015580006F02450D9262550DA22010EDBBEBFEF53
:101568000AF0010EDB5009E1030EDE5CD8A0BFEFE4
:101578000AF0C1EF0AF0F6EF0AF020EE02F024506C
:10158800D9262550DA22DECF16F0DECF17F0DECFCF
:1015980018F0DECF19F020EE06F02450D926255099
:1015A800DA22DECF60F0DDCF61F0FE0E6025626FDB
:1015B800FF0E6121636F62C01AF063C01BF0000E5A
:1015C8001BBEFF0E1C6E1D6E11EC23F020EE08F002
:1015D8002450D9262550DA2216C0DEFF17C0DDFFB9
:1015E80004EF0BF024C0D9FF25C0DAFF10EE08F095
:1015F8002450E1262550E222DECFE6FFDDCFE5FFCD
:1016080012002750800B306E27502724326E26AEEA
:1016180010EF0BF012EF0BF013EF0BF0328032509B
:10162800D8B419EF0BF01BEF0BF02FEF0BF03228AB
:10163800D8A421EF0BF023EF0BF02BEF0BF0000EEB
:10164800246E000E256E000E266E000E276E268E66
:10165800276A37EF0BF0000E246E000E256E000E81
:10166800266E000E276E2B50800B316E30503118CD
:10167800D8B441EF0BF043EF0BF044EF0BF0308C94
:101688002B502B24316E2AAE4CEF0BF04EEF0BF0A3
:101698004FEF0BF031803150D8B455EF0BF057EFC6
:1016A8000BF06BEF0BF03128D8A45DEF0BF05FEF78
:1016B8000BF067EF0BF0000E286E000E296E000E7F
:1016C8002A6E000E2B6E2A8E2B6A73EF0BF0000E1B
:1016D800286E000E296E000E2A6E000E2B6E3250F8
:1016E800315CD8B07AEF0BF07CEF0BF0A3EF0BF086
:1016F80030AC81EF0BF083EF0BF085EF0BF0800E31
:10170800301A32C033F031C032F033C031F024C067
:1017180033F028C024F033C028F025C033F029C0A6
:1017280025F033C029F026C033F02AC026F033C094
:101738002AF027C033F02BC027F033C02BF0336AD0
:10174800325031C02CF02D6A2C5E000E2D5A2DBE61
:10175800B7EF0BF02D5009E11A0E2C5CD8A0B7EFAB
:101768000BF0B9EF0BF0F0EF0BF02450251026101A
:101778002710D8A4C2EF0BF0C5EF0BF0010EC6EF8F
:101788000BF0000E336E000E246E000E256E000E58
:10179800266E000E276E31C032F0F9EF0BF033A041
:1017A800D8EF0BF0DAEF0BF0E0EF0BF0D890333016
:1017B8000109336EE2EF0BF0D890333224A0E7EF43
:1017C8000BF0E9EF0BF0EAEF0BF0338E27342732FA
:1017D800263225322432322A3150325CD8A0F7EF33
:1017E8000BF0F9EF0BF0D3EF0BF030BCFEEF0BF082
:1017F80000EF0CF040EF0CF03250D8A406EF0CF0DC
:1018080008EF0CF012EF0CF0000E246E000E256E9F
:10181800000E266E000E276E5FEF0DF0285024266E
:10182800295025222A5026222B50272227A01FEF95
:101838000CF021EF0CF0CDEF0CF033A026EF0CF0FC
:1018480028EF0CF02EEF0CF0D89033300109336EEE
:1018580030EF0CF0D890333224A035EF0CF037EF8E
:101868000CF038EF0CF0338E27342732263225322D
:101878002432322ACDEF0CF02850245C2950255808
:101888002A5026582750800A2C6E2B50800A2C5834
:10189800D8B051EF0CF053EF0CF07EEF0CF0245061
:1018A800285C2C6E255029582D6E26502A582E6EED
:1018B80027502B582F6EFF0E2C24246EFF0E2D2040
:1018C800256EFF0E2E20266EFF0E2F20276E800E0F
:1018D800301A336C3350D8A474EF0CF076EF0CF058
:1018E80086EF0CF0010E2426000E25222622272240
:1018F80086EF0CF02850245E2950255A2A50265A83
:101908002B50275A2450251026102710D8A48FEFC3
:101918000CF091EF0CF0C6EF0CF03350D8A497EF11
:101928000CF099EF0CF0C6EF0CF0000E246E000ED0
:10193800256E000E266E000E276E5FEF0DF0D89014
:10194800243625362636273633AEADEF0CF0AFEF0A
:101958000CF0B0EF0CF0248033A0B5EF0CF0B7EF2B
:101968000CF0BBEF0CF0D8803336BDEF0CF0D890FC
:1019780033363250D8B4C3EF0CF0C5EF0CF0C6EFD5
:101988000CF0320626AECBEF0CF0CDEF0CF0A3EF47
:101998000CF0316A33AED3EF0CF0D5EF0CF0EDEF6D
:1019A8000CF033C02CF07F0E2C16D8B4DEEF0CF000
:1019B800E0EF0CF0E4EF0CF0010E316EEDEF0CF0FF
:1019C80024A0E9EF0CF0EBEF0CF0EDEF0CF0E0EFFA
:1019D8000CF03150D8B4F3EF0CF0F5EF0CF020EF29
:1019E8000DF0010E2426000E25222622272227A0EC
:1019F80000EF0DF002EF0DF020EF0DF024C02CF0F9
:101A080025C02DF026C02EF027C02FF02F342F32FE
:101A18002E322D322C322CC024F02DC025F02EC0B1
:101A280026F02FC027F03228D8B41DEF0DF01FEF95
:101A38000DF020EF0DF0322A3228D8B426EF0DF041
:101A480028EF0DF030EF0DF03250D8A42EEF0DF046
:101A580030EF0DF041EF0DF0000E246E000E256EF4
:101A6800000E266E000E276E3250D8A43EEF0DF001
:101A780040EF0DF041EF0DF0306A32A046EF0DF067
:101A880048EF0DF04BEF0DF0268E4CEF0DF0269E33
:101A9800D8903230276E30AE54EF0DF056EF0DF07F
:101AA80057EF0DF0278E24C024F025C025F026C05E
:101AB80026F027C027F0120000018051800B896FA3
:101AC800805180258B6F7FAF6CEF0DF06EEF0DF0BE
:101AD8006FEF0DF08B818B51D8B475EF0DF077EF68
:101AE8000DF08AEF0DF08B29D8A47DEF0DF07FEF74
:101AF8000DF087EF0DF0000E7D6F000E7E6F000E6B
:101B08007F6F000E806F7F8F92EF0DF0000E7D6F5C
:101B1800000E7E6F000E7F6F000E806F8451800B69
:101B2800891B845184258A6F83AF9DEF0DF09FEF49
:101B38000DF0A0EF0DF08A818A51D8B4A6EF0DF010
:101B4800A8EF0DF0BBEF0DF08A29D8A4AEEF0DF089
:101B5800B0EF0DF0B8EF0DF0000E816F000E826F40
:101B6800000E836F000E846F838FC3EF0DF0000E9D
:101B7800816F000E826F000E836F000E846F8A5192
:101B8800D8B4C9EF0DF0CBEF0DF0D3EF0DF08B51BA
:101B9800D8A4D1EF0DF0D3EF0DF0DDEF0DF0000E6E
:101BA8007D6F000E7E6F000E7F6F000E806F73EFEB
:101BB8000FF083517D03F3CF94F0F4CF95F0945157
:101BC8008C6F8D6B8E6B8F6B9551906F916B926B49
:101BD800936B82517E03F3CF94F0F4CF95F0945138
:101BE8008C27000E8D238E238F2395519027000E6E
:101BF80091239223932381517F03F3CF94F0F4CF61
:101C080095F094518C27000E8D238E238F239551A8
:101C18009027000E9123922393238EC08FF08DC0BE
:101C28008EF08CC08DF08C6B81517E03F3CF94F0D5
:101C3800F4CF95F094518C2795518D23000E8E2367
:101C4800000E8F2382517D03F3CF94F0F4CF95F0EB
:101C580094518C2795518D23000E8E23000E8F23CF
:101C68008EC08FF08DC08EF08CC08DF08C6B815142
:101C78007D03F3CF94F0F4CF95F094518C279551D0
:101C88008D23000E8E23000E8F2383517E03F3CF06
:101C980094F0F4CF95F09451902795519123000E2C
:101CA8009223000E932382517F03F3CF94F0F4CF55
:101CB80095F09451902795519123000E9223000E90
:101CC800932383517F03F3CF94F0F4CF95F094518D
:101CD800856F9551866F876B886B87C088F086C043
:101CE80087F085C086F0856B8551902786519123B2
:101CF80087519223885193238CC085F08DC086F03C
:101D08008EC087F08FC088F0190E90EF0EF0D89033
:101D18008833873386338533E82E8BEF0EF0855171
:101D280090278651912387519223885193238EC0FF
:101D38008FF08DC08EF08CC08DF08C6B8A518BC06B
:101D480085F0866B8527000E8623820E8525946F85
:101D5800FF0E8621956FC6EF0EF0D8909037913719
:101D6800923793378FAFBBEF0EF0BDEF0EF0BEEF9B
:101D78000EF09081D8908C378D378E378F37940737
:101D8800D8A0950792AFCBEF0EF0CDEF0EF0B1EFE4
:101D98000EF08A6B8FAFD3EF0EF0D5EF0EF0F9EFA0
:101DA8000EF0FF0E8C15856FFF0E8D15866FFF0EDA
:101DB8008E15876F7F0E8F15886F85518611871155
:101DC8008811D8B4EAEF0EF0ECEF0EF0F0EF0EF059
:101DD800010E8A6FF9EF0EF090A1F5EF0EF0F7EF14
:101DE8000EF0F9EF0EF0ECEF0EF08A51D8B4FFEFD9
:101DF8000EF001EF0FF025EF0FF0010E9027000E07
:101E080091239223932393A10CEF0FF00EEF0FF081
:101E180025EF0FF090C085F091C086F092C087F052
:101E280093C088F08835883387338633853385C0F7
:101E380090F086C091F087C092F088C093F0944BE0
:101E4800952B95BF30EF0FF0955108E19429D8A054
:101E580030EF0FF032EF0FF03CEF0FF0000E906F05
:101E6800000E916F800E926F7F0E936F69EF0FF0E7
:101E780095BF49EF0FF0955106E19405D8B047EFAB
:101E88000FF049EF0FF054EF0FF0000E906F000EB7
:101E9800916F000E926F000E936F896B69EF0FF0D0
:101EA80094C08BF0FF0E9017FF0E91177F0E9217BC
:101EB800000E93178BA163EF0FF065EF0FF066EF3D
:101EC8000FF0928FD8908B31936F8951931390C0F4
:101ED8007DF091C07EF092C07FF093C080F0120038
:101EE80000016351800B6C6F63516325736F62AFA0
:101EF80080EF0FF082EF0FF083EF0FF073817351D3
:101F0800D8B489EF0FF08BEF0FF09FEF0FF0732924
:101F1800D8A491EF0FF093EF0FF09BEF0FF0000EA6
:101F2800606F000E616F000E626F000E636F628F4C
:101F3800636BA7EF0FF0000E606F000E616F000E6D
:101F4800626F000E636F6751800B6C1B67516725CA
:101F5800746F66AFB2EF0FF0B4EF0FF0B5EF0FF09C
:101F680074817451D8B4BBEF0FF0BDEF0FF0D1EF0F
:101F78000FF07429D8A4C3EF0FF0C5EF0FF0CDEF21
:101F88000FF0000E646F000E656F000E666F000E96
:101F9800676F668F676BD9EF0FF0000E646F000EE6
:101FA800656F000E666F000E676F645165116611EC
:101FB8006711D8A4E2EF0FF0E4EF0FF0FCEF0FF099
:101FC800000E606F000E616F000E626F000E636F8F
:101FD800800E62137F0E63136C51631360C060F050
:101FE80061C061F062C062F063C063F03BEF11F062
:101FF8007351D8A402EF10F004EF10F00EEF10F0B8
:10200800000E606F000E616F000E626F000E636F4E
:102018003BEF11F0745173C034F0356A345E000E32
:10202800355A7F0E34246D6F000E35206E6F60C0F8
:1020380068F061C069F062C06AF063C06BF0000EBE
:10204800606F000E616F000E626F000E636F000E0E
:102058006F6F000E706F000E716F000E726F746BF1
:102068006EEF10F07451D8B43CEF10F03EEF10F062
:1020780055EF10F0D890683769376A376B37D890C2
:10208800603761376237633772AF4DEF10F04FEF4B
:1020980010F050EF10F06081D8906F3770377137BB
:1020A80072376451685D6551695966516A5967515B
:1020B8006B59D8A062EF10F064EF10F06DEF10F0DC
:1020C800728D6451685F6551695B66516A5B6751DF
:1020D8006B5B742B190E746574EF10F076EF10F0CB
:1020E80036EF10F0685169116A116B11D8B47FEF9F
:1020F80010F081EF10F099EF10F06F8199EF10F068
:10210800D890603761376237633772AF8EEF10F05F
:1021180090EF10F091EF10F06081D8906F37703722
:10212800713772376D07D8A06E0762AF9EEF10F057
:10213800A0EF10F084EF10F0746B72AFA6EF10F000
:10214800A8EF10F0CCEF10F0FF0E6F15346EFF0EF5
:102158007015356EFF0E7115366E7F0E7215376E5F
:102168003450351036103710D8B4BDEF10F0BFEF2B
:1021780010F0C3EF10F0010E746FCCEF10F060A1F7
:10218800C8EF10F0CAEF10F0CCEF10F0BFEF10F06E
:102198007451D8B4D2EF10F0D4EF10F0F8EF10F07B
:1021A800010E6027000E61236223632363A1DFEF22
:1021B80010F0E1EF10F0F8EF10F060C034F061C0FB
:1021C80035F062C036F063C037F037343732363214
:1021D8003532343234C060F035C061F036C062F058
:1021E80037C063F06D4B6E2B6EBF03EF11F06E516D
:1021F80008E16D29D8A003EF11F005EF11F010EFF9
:1022080011F0000E6E6F6D69000E606F000E616F49
:10221800000E626F000E636F6EBF1DEF11F06E51FE
:1022280006E16D05D8B01BEF11F01DEF11F029EF95
:1022380011F06E6B000E6D6F000E606F000E616F17
:10224800000E626F000E636F6C6B6DC073F073A14C
:1022580030EF11F032EF11F035EF11F0628F36EFF9
:1022680011F0629FD8907331636FF0EF0FF0120096
:10227800176A010E166E4BEC35F03D0AD8A447EFED
:1022880011F049EF11F044EF12F0176A020E166EC2
:102298004BEC35F00101FB6FFB51FD6FFC6B176ACE
:1022A800030E166E4BEC35F00101FE6FFE51FC116A
:1022B8007D6FFD517E6F176A040E166E4BEC35F07C
:1022C8000101FB6FFB51FD6FFC6B176A050E166E63
:1022D8004BEC35F00101FE6FFE51FC113D6EFD51D6
:1022E8003E6E176A060E166E4BEC35F00101FB6F59
:1022F800FB51FD6FFC6B176A070E166E4BEC35F041
:102308000101FE6FFE51FC113B6EFD513C6E176AD8
:10231800080E166E4BEC35F00101FB6FFB51FD6F9B
:10232800FC6B176A090E166E4BEC35F00101FE6F57
:10233800FE51FC113F6EFD51406E176A0A0E166E73
:102348004BEC35F00101FB6FFB51FD6FFC6B176A1D
:102358000B0E166E4BEC35F00101FE6FFE51FC11B1
:102368000001F76F0101FD510001F86F176A0C0EAB
:10237800166E4BEC35F00101FB6FFB51FD6FFC6BEA
:10238800176A0D0E166E4BEC35F00101FE6FFE510B
:10239800FC110001F56F0101FD510001F66F176A8C
:1023A8000E0E166E4BEC35F00001FC6F176A0F0E1F
:1023B800166E4BEC35F00101FB6FFB51FD6FFC6BAA
:1023C800176A100E166E4BEC35F00101FE6FFE51C8
:1023D800FC11896FFD518A6F176A110E166E4BEC4E
:1023E80035F00001FB6F176A120E166E4BEC35F0D4
:1023F8000101FB6FFB51FD6FFC6B176A130E166E24
:102408004BEC35F00101FE6FFE51FC110001F36F3A
:102418000101FD510001F46F176A140E166E4BECA2
:1024280035F00101FB6FFB51FD6FFC6B176A150E50
:10243800166E4BEC35F00101FE6FFE51FC110001E8
:10244800FE6F0101FD510001FF6F176A160E166E2F
:102458004BEC35F00101FB6FFB51FD6FFC6B176A0C
:10246800170E166E4BEC35F00101FE6FFE51FC1194
:102478000001F16F0101FD510001F26F76EF12F0DA
:1024880001017E6B320E7D6FFE0E3E6E700E3D6E4C
:10249800FF0E3C6ECE0E3B6EFC0E406E180E3F6E6D
:1024A8000001F86B190EF76F360EF66F590EF56FBF
:1024B800010EFC6F0B0E01018A6FB80E896F0001C7
:1024C800FB6B0101936B0001F46B000EF36FFF6B64
:1024D800020EFE6F030EF26F840EF16F0101E26BC4
:1024E800030EE16F800E0201B86FFF0EB96F7DC158
:1024F800BAF27EC1BBF29DEC34F0900E0201B86FC7
:10250800FF0EB96F3DC0BAF23EC0BBF29DEC34F08D
:10251800880E0201B86FFF0EB96F3BC0BAF23CC01B
:10252800BBF29DEC34F0580E0201B86FFF0EB96F84
:102538003FC0BAF240C0BBF29DEC34F0230E02015A
:10254800B86FFF0EB96FFCC0BAF2BB6B9DEC34F0EC
:10255800980E0201B86FFF0EB96FFEC0BAF2FFC045
:10256800BBF29DEC34F0F1C016F0F2C017F0186A17
:10257800196A000E26EC1CF016C07DF017C07EF01C
:1025880018C07FF019C080F00A0E0001816FD70EC5
:10259800826F230E836F3C0E846F60EC0DF07DC05C
:1025A800BEF27EC0BFF27FC0C0F280C0C1F2A80EEA
:1025B8000201B86FFF0EB96FBEC2BAF2BFC2BBF25A
:1025C800C0C2BCF2C1C2BDF29DEC34F04AEC36F098
:1025D80012000001D951D96EDA6ADECFF6FFDDCFDD
:1025E800F7FFF86A0800F550250AD8A4FEEF12F0A4
:1025F80000EF13F087EF14F0D951D96EDA6ADE2AAA
:10260800000EDD2201016E6B000E6D6F6DC191F140
:102618006F6970690001D951D96EDA6ADECFE2F0CC
:10262800DDCFE3F0E2C0F6FFE3C0F7FFF86A080089
:10263800F550640AD8B423EF13F025EF13F034EF04
:1026480013F0E2C0F6FFE3C0F7FFF86A0800F550A0
:10265800690AD8A432EF13F034EF13F0D1EF13F076
:10266800DA51D96EDA6ADFCFDBF0020EDE26DFCF71
:10267800DCF0000EDD22DBC0D9FFDCC0DAFFDECFE4
:10268800DEF0DDCFDFF0010EE225DB6F000EE32187
:10269800DC6FD951D96EDA6ADBC0DEFFDCC0DDFF42
:1026A800500EE46FDFBF5BEF13F05EEF13F0010E27
:1026B8005FEF13F0000EDD6FE407000EE425D96E1E
:1026C800DA6A020EDA22DEC016F0DFC017F0196AE5
:1026D8000A0E186E1AEC2AF016C01CF017C01DF06E
:1026E80025EC33F01C50300FDF6EDEC016F0DFC073
:1026F80017F0196A0A0E186E02EC29F016C0DEF0FF
:1027080017C0DFF00001DE51DF11D8B48EEF13F0EF
:1027180090EF13F098EF13F0E451D8A496EF13F06C
:1027280098EF13F060EF13F0E451D8B49EEF13F074
:10273800A0EF13F0C6EF13F0DD51D8B4A6EF13F0F5
:10274800A8EF13F0C6EF13F0E407000EE425D96EE6
:10275800DA6A020EDA222D0EDF6EC6EF13F0000ED3
:10276800E425D96EDA6A020EDA22DF50DB6FDB511C
:10277800186E196AD7C01AF0D8C01BF0DBEC27F026
:102788000001E42B500EE419D8A4CDEF13F0CFEFDD
:1027980013F0B3EF13F09BEF14F0D951D96EDA6A46
:1027A800DECFE2F0DDCFE3F0E2C0F6FFE3C0F7FFF3
:1027B800F86A0800F5CFE4F0EDEF13F0E24BE32BF5
:1027C800FCEF13F06C0EE46FFCEF13F0E46BFCEF1E
:1027D80013F0E4514C0AD8B4E2EF13F02A0AD8B443
:1027E800E6EF13F00A0AD8B4E2EF13F0EAEF13F0B9
:1027F800E2C0F6FFE3C0F7FFF86A0800F550660A82
:10280800D8A409EF14F00BEF14F07EEF14F03FEFAB
:1028180014F0DA51D96EDA6ADFCFDBF0040EDE2667
:10282800DFCFDCF0000EDD22DBC0D9FFDCC0DAFF31
:10283800DECFDEF0DECFDFF0DECFE0F0DECFE1F09E
:102848004AEF14F0DA51D96EDA6ADFCFDBF0040E02
:10285800DE26DFCFDCF0000EDD22DBC0D9FFDCC0D6
:10286800DAFFDECFDEF0DECFDFF0DECFE0F0DECF66
:10287800E1F04AEF14F0E4514C0AD8B426EF14F012
:10288800200AD8B40DEF14F04AEF14F0010EE22537
:10289800DB6F000EE321DC6FD951D96EDA6ADBC039
:1028A800DEFFDCC0DDFF71EF14F0D7C0A2F0D8C0A6
:1028B800A3F0DEC0A4F0DFC0A5F0E0C0A6F0E1C040
:1028C800A7F0E2C0F6FFE3C0F7FFF86A0800F5CF0B
:1028D800A8F097EC00F09BEF14F0E2C0F6FFE3C01D
:1028E800F7FFF86A0800F550660AD8B459EF14F0F3
:1028F8007EEF14F00001D951D96EDA6ADE2A000E93
:10290800DD229BEF14F0D951D96EDA6ADECFF6FFDB
:10291800DDCFF7FFF86A0800F550186E196AD7C0BE
:102928001AF0D8C01BF0DBEC27F07EEF14F0120091
:10293800000EF2BE010E0001EE6FF29E176A010E44
:10294800166E3D0E186EB2EC30F081B2AEEF14F098
:10295800B0EF14F0A9EF14F0176A020E166E010119
:102968007E51186EB2EC30F081B2BDEF14F0BFEFBB
:1029780014F0B8EF14F0176A030E166E7DC118F044
:10298800B2EC30F081B2CBEF14F0CDEF14F0C6EF1B
:1029980014F0176A040E166E3E50186EB2EC30F042
:1029A80081B2D9EF14F0DBEF14F0D4EF14F0176A0A
:1029B800050E166E3DC018F0B2EC30F081B2E7EFAC
:1029C80014F0E9EF14F0E2EF14F0176A060E166E31
:1029D8003C50186EB2EC30F081B2F5EF14F0F7EF1E
:1029E80014F0F0EF14F0176A070E166E3BC018F0DB
:1029F800B2EC30F081B203EF15F005EF15F0FEEF01
:102A080014F0176A0E0E166EFCC018F0B2EC30F017
:102A180081B211EF15F013EF15F00CEF15F0176AEE
:102A2800080E166E4050186EB2EC30F081B21FEFEF
:102A380015F021EF15F01AEF15F0176A090E166E4A
:102A48003FC018F0B2EC30F081B22DEF15F02FEF47
:102A580015F028EF15F0176A0F0E166E01018A514E
:102A6800186EB2EC30F081B23CEF15F03EEF15F085
:102A780037EF15F0176A100E166E89C118F0B2EC10
:102A880030F081B24AEF15F04CEF15F045EF15F034
:102A9800176A0A0E166E0001F851186EB2EC30F083
:102AA80081B259EF15F05BEF15F054EF15F0176A86
:102AB8000B0E166EF7C018F0B2EC30F081B267EF6B
:102AC80015F069EF15F062EF15F0176A0C0E166E27
:102AD8000001F651186EB2EC30F081B276EF15F0C5
:102AE80078EF15F071EF15F0176A0D0E166EF5C038
:102AF80018F0B2EC30F081B284EF15F086EF15F0E3
:102B08007FEF15F0176A110E166EFBC018F0B2ECC5
:102B180030F081B292EF15F094EF15F08DEF15F0CB
:102B2800176A120E166E0001F451186EB2EC30F0EE
:102B380081B2A1EF15F0A3EF15F09CEF15F0176A1D
:102B4800130E166EF3C018F0B2EC30F081B2AFEF8E
:102B580015F0B1EF15F0AAEF15F0176A140E166EFE
:102B68000001FF51186EB2EC30F081B2BEEF15F0E3
:102B7800C0EF15F0B9EF15F0176A150E166EFEC006
:102B880018F0B2EC30F081B2CCEF15F0CEEF15F0C2
:102B9800C7EF15F0176A160E166E0001F251186E7F
:102BA800B2EC30F081B2DBEF15F0DDEF15F0D6EFC7
:102BB80015F0176A170E166EF1C018F0B2EC30F067
:102BC80081B2E9EF15F0EBEF15F0E4EF15F0000135
:102BD800EEB102D0F29E01D0F28E1A0E386EF80EC7
:102BE800E82EFED7382EFCD700D0700E0201B86F41
:102BF800FE0EB96F9DEC34F01200010159BF0EEFC3
:102C080016F0110E585D270E5959D8A00EEF16F080
:102C180010EF16F014EF16F0A0EC2FF028EF17F0D5
:102C28000001F9B11AEF16F01CEF16F023EF16F0B9
:102C3800FAA121EF16F023EF16F02EEF16F0B70EDB
:102C48000201B86FFF0EB96F54C1BAF255C1BBF299
:102C58009DEC34F00001F9B334EF16F036EF16F0BE
:102C68003DEF16F0FAA13BEF16F03DEF16F048EFF6
:102C780016F0E80E0201B86FFF0EB96F56C1BAF22E
:102C880057C1BBF29DEC34F00001F9B54EEF16F0D8
:102C980050EF16F057EF16F0FAA155EF16F057EF70
:102CA80016F062EF16F0EF0E0201B86FFF0EB96F63
:102CB80058C1BAF259C1BBF29DEC34F00001F9B722
:102CC80068EF16F06AEF16F071EF16F0FAA16FEFE1
:102CD80016F071EF16F07CEF16F0360E0201B86FA1
:102CE800FF0EB96FA4C1BAF2A5C1BBF29DEC34F0D6
:102CF8000001F9B982EF16F084EF16F08BEF16F0A9
:102D0800FAA189EF16F08BEF16F096EF16F0D30EB6
:102D18000201B86FFF0EB96F3DC0BAF23EC0BBF2F8
:102D28009DEC34F00001F9B99CEF16F09EEF16F017
:102D3800A5EF16F0FAA1A3EF16F0A5EF16F0B0EF85
:102D480016F0E10E0201B86FFF0EB96F3BC0BAF280
:102D58003CC0BBF29DEC34F00001F9BBB6EF16F0B5
:102D6800B8EF16F0BFEF16F0FAA1BDEF16F0BFEFFF
:102D780016F0CAEF16F0C50E0201B86FFF0EB96F54
:102D880087C1BAF288C1BBF29DEC34F00001F9BBEF
:102D9800D0EF16F0D2EF16F0D9EF16F0FAA1D7EF70
:102DA80016F0D9EF16F0E3EF16F0BE0E0201B86F79
:102DB800FF0EB96F95C1BAF2BB6B9DEC34F0000100
:102DC800F9BDE9EF16F0EBEF16F0F2EF16F0FAA105
:102DD800F0EF16F0F2EF16F0FDEF16F0DA0E020142
:102DE800B86FFF0EB96F7FC1BAF280C1BBF29DEC1C
:102DF80034F00001F9BF03EF17F005EF17F00CEFFF
:102E080017F0FAA10AEF17F00CEF17F017EF17F009
:102E1800CC0E0201B86FFF0EB96F83C1BAF284C13C
:102E2800BBF29DEC34F00001F951FA11D8B41FEF50
:102E380017F021EF17F028EF17F0090E0201B86F0D
:102E4800FF0EB96F9DEC34F01200BAEC33F04AEC87
:102E580036F0C1EC34F0C40E166E010E176E1EEC7F
:102E680025F0000E166E6C0E176E0CEC36F0020E86
:102E78000201CD6F040ECC6FBA0EE82EFED7CC2F10
:102E8800FCD7CD2FFAD70000F28EF28C340E020157
:102E9800CC6FF10EE82EFED7CC2FFCD700D03CEC3F
:102EA80011F0E60E0201B86FFE0EB96F9DEC34F01A
:102EB80046EC36F0C40E166E010E176E00EC1DF0CF
:102EC8006FEC2EF0F1EC2BF00101CCA76EEF17F0B0
:102ED80070EF17F072EF17F061EC1FF0A2EC28F01A
:102EE8000101CCAB7AEF17F07CEF17F089EF17F000
:102EF8007A5107E1140E795DD8B085EF17F087EFA6
:102F080017F089EF17F0794B7A2BE151E211D8A429
:102F180090EF17F092EF17F09DEF17F077517811B7
:102F2800D8A499EF17F09BEF17F09DEF17F01AEF61
:102F380018F0E151E211D8B4A4EF17F0A6EF17F09A
:102F4800EFEF17F058C11CF059C11DF025EC33F014
:102F58001DBEB8EF17F0110E1C5C270E1D58D8A027
:102F6800B8EF17F0BAEF17F0BCEF17F0A0EC2FF09E
:102F78000101CCADC2EF17F0C4EF17F01AEF18F04B
:102F8800FB0E0201B86FFE0EB96FE1C1BAF2E2C1E1
:102F9800BBF29DEC34F00101E107D8A0E207DF079E
:102FA800D8A0E007E105E211D8A4DDEF17F0DFEFC4
:102FB80017F0E1EF17F0A0EC2FF00101DF05E011A9
:102FC800D8A4E9EF17F0EBEF17F01AEF18F0A0EC20
:102FD8002FF01AEF18F077517811D8B4F6EF17F0F0
:102FE800F8EF17F01AEF18F0CCADFDEF17F0FFEF80
:102FF80017F01AEF18F00C0E77197811D8A407EF0C
:1030080018F009EF18F00BEF18F02FEC2CF0010175
:103018007707D8A07807BC0E0201B86FFE0EB96F0B
:1030280077C1BAF278C1BBF29DEC34F00101E151ED
:10303800E211D8A422EF18F024EF18F028EF18F0C6
:1030480043EC30F05EEF17F0CCAB2DEF18F02FEF1C
:1030580018F05EEF17F085B234EF18F037EF18F07C
:10306800010E38EF18F0000EFF0A0201CC6FCC47B2
:103078008550CC19FD0BCC19856E5EEF17F095EFD6
:1030880000F062C185F063C186F064C187F065C154
:1030980088F075C085F076C086F077C087F078C074
:1030A80088F0810E0001796FFF0E7A6F85C07BF082
:1030B80086C07CF087C07DF088C07EF0180E6AEF6D
:1030C80018F0D8907E337D337C337B33E82E65EF60
:1030D80018F07B517925836F000E7A21846F84BFA5
:1030E8007FEF18F0845109E1170E835DD8A07FEFB8
:1030F80018F081EF18F08BEF18F075C075F076C0F6
:1031080076F077C077F078C078F04FEF19F084BF89
:1031180090EF18F092EF18F003EF19F083C079F0F0
:10312800FF0E7A6FFF0E7B6F7F0E7C6F000E7D6F38
:103138007967A1EF18F0A9EF18F07D357D337C335E
:103148007B337A33792F9CEF18F07AC07FF07BC0FD
:1031580080F07CC081F07DC082F000017F51851530
:10316800796F805186157A6F815187157B6F8251EF
:1031780088157C6F79517A117B117C11D8A4C7EF1F
:1031880018F0C9EF18F0CBEF18F081EF18F085C0F0
:1031980079F086C07AF087C07BF088C07CF0200E7A
:1031A800DBEF18F0D8907C337B337A337933E82E11
:1031B800D6EF18F079517A117B117C11D8B4E7EF6A
:1031C80018F0E9EF18F0F1EF18F07F5185278051DA
:1031D800862381518723825188237F1D796F801D23
:1031E8007A6F811D7B6F821D7C6F795185177A51AB
:1031F80086177B5187177C51881747EF19F085C0D0
:1032080079F086C07AF087C07BF088C07CF0200E09
:1032180013EF19F0D8907C337B337A337933E82E67
:103228000EEF19F079517A117B117C11D8A41FEF98
:1032380019F021EF19F02BEF19F0000E856F000E31
:10324800866F000E876F000E886F47EF19F0D890D1
:103258008535796F86357A6F87357B6F88357C6FD2
:1032680079517A117B117C11D8B43DEF19F03FEFF9
:1032780019F047EF19F0000E856F000E866F800E6B
:10328800876FBF0E886F85C075F086C076F087C0DF
:1032980077F088C078F012000001FB51D8B457EFDE
:1032A80019F059EF19F0D8EF19F0FC51D8B45FEFC5
:1032B80019F061EF19F0D8EF19F00A0E816FD70EE7
:1032C800826F230E836F3C0E846FF1C016F0F2C03C
:1032D80017F0186A196A000E26EC1CF016C07DF06B
:1032E80017C07EF018C07FF019C080F060EC0DF0B8
:1032F8007DC0A2F07EC0A3F07FC0A4F080C0A5F07E
:10330800A2C081F0A3C082F0A4C083F0A5C084F05D
:103318000001F7510101835D0001A06FF85101011F
:1033280084590001A16FA0C016F0A1C017F0000ECB
:1033380017BEFF0E186E196E010E26EC1CF016C093
:103348007DF017C07EF018C07FF019C080F060ECE7
:103358000DF07DC028F07EC029F07FC02AF080C023
:103368002BF0F3C016F0F4C017F0186A196A000EB3
:1033780026EC1CF016C024F017C025F018C026F063
:1033880019C027F005EC0BF024C096F025C097F083
:1033980026C098F027C099F096EC23F096C056F115
:1033A80097C057F14DEF1AF00A0E816FD70E826F52
:1033B800230E836F3C0E846FF1C016F0F2C017F035
:1033C800186A196A000E26EC1CF016C07DF017C0AA
:1033D8007EF018C07FF019C080F060EC0DF07DC061
:1033E800A2F07EC0A3F07FC0A4F080C0A5F0A2C068
:1033F80081F0A3C082F0A4C083F0A5C084F00001CE
:10340800F7510101835D0001A06FF8510101845952
:103418000001A16FA0C016F0A1C017F0000E17BEE2
:10342800FF0E186E196E010E26EC1CF016C07DF00A
:1034380017C07EF018C07FF019C080F060EC0DF066
:103448007DC028F07EC029F07FC02AF080C02BF014
:10345800F5C016F0F6C017F0186A196A000E26ECC7
:103468001CF016C024F017C025F018C026F019C0AB
:1034780027F005EC0BF024C096F025C097F026C085
:1034880098F027C099F096EC23F096C056F197C0B3
:1034980057F112001D6E1D50020D8F0EF324D96EC8
:1034A800010EF420DA6E1D50490FE16EE26AE7CF93
:1034B80018F0010EE7261850020DF3CF19F0F4CFDB
:1034C8001AF01D50060D5C0EF3241B6E010EF4203D
:1034D8001C6E19501B24E16E1A501C20E26EDECFC0
:1034E800E6FFDDCFE5FF1D50490FD96EDA6A020EFF
:1034F800DF6481EF1AF083EF1AF088EF1AF01D509D
:10350800490FD96EDA6ADF6A1D50060D5E0EF32484
:10351800D96E010EF420DA6E1D50060D5C0EF324F0
:10352800E16E010EF420E26EDE50E65CDE50E658F5
:10353800D8A0A1EF1AF0A3EF1AF003EF1BF01D506B
:10354800060D600EF324D96E010EF420DA6E1D50BC
:10355800060D5E0EF324E16E010EF420E26EDE50DD
:10356800E65CDE50E658D8A0BCEF1AF0BEEF1AF0C1
:10357800CCEF1AF01D50060D5E0EF324D96E010E25
:10358800F420DA6EDECF16F0DDCF17F03DEF1BF03A
:103598001D50060D600EF324D96E010EF420DA6E6C
:1035A8001D50060D5C0EF324E16E010EF420E26E50
:1035B800DE50E65CDE50E658D8A0E5EF1AF0E7EFFB
:1035C8001AF0F5EF1AF01D50060D600EF324D96EAF
:1035D800010EF420DA6EDECF16F0DDCF17F03DEFE6
:1035E8001BF01D50060D5C0EF324D96E010EF4205D
:1035F800DA6EDECF16F0DDCF17F03DEF1BF01D5071
:10360800060D600EF324D96E010EF420DA6E1D50FB
:10361800060D5C0EF324E16E010EF420E26EDE501E
:10362800E65CDE50E658D8A01CEF1BF01EEF1BF03E
:1036380020EF1BF0F5EF1AF01D50060D600EF32475
:10364800D96E010EF420DA6E1D50060D5E0EF324BD
:10365800E16E010EF420E26EDE50E65CDE50E658C4
:10366800D8A039EF1BF03BEF1BF0BEEF1AF0E7EFE5
:103678001AF012002C6A000E2B6E2D6A4A50020DA9
:10368800F3CF20F0F4CF21F02D50060D5C0EF3247B
:10369800226E010EF420236E20502224D96E215070
:1036A8002320DA6EDECF24F0DDCF25F02D50020D79
:1036B8008F0EF324D96E010EF420DA6EDECF26F0D9
:1036C800DDCF27F02450265C1C6E255027581D6E30
:1036D80025EC33F01CC029F01DC02AF029502B5CC2
:1036E8002A502C58D8B07BEF1BF07DEF1BF081EFF0
:1036F8001BF029C02BF02AC02CF02D2A2D50D8B44D
:1037080088EF1BF08AEF1BF042EF1BF02C5009E109
:10371800650E2B5CD8A093EF1BF095EF1BF005EF1F
:103728001CF06A0E4A24D96EDA6A010EDA22DF2A00
:10373800050EDF64A2EF1BF0A4EF1BF025EF1CF0D1
:10374800DC0E4A24D96EDA6A010EDA22DF502E6EB8
:10375800020E2E64B2EF1BF0B4EF1BF0B9EF1BF0B2
:103768002E50FE0F2E6EBBEF1BF01E0E2E6E010E9E
:10377800286E2F6A4A502F18D8A4C5EF1BF0C7EF40
:103788001BF0C9EF1BF0D9EF1BF0DC0E2F24D96E0C
:10379800DA6A010EDA222E50DE18D8A4D6EF1BF012
:1037A800D8EF1BF0D9EF1BF0286A2F2A020E2F64DE
:1037B800E0EF1BF0E2EF1BF0BEEF1BF02850D8B48F
:1037C800E8EF1BF0EAEF1BF0ACEF1BF0DC0E4A242D
:1037D800D96EDA6A010EDA222EC0DFFF2F6A6A0E6E
:1037E8002F24D96EDA6A010EDA22DF6A2F2A020E36
:1037F8002F6401EF1CF003EF1CF0F3EF1BF025EF33
:103808001CF02C5007E1320E2B5CD8B00EEF1CF0E8
:1038180010EF1CF025EF1CF06A0E4A24D96EDA6A04
:10382800010EDA22DF50D8B41CEF1CF01EEF1CF09A
:1038380025EF1CF06A0E4A24D96EDA6A010EDA22E4
:10384800DF0612001E6E1E50D8B42DEF1CF02FEFAD
:103858001CF051EF1CF019BE36EF1CF034EF1CF0D1
:1038680051EF1CF016C01AF017C01BF018C01CF05E
:1038780019C01DF01A1E1B1E1C1E1D1E1A2A000E22
:103888001B221C221D221AC020F01BC021F01CC0C4
:1038980022F01DC023F059EF1CF016C020F017C00D
:1038A80021F018C022F019C023F016501710181074
:1038B8001910D8A462EF1CF064EF1CF06EEF1CF036
:1038C800000E166E000E176E000E186E000E196EA2
:1038D800FFEF1CF0960E1F6E78EF1CF01F2AD89091
:1038E8002332223221322032000E20141A6E000EAA
:1038F80021141B6E000E22141C6EFE0E23141D6E66
:103908001A501B101C101D10D8A48DEF1CF08FEF3F
:103918001CF072EF1CF09DEF1CF01F2A010E2026F0
:10392800000E212222222322D89023322232213251
:103938002032000E20141A6E000E21141B6E000E89
:1039480022141C6EFF0E23141D6E1A501B101C101F
:103958001D10D8A4B2EF1CF0B4EF1CF091EF1CF0CE
:10396800BCEF1CF01F06D8902036213622362336AD
:1039780022BEC1EF1CF0C3EF1CF0CBEF1CF0020E0F
:103988001F60C9EF1CF0CBEF1CF0B6EF1CF01FB0A6
:10399800D0EF1CF0D2EF1CF0D3EF1CF0229ED89091
:1039A8001F321FC01AF01B6A1C6A1D6A1AC01DF05C
:1039B8001C6A1B6A1A6A1A5020121B5021121C50CA
:1039C80022121D5023121E50D8B4EDEF1CF0EFEF59
:1039D8001CF0F7EF1CF019BEF6EF1CF0F4EF1CF02A
:1039E800F7EF1CF0238E20C016F021C017F022C07C
:1039F80018F023C019F0120020EE08F01650D9264E
:103A08001750DA22DF9020EE08F01650D92617500A
:103A1800DA22DF9220EE08F01650D9261750DA2263
:103A2800DF9620EE08F01650D9261750DA22DF98D4
:103A380020EE08F01650D9261750DA22DF9A20EE29
:103A480008F01650D9261750DA22DF9C20EE07F02E
:103A58001650D9261750DA22DFA035EF1DF037EFC0
:103A68001DF045EF1DF020EE08F01650D92617502E
:103A7800DA22DF8020EE07F01650D9261750DA2216
:103A8800DF9020EE07F01650D9261750DA22DFA271
:103A980050EF1DF052EF1DF060EF1DF020EE08F022
:103AA8001650D9261750DA22DF8220EE07F016507A
:103AB800D9261750DA22DF9220EE07F01650D926C1
:103AC8001750DA22DFA46BEF1DF06DEF1DF07BEFCE
:103AD8001DF020EE08F01650D9261750DA22DF869E
:103AE80020EE07F01650D9261750DA22DF9420EE80
:103AF80007F01650D9261750DA22DFA686EF1DF0F8
:103B080088EF1DF096EF1DF020EE08F01650D9262C
:103B18001750DA22DF8820EE07F01650D926175002
:103B2800DA22DF9620EE07F01650D9261750DA224F
:103B3800DFA8A1EF1DF0A3EF1DF0B1EF1DF020EEFF
:103B480008F01650D9261750DA22DF8A20EE07F03F
:103B58001650D9261750DA22DF9820EE07F01650B3
:103B6800D9261750DA22DFAABCEF1DF0BEEF1DF0F0
:103B7800CCEF1DF020EE08F01650D9261750DA22A7
:103B8800DF8C20EE07F01650D9261750DA22DF9A7C
:103B980012001D6A000EF2BE010E1C6EE4EF1DF04D
:103BA8004B2A4B04D8A4DBEF1DF0DDEF1DF0E4EF4A
:103BB8001DF04B6A0101996B010E1D6EFAEF1DF0A5
:103BC8004B5096EC31F00009D8A4EDEF1DF0EFEF63
:103BD8001DF0D4EF1DF04B5078EC31F00009D8B44B
:103BE800F8EF1DF0FAEF1DF0D4EF1DF01D50D8A42A
:103BF80000EF1EF002EF1EF096EF1EF04B50090D7D
:103C0800CD0EF3241E6E010EF4201F6E1EC016F09A
:103C18001FC017F0E1EC34F00009D8B416EF1EF01D
:103C280018EF1EF02BEF1EF020EE03F01E50D926E1
:103C38001F50DA22DF500F015C6F20EE02F01E5099
:103C4800D9261F50DA22DF505E6F51EF1EF01EC0DA
:103C580016F01FC017F0D1EC34F00009D8B437EFD4
:103C68001EF039EF1EF04CEF1EF020EE02F01E5051
:103C7800D9261F50DA22DF500F015E6F20EE03F0C5
:103C88001E50D9261F50DA22DF505C6F51EF1EF00C
:103C9800600E0F015E6F600E5C6F010197510F019E
:103CA8005E2720EE01F01E50D9261F50DA22DF5081
:103CB8005F6F20EE04F01E50D9261F50DA22DF5025
:103CC8001A6ED8901A30666E20EE05F01E50D9266E
:103CD8001F50DA22DF505D6F608E010E0101996F6F
:103CE800010E166E4B5081EC32F0F29E608020EE91
:103CF80004F01E50D9261F50DA22DF501A6E1B6AB4
:103D0800090ED8901A361B36E82E85EF1EF01AC019
:103D180070FF1BC071FF1CB002D0F29E01D0F28E62
:103D28000001FD6B1200096A000EF2BE010E086E5A
:103D3800AEEF1EF04B2A4B04D8A4A5EF1EF0A7EF58
:103D48001EF0AEEF1EF04B6A0101996B010E096E71
:103D5800C4EF1EF04B50D2EC31F00009D8A4B7EFF5
:103D68001EF0B9EF1EF09EEF1EF04B50F0EC31F054
:103D78000009D8B4C2EF1EF0C4EF1EF09EEF1EF08B
:103D88000950D8A4CAEF1EF0CCEF1EF060EF1FF068
:103D98004B50090DCD0EF3240A6E010EF4200B6E64
:103DA8000AC002F00BC003F001EC35F00009D8B4EA
:103DB800E0EF1EF0E2EF1EF0F5EF1EF020EE03F04C
:103DC8000A50D9260B50DA22DF500F015C6F20EE23
:103DD80002F00A50D9260B50DA22DF505E6F1BEF33
:103DE8001FF00AC002F00BC003F0F1EC34F0000938
:103DF800D8B401EF1FF003EF1FF016EF1FF020EE0D
:103E080002F00A50D9260B50DA22DF500F015E6FFC
:103E180020EE03F00A50D9260B50DA22DF505C6FEF
:103E28001BEF1FF0600E0F015E6F600E5C6F0101EB
:103E380097510F015E2720EE01F00A50D9260B504A
:103E4800DA22DF505F6F20EE04F00A50D9260B50BB
:103E5800DA22DF50066ED8900630666E20EE05F046
:103E68000A50D9260B50DA22DF505D6F608E010EA2
:103E78000101996F010E026E4B509DEC32F0F29EDB
:103E8800608020EE04F00A50D9260B50DA22DF5069
:103E9800066E076A090ED89006360736E82E4FEFE9
:103EA8001FF006C070FF07C071FF08B002D0F29E75
:103EB80001D0F28E0001FD6B120052EC36F00009C1
:103EC800D8A469EF1FF06BEF1FF01EEF20F0D4ECC1
:103ED80030F0030E386E980EE82EFED7382EFCD739
:103EE800A00E246E020E256E3D0EA3EC33F016C014
:103EF80026F017C027F094EC08F0000E0001816F3F
:103F0800000E826FA00E836F3F0E846F000E646FE9
:103F1800C00E656F7F0E666F440E676F22EEA8F0C5
:103F2800DECF16F0DDCF17F0000E17BEFF0E186EAD
:103F3800196E010E26EC1CF016C060F017C061F077
:103F480018C062F019C063F074EC0FF060C079F02B
:103F580061C07AF062C07BF063C07CF0000E0001A3
:103F6800756F000E766F800E776F3F0E786F8EEC50
:103F780030F075C07DF076C07EF077C07FF078C0F5
:103F880080F060EC0DF07DC0A0F07EC0A1F07FC095
:103F9800A2F080C0A3F0DA0E0001646F030E656F13
:103FA800AD0E666F3A0E676FA0C079F0A1C07AF0C7
:103FB800A2C07BF0A3C07CF0390E756FB40E766F8B
:103FC800280E776F3F0E786F8EEC30F075C060F07A
:103FD80076C061F077C062F078C063F074EC0FF0DF
:103FE80060C0A4F061C0A5F062C0A6F063C0A7F0ED
:103FF800000E286E000E296E200E2A6EC20E2B6E41
:10400800A4C024F0A5C025F0A6C026F0A7C027F0BC
:1040180005EC0BF024C096F025C097F026C098F068
:1040280027C099F096EC23F096C07FF197C080F1F5
:1040380055EC36F0120002C0D9FF03C0DAFFDE6A81
:10404800DD6A20EE02F00250D9260350DA22DF2A78
:1040580020EE07F00250D9260350DA22DF8020EE46
:1040680002F00250D9260350DA22090EDF643FEF2E
:1040780020F041EF20F05DEF20F020EE02F002503A
:10408800D9260350DA22DF6A20EE03F00250D9263F
:104098000350DA22DF2A20EE04F00250D92603501A
:1040A800DA22DF2A20EE07F00250D9260350DA225E
:1040B800DF8220EE03F00250D9260350DA22090EDF
:1040C800DF6469EF20F06BEF20F080EF20F020EE46
:1040D80003F00250D9260350DA22DF6A20EE05F0F9
:1040E8000250D9260350DA22DF2A20EE07F00250C8
:1040F800D9260350DA22DF8420EE04F00250D926B4
:104108000350DA22180EDF648CEF20F08EEF20F0D7
:104118009CEF20F020EE04F00250D9260350DA225A
:10412800DF6A20EE07F00250D9260350DA22DF8634
:1041380020EE05F00250D9260350DA22040EDF647F
:10414800A8EF20F0AAEF20F0BFEF20F020EE05F056
:104158000250D9260350DA22DF6A20EE07F0025017
:10416800D9260350DA22DF8820EE06F00250D9263D
:104178000350DA22DF2A20EE06F00250D926035037
:10418800DA22010EDF64CBEF20F0CDEF20F0DBEF79
:1041980020F020EE06F00250D9260350DA22DF6A1A
:1041A80020EE07F00250D9260350DA22DF8A1200E7
:1041B80020EE05F01650D9261750DA22DECF18F077
:1041C800DECF19F0DECF1AF0DECF1BF0050EF2EFCE
:1041D80020F0D8901B321A3219321832E82EEDEF3F
:1041E80020F020EE03F01650D9261750DA22DECF41
:1041F8001CF0DDCF1DF01C501E6E1D501F6E206A76
:10420800216A18501E5C226E19501F58236E1A50CE
:104218002058246E1B502158256E20EE0FF01650A2
:10422800D9261750DA22DF50186E22C019F023C0A1
:104238001AF024C01BF025C01CF0186626EF21F0E8
:104248002EEF21F01C341C321B321A321932182E70
:1042580021EF21F019C022F01AC023F01BC024F06E
:104268001CC025F025BE44EF21F025502410231052
:1042780009E1800E225CD8A044EF21F046EF21F03E
:104288004EEF21F07F0E226E000E236E000E246E7C
:10429800000E256E25AE5EEF21F0800E225CFF0E2B
:1042A8002358FF0E2458FF0E2558D8B05EEF21F092
:1042B80060EF21F068EF21F0800E226EFF0E236E72
:1042C800FF0E246EFF0E256E20EE09F01650D9263B
:1042D8001750DA2222C0DFFF12001D6A000E1C6E82
:1042E8001B6A79EF21F0164A172A16C0D9FF17C0A2
:1042F800DAFF200EDE18D8B484EF21F086EF21F023
:1043080077EF21F016C0D9FF17C0DAFFDF50186E1B
:10431800F70E1826040E186494EF21F096EF21F09A
:1043280077EF21F016C0D9FF17C0DAFF2D0EDE187F
:10433800D8A4A1EF21F0A3EF21F0A9EF21F0010EFD
:104348001B6E164A172AD3EF21F016C0D9FF17C0E3
:10435800DAFF2B0EDE18D8A4B4EF21F0B6EF21F067
:10436800D3EF21F0A5EF21F00A0E1C02F3CF18F0CD
:10437800F4CF19F01D02F350192616C0D9FF17C043
:10438800DAFFDF501A6E1A50185E000E195A300EF6
:1043980018241C6E000E19201D6EA5EF21F016C002
:1043A800D9FF17C0DAFFDF50186ED00E1826090E95
:1043B8001864E1EF21F0E3EF21F0B8EF21F01B5092
:1043C800D8A4E9EF21F0EBEF21F0F9EF21F01CC0C0
:1043D80018F01DC019F0181E191E184A192A18C0FD
:1043E80016F019C017F0FDEF21F01CC016F01DC023
:1043F80017F0120025C021F026C022F0BC0E236E53
:10440800FF0E246E6DEC27F021C02CF022C02DF099
:104418002CC01EF02DC01FF06CEC2CF01EC032F02A
:104428001FC033F033BE1DEF22F01BEF22F023EF45
:1044380022F032C025F033C026F088EF22F0000EBB
:10444800216E000E226EBC0E236EFF0E246E6DECE4
:1044580027F021C02EF022C02FF0000E216E000E92
:10446800226EBC0E236EFF0E246E6DEC27F021C069
:1044780030F022C031F0356A000E346E5CEF22F065
:1044880034502524D96E35502620DA6E200EDE18D9
:10449800D8A451EF22F053EF22F05AEF22F0345013
:1044A8002524D96E35502620DA6EDF6A344A352A3B
:1044B80034502524D96E35502620DA6EDF50D8A422
:1044C80068EF22F06AEF22F044EF22F02EC016F0D7
:1044D8002FC017F071EC21F027C0D9FF28C0DAFFF0
:1044E80016C0DEFF17C0DDFF30C016F031C017F070
:1044F80071EC21F029C0D9FF2AC0DAFF16C0DEFF0F
:1045080017C0DDFF1DEF22F01200F2AE8EEF22F091
:1045180090EF22F0D2EF22F0F29E20EE05F0165036
:10452800D9261750DA22DECF18F0DECF19F0DECF09
:104538001AF0DECF1BF0050EA7EF22F0D8901B3241
:104548001A3219321832E82EA2EF22F020EE05F0C6
:104558001650D9261750DA221850DE5E1950DE5A46
:104568001A50DE5A1B50DE5A20EE03F01650D92698
:104578001750DA22DECF18F0DDCF19F020EE05F063
:104588001650D9261750DA221850DE261950DE2286
:10459800000EDE22DE22F28E10EF23F020EE05F070
:1045A8001650D9261750DA22DECF18F0DECF19F0D0
:1045B800DECF1AF0DECF1BF0050EE8EF22F0D89020
:1045C8001B321A3219321832E82EE3EF22F020EEAD
:1045D80005F01650D9261750DA221850DE5E195009
:1045E800DE5A1A50DE5A1B50DE5A20EE03F01650DF
:1045F800D9261750DA22DECF18F0DDCF19F020EED9
:1046080005F01650D9261750DA221850DE26195010
:10461800DE22000EDE22DE2212001F6A1DBE19EF06
:1046280023F017EF23F023EF23F01D1E1C1E1B1E83
:104638001A6C000E1B221C221D22010E1F6E19BEB1
:104648002AEF23F028EF23F034EF23F0191E181E69
:10465800171E166C000E172218221922010E1F1A97
:10466800000E206E000E216E000E226E000E236ECC
:104678001A501B101C101D10D8B445EF23F047EF3B
:1046880023F07DEF23F0010E1E6E51EF23F0D8903A
:104698001A361B361C361D361E2A1DAE56EF23F061
:1046A80058EF23F04BEF23F0D890203621362236EE
:1046B80023361A50165C1B5017581C5018581D509A
:1046C8001958D8A06AEF23F06CEF23F075EF23F0A8
:1046D8001A50165E1B50175A1C50185A1D50195A5A
:1046E8002080D8901D321C321B321A321E2E58EFF1
:1046F80023F01F50D8B483EF23F085EF23F08DEF1C
:1047080023F0231E221E211E206C000E21222222AD
:10471800232220C016F021C017F022C018F023C0B1
:1047280019F012000001983599359F6F9F51D8A450
:10473800A0EF23F0A2EF23F0ACEF23F0000E966F6A
:10474800000E976F000E986F000E996F19EF24F006
:1047580096C09AF097C09BF098C09CF099C09DF0C5
:10476800200EBCEF23F0D8909D339C339B339A33B3
:10477800E82EB7EF23F09A519E6F988FFF0E961789
:10478800FF0E9717FF0E9817000E9917960E9F5F4A
:104798009FBFD3EF23F0D1EF23F0E9EF23F09F5130
:1047A800800A970FD8B0DBEF23F0DDEF23F0DFEFBF
:1047B80023F0A2EF23F0D8909933983397339633A8
:1047C8009F3FDFEF23F001EF24F01F0E9F65EFEF0F
:1047D80023F0F1EF23F0F9EF23F0A2EF23F0D890C4
:1047E80096379737983799379F079F51D8A4FFEF87
:1047F80023F001EF24F0F3EF23F09E51D8B407EF34
:1048080024F009EF24F011EF24F0991F981F971F47
:10481800966D000E97239823992396C096F097C01B
:1048280097F098C098F099C099F01200000E000116
:1048380096159E6F000E97159F6F800E9815A06FA6
:104848007F0E9915A16F9E519F11A011A111D8A497
:1048580030EF24F032EF24F03AEF24F0000E966F98
:10486800000E976F000E986F000E996F000E9A1544
:104878009E6F000E9B159F6F800E9C15A06F7F0E7C
:104888009D15A16F9E519F11A011A111D8A44FEFA2
:1048980024F051EF24F059EF24F0000E9A6F000E27
:1048A8009B6F000E9C6F000E9D6F99AF5EEF24F01A
:1048B80060EF24F069EF24F0966D971FD8B0972B1E
:1048C800981FD8B0982B800E99579DAF6EEF24F0A3
:1048D80070EF24F079EF24F09A6D9B1FD8B09B2BD2
:1048E8009C1FD8B09C2B800E9D57000E961B000E67
:1048F800971B000E981B800E991B000E9A1B000E2A
:104908009B1B000E9C1B800E9D1B9A51965D9B5114
:1049180097599C5198599D519959D8B096EF24F0C0
:1049280098EF24F09BEF24F0D8909CEF24F0D880E7
:104938001200000E026E4B509DEC32F00001FD514A
:10494800D8B4A9EF24F0ABEF24F0AEEF24F0609ECA
:104958001BEF25F0609E4B50090DCD0EF3240E6E13
:10496800010EF4200F6E0EC002F00FC003F001EC30
:1049780035F00009D8A4C3EF24F0C5EF24F0CDEF3B
:1049880024F00EC002F00FC003F020EC35F0D3EF96
:1049980024F00EC002F00FC003F0F1EC35F04B50DC
:1049A800020D8F0EF324D96E010EF420DA6EDECFDD
:1049B8000CF0DDCF0DF072500C5C026E73500D5888
:1049C800036E3FEC33F0035009E1650E025CD8A09A
:1049D800F0EF24F0F2EF24F0FDEF24F04B50090D36
:1049E800D50EF324D96E010EF420DA6EDF8406EFBB
:1049F80025F04B50090DD50EF324D96E010EF42085
:104A0800DA6EDF9401019851D8A40DEF25F00FEF6D
:104A180025F01BEF25F04B50020D8F0EF324D96EB5
:104A2800010EF420DA6E72CFDEFF73CFDDFF97EC54
:104A38001EF0120020EE07F01650D9261750DA2281
:104A4800DF9020EE07F01650D9261750DA22DF92B1
:104A580020EE07F01650D9261750DA22DF9420EE00
:104A680007F01650D9261750DA22DF9620EE07F005
:104A78001650D9261750DA22DF9820EE07F0165084
:104A8800D9261750DA22DF9A20EE08F01650D926D8
:104A98001750DA22DF9020EE08F01650D92617506A
:104AA800DA22DF9220EE08F01650D9261750DA22C3
:104AB800DF9620EE08F01650D9261750DA22DF9834
:104AC80020EE08F01650D9261750DA22DF9A20EE89
:104AD80008F01650D9261750DA22DF9C16C0D9FFE5
:104AE80017C0DAFFDE6ADD6A20EE02F01650D9261A
:104AF8001750DA22DF6A20EE03F01650D926175035
:104B0800DA22DF6A20EE04F01650D9261750DA228E
:104B1800DF6A20EE05F01650D9261750DA22DF6A30
:104B280020EE06F01650D9261750DA22DF6A120056
:104B380066C120F067C121F068C122F069C123F085
:104B480016C020F017C021F018C022F019C023F0B9
:104B580020C01AF021C01BF022C01CF023C01DF099
:104B6800180EBCEF25F0D8901D321C321B321A32B9
:104B7800E82EB7EF25F01A501E6E1F6A1E501F1040
:104B8800D8A4C9EF25F0CBEF25F0E9EF25F0D890B0
:104B980020341A6E21341B6E22341C6E23341D6E91
:104BA8001A501B101C101D10D8A4DDEF25F0DFEFE4
:104BB80025F0E4EF25F0176A020E166E17EF26F0BF
:104BC800176A030E166E17EF26F01E281F10D8A4BA
:104BD800F0EF25F0F2EF25F014EF26F020C01AF0E0
:104BE80021C01BF022C01CF023C01DF0090ED89074
:104BF8001A361B361C361D36E82EFBEF25F01A50E8
:104C08001B101C101D10D8B40CEF26F00FEF26F067
:104C1800010E10EF26F0000E166E176A17EF26F039
:104C2800176A040E166E120050EC19F0000EB9EC5B
:104C380032F016C054F117C055F19C0E246E010EC7
:104C4800256E54C126F055C127F094EC08F00101F7
:104C58005651545D586F57515559596F58513D5CCD
:104C68003E50800A0001A66F01015951800A0001D7
:104C7800A659D8B042EF26F044EF26F087EF26F089
:104C88003B500101585D5951800A0001A66F3C5004
:104C9800800AA659D8B053EF26F055EF26F087EFD3
:104CA80026F0640EFE03F3CFA6F0F4CFA7F0FF03BF
:104CB800F350A72701015A510001A86F01015B5168
:104CC8000001A96F01015A4B5B2B0001A651A85D99
:104CD800A751A959D8A073EF26F075EF26F08CEFED
:104CE80026F0640EFE03F3CFA6F0F4CFA7F0FF037F
:104CF800F350A727A6C05AF1A7C05BF1010E010126
:104D0800956F8CEF26F001015B6B000E5A6F956B67
:104D18001200296E2950100DB40EF3242A6E010ECC
:104D2800F4202B6E20EE01F02A50D9262B50DA22DF
:104D3800DF5096EC31F00009D8B4A5EF26F0A7EFC4
:104D480026F0FDEF26F020EE01F02A50D9262B5050
:104D5800DA22DF50B4EC31F00009D8B4B6EF26F00F
:104D6800B8EF26F0FDEF26F02AC01EF02BC01FF08A
:104D78008BEC33F02AC016F02BC017F0DCEC20F0D7
:104D880020EE02F02A50D9262B50DA22020EDF64D8
:104D9800D0EF26F0D2EF26F0D9EF26F02AC0D9FFBF
:104DA8002BC0DAFFDF5046EC2DF02AC01FF02BC0D5
:104DB80020F020EE02F02A50D9262B50DA22DF50BC
:104DC800266E2650020DD60EF324D96E010EF4205D
:104DD800DA6EDECF27F0DDCF28F002D8FDEF26F01F
:104DE8000500FA6E2750FD6E2850FE6EFF6AFA50D5
:104DF8001200120020EE0AF01F50D9262050DA22A5
:104E0800010EDB5007E1090EDE5CD8B00EEF27F08B
:104E180010EF27F018EF27F01FC019F020C01AF084
:104E280040EC2EF01EEF27F01FC016F020C017F040
:104E380089EC22F020EE0AF01F50D9262050DA2201
:104E4800DE2A000EDD2220EE0AF01F50D92620505F
:104E5800DA22010EDB5009E1100EDE5CD8A037EF34
:104E680027F039EF27F06CEF27F020EE05F01F5000
:104E7800D9262050DA22DECF21F0DECF22F0DECF95
:104E880023F0DECF24F0050E4FEF27F0D890243220
:104E9800233222322132E82E4AEF27F020EE03F0A7
:104EA8001F50D9262050DA2221C0DEFF22C0DDFFA4
:104EB80020EE02F01F50D9262050DA22010EDF6EB4
:104EC80020EE0AF01F50D9262050DA22DE6ADD6A69
:104ED800120021502210D8A474EF27F076EF27F0A3
:104EE80089EF27F039C021F03AC022F02150221072
:104EF800D8A481EF27F083EF27F089EF27F0000E81
:104F0800216E000E226EDAEF27F021C01AF022C0BF
:104F18001BF023C01CF024C01DF07AEC2DF01A50B1
:104F280021261B50222221C0D9FF22C0DAFFDF50E0
:104F3800D8A4A1EF27F0A3EF27F0ADEF27F0000EDC
:104F4800396E000E3A6E39C021F03AC022F0DAEF1D
:104F580027F021C01AF022C01BF023C01CF024C087
:104F68001DF0ACEC2DF01A502124396E1B50222074
:104F78003A6E39C0D9FF3AC0DAFFDF50D8B4C7EF6C
:104F880027F0C9EF27F0D2EF27F039C0D9FF3AC090
:104F9800DAFFDF6A394A3A2AD6EF27F0000E396E6F
:104FA800000E3A6E21C021F022C022F012001A50E1
:104FB8001B10D8B4E2EF27F0E4EF27F0EDEF27F06D
:104FC8001A501B10D8A4EBEF27F0EDEF27F0F2EF03
:104FD80027F0185007EC36F03FEF28F020EE09F0E4
:104FE8001A50D9261B50DA22DE50DE10D8B4FFEF53
:104FF80027F001EF28F01CEF28F020EE09F01A50F6
:10500800D9261B50DA2210EE02F01A50E1261B5066
:10501800E222DE50E65CE650800A206EDE50800A0E
:105028002058D8B01AEF28F01CEF28F03FEF28F0EE
:1050380020EE02F01A50D9261B50DA22DECF1CF0DF
:10504800DDCF1DF01AC0D9FF1BC0DAFFDECF1EF07E
:10505800DDCF1FF01C501E24D96E1D501F20DA6EA4
:1050680018C0DFFF20EE02F01A50D9261B50DA22B2
:10507800DE2A000EDD22120020EE09F01F50D9268C
:105088002050DA22DF50216E20EE0EF01F50D92674
:105098002050DA22DF50226E2250D880D88421AEE8
:1050A800215CD8A0D884D8B45CEF28F05EEF28F053
:1050B80078EF28F020EE02F01F50D9262050DA228F
:1050C800020EDF6E20EE0AF01F50D9262050DA2299
:1050D800DE6ADD6A1FC0D9FF20C0DAFFDF50166E16
:1050E80065EC36F080EF28F020EE0AF01F50D92644
:1050F8002050DA22DE6ADD6A20EE0CF01F50D92635
:105108002050DA22DE2A000EDD2220EE0CF01F509D
:10511800D9262050DA22800EDE18DE10D8A497EFA8
:1051280028F099EF28F0A1EF28F020EE0CF01F509E
:10513800D9262050DA22DE6ADD6A120057EC35F0F3
:10514800E806D8A4AAEF28F0ACEF28F0EDEF28F095
:10515800F9EC35F017500001F06FF05107EC36F01C
:10516800E1EF28F0500E01017B25D96E020E7C215B
:10517800DA6EDF6A8AEC05F001017C6B000E7B6F4A
:1051880001EF29F001017CBFD5EF28F07C5107E140
:10519800500E7B5DD8B0D3EF28F0D5EF28F0C0EFE4
:1051A80028F0500E7B25D96E020E7C21DA6EF0C0F5
:1051B800DFFF7B4B7C2B01EF29F00001F0510A0A3D
:1051C800D8B401EF29F0070AD8B4B6EF28F0C6EF33
:1051D80028F00101CCA3F3EF28F0F5EF28F0F7EF62
:1051E80028F018EC26F00101CCADFDEF28F0FFEF18
:1051F80028F001EF29F001EC16F012001B6A19BE25
:105208000AEF29F008EF29F010EF29F0186C191EA1
:10521800D8B0192A010E1B6E17BE17EF29F015EF2B
:1052280029F01DEF29F0166C171ED8B0172A010EA9
:105238001B1A1D6A000E1C6E18501910D8B427EFDF
:1052480029F029EF29F051EF29F0010E1A6E31EFFC
:1052580029F0D890183619361A2A19AE36EF29F0DF
:1052680038EF29F02DEF29F0D8901C361D3618504C
:10527800165C19501758D8A044EF29F046EF29F0CA
:105288004BEF29F01850165E1950175A1C80D89009
:10529800193218321A2E38EF29F01B50D8B457EFAC
:1052A80029F059EF29F05DEF29F01C6C1D1ED8B0CC
:1052B8001D2A1CC016F01DC017F01200240E45242C
:1052C800D96EDA6A010EDA22DF6A9DA46EEF29F040
:1052D80070EF29F084EF29F0240E4524D96EDA6A9C
:1052E800010EDA22DF8202D884EF29F00500FA6E77
:1052F8000101F351FD6EF451FE6EFF6AFA5012007F
:105308009DA289EF29F08BEF29F09FEF29F0240E59
:105318004524D96EDA6A010EDA22DF8402D89FEFBB
:1053280029F00500FA6E0101F151FD6EF251FE6E91
:10533800FF6AFA501200240E4524D96EDA6A010E6B
:10534800DA22DF50D8B4ABEF29F0ADEF29F0BCEF8B
:1053580029F002D8BAEF29F00500FA6E0101EF51E1
:10536800FD6EF051FE6EFF6AFA501200BEEF29F092
:105378003DEC34F0120020EE02F01950D9261A50F4
:10538800DA22DF50D8B4CBEF29F0CDEF29F006EFC1
:105398002AF020EE03F01950D9261A50DA22DECF6F
:1053A8001BF0DDCF1CF0040E1D6ED8901C321B3292
:1053B8001D2ED9EF29F020EE03F01950D9261A50E6
:1053C800DA221B50DE5E1C50DD5A20EE01F0195027
:1053D800D9261A50DA22DF500AEC33F0040E1B6E7D
:1053E800D890173216321B2EF4EF29F020EE03F076
:1053F8001950D9261A50DA221650DE261750DD2207
:1054080019EF2AF020EE01F01950D9261A50DA22A5
:10541800DF500AEC33F020EE03F01950D9261A5069
:10542800DA2216C0DEFF17C0DDFF12001B6A17BEA6
:1054380022EF2AF020EF2AF028EF2AF0166C171E28
:10544800D8B0172A010E1B6E19BE2FEF2AF02DEFC8
:105458002AF033EF2AF0186C191ED8B0192A185000
:105468001910D8B43AEF2AF03CEF2AF060EF2AF08E
:10547800010E1A6E44EF2AF0D890183619361A2AF7
:1054880019AE49EF2AF04BEF2AF040EF2AF01850F6
:10549800165C19501758D8A054EF2AF056EF2AF086
:1054A8005AEF2AF01850165E1950175AD890193228
:1054B80018321A2E4BEF2AF01B50D8B466EF2AF098
:1054C80068EF2AF06CEF2AF0166C171ED8B0172A6E
:1054D80016C016F017C017F01200000E16141E6E34
:1054E800000E17141F6E800E1814206E7F0E1914EC
:1054F800216E1E501F1020102110D8A486EF2AF00C
:1055080088EF2AF090EF2AF0000E166E000E176E44
:10551800000E186E000E196E000E1A141E6E000E84
:105528001B141F6E800E1C14206E7F0E1D14216E1E
:105538001E501F1020102110D8A4A5EF2AF0A7EFA5
:105548002AF0AFEF2AF0000E1A6E000E1B6E000E46
:105558001C6E000E1D6E1A5016180FE11B501718FE
:105568000CE11C50181809E11D501918D8B4BFEFE8
:105578002AF0C1EF2AF0C4EF2AF0D890C5EF2AF03C
:10558800D8801200736D7200736D6200736D6400D1
:10559800736D7400736D7000736D610073727200C7
:1055A80073726200737264006D74730073727000BA
:1055B800736E7200737872006164720061646D00CA
:1055C80074687200736F7200736F7700656572009C
:1055D800656577006565640065656C0065657300E1
:1055E8007468770072656E00726572007465720087
:1055F80074656D00736E7700737877007265770055
:105608006174630073666200777273007772690071
:10561800737362007264740073647400726263006E
:105628007362630020EE0EF01F50D9262050DA2254
:10563800DF50216ED890213220EE0EF01F50D9266F
:105648002050DA22DF50226E2150225C236E20EE99
:1056580009F01F50D9262050DA22DE50800A256E24
:105668002350800A255CD8B03CEF2BF03EEF2BF09E
:1056780060EF2BF020EE02F01F50D9262050DA22DE
:10568800010EDF6E20EE0AF01F50D9262050DA22D4
:10569800DE6ADD6A20EE0CF01F50D9262050DA228F
:1056A800FF0EDE6EFB0EDD6E1FC0D9FF20C0DAFFD5
:1056B800DF50166E65EC36F012008C0EF66E550E45
:1056C800F76E000EF86E03EE00F010EEA0F0090081
:1056D800F5CFEEFFE550E150FAE1060EF66E6B0EDF
:1056E800F76E000EF86E01EED6F010EE15F0090018
:1056F800F5CFEEFFE550E150FAE1C40EF66E6C0E00
:10570800F76E000EF86E0900F5CFFEF00900F5CF30
:10571800FFF002EE00F0B80EEE6AE806FDE101EED9
:1057280000F0D60EEE6AE806FDE100EEF1F00D0E8F
:10573800EE6AE806FDE100EE39F0130EEE6AE806BF
:10574800FDE101900192000129EF17F00001EF6BD4
:10575800000EEE6FDEEF2BF03F0E0201B86FFF0E6A
:10576800B96F0001EE510101FB250201BA6F00017A
:10577800EF510101FC210201BB6F0001EE51010153
:10578800FB25166E0001EF510101FC21176E4BEC51
:1057980035F0386E38500201BC6FBD6B9DEC34F0AB
:1057A800090E0201B86FFF0EB96F9DEC34F00001CD
:1057B800EE4BEF2B0101FD510001EE5DEF51800A28
:1057C800386E0101FE51800A3858D8A0EEEF2BF050
:1057D800F0EF2BF0B0EF2BF01200FFEC33F01EC00F
:1057E80026F01FC027F027BE01EF2CF0080E275C1B
:1057F800D8A001EF2CF003EF2CF009EF2CF0000EED
:105808002624266EF00E2720276E26C023F027C0F8
:1058180024F0040E256E243424322332252E0FEF73
:105828002CF023C083F124C084F10A0E2602F3CFA2
:1058380023F0F4CF24F02702F3502426040E256E1B
:10584800243424322332252E24EF2CF023C081F176
:1058580024C082F112000001FB51D8A436EF2CF0CD
:1058680038EF2CF047EF2CF058C11CF059C11DF04F
:1058780025EC33F01C500001F55DF36F1D50F6590F
:10588800F46F52EF2CF058C11CF059C11DF025ECF3
:1058980033F01C500001F35F1D50F45BFB2B01013A
:1058A800936B176A110E166EFBC018F0B2EC30F04D
:1058B800176A120E166E0001F451186EB2EC30F031
:1058C800176A130E166EF3C018F0B2EC30F012001F
:1058D800236A000E226E1EC016F01FC017F022C0E9
:1058E80020F023C021F0D89020362136D8902036D9
:1058F8002136000E2024186E030E2120196EDEECCE
:105908002DF016501710D8B48CEF2CF08EEF2CF029
:1059180094EF2CF022C01EF023C01FF0A6EF2CF04D
:10592800224A232A23BEA2EF2CF0235009E1280E95
:10593800225CD8A0A2EF2CF0A4EF2CF06FEF2CF093
:105948001E681F6812000E01C59BC40E166E520E0B
:10595800176E16EC36F00E01C599B00E166E620E73
:10596800176E11EC36F0080E9F6E900E9D6E240E89
:105978009E6E220E9B6E9C6AD00E166E6C0E176E73
:1059880020EC36F0B00E166E6C0E176E1BEC36F06F
:10599800B60E166E6C0E176E25EC36F00101966B7E
:1059A800486A476A100E466E456A446A436A0E01A1
:1059B800C58B12002DBEE5EF2CF0E3EF2CF0E8EFDD
:1059C8002CF02D6A000E2C6E306A000E2F6EF8EF48
:1059D8002CF0196A200E186E28C01AF029C01BF086
:1059E800DBEC27F02F4A302A2C502F5C3050800AED
:1059F8002E6E2D50800A2E58D8A005EF2DF007EFF7
:105A08002DF0EDEF2CF02AC021F02BC022F028C099
:105A180023F029C024F0F6EC30F0120018C01FF073
:105A280019C020F016C01DF017C01EF038EF2DF079
:105A38001FC0F6FF20C0F7FF000EF86E0E0EF764C9
:105A480003D00800F55005D0F6CFE9FFF7CFEAFFFD
:105A5800EF501C6E1F4A202A1DC0D9FF1EC0DAFF56
:105A68001CC0DFFF1D4A1E2A1A06D8A01B061A28CA
:105A780006E11B28D8A443EF2DF045EF2DF01CEFCD
:105A88002DF01200176E1750100DB40EF324186E77
:105A9800010EF420196E20EE02F01850D926195084
:105AA800DA22DF6A20EE05F01850D9261950DA22DA
:105AB800DE6ADE6ADE6ADD6A20EE0AF01850D92650
:105AC8001950DA22DE6ADD6A20EE0CF01850D92669
:105AD8001950DA22DE6ADD6A20EE01F01850D92664
